{
  "abi": [
    {
      "inputs": [
        {
          "internalType": "address",
          "name": "_rc",
          "type": "address"
        },
        {
          "internalType": "address",
          "name": "_treasury",
          "type": "address"
        }
      ],
      "stateMutability": "nonpayable",
      "type": "constructor"
    },
    {
      "inputs": [],
      "name": "CANT_FINALIZE_YET",
      "type": "error"
    },
    {
      "inputs": [],
      "name": "NOT_OWNER",
      "type": "error"
    },
    {
      "inputs": [],
      "name": "TOO_MANY",
      "type": "error"
    },
    {
      "inputs": [],
      "name": "TOO_MANY_PRIZES",
      "type": "error"
    },
    {
      "inputs": [],
      "name": "WRONG_PRICE",
      "type": "error"
    },
    {
      "inputs": [],
      "name": "ZERO_ADDRESS",
      "type": "error"
    },
    {
      "inputs": [],
      "name": "ZERO_WINNERS",
      "type": "error"
    },
    {
      "anonymous": false,
      "inputs": [
        {
          "indexed": true,
          "internalType": "address",
          "name": "owner",
          "type": "address"
        },
        {
          "indexed": true,
          "internalType": "address",
          "name": "spender",
          "type": "address"
        },
        {
          "indexed": true,
          "internalType": "uint256",
          "name": "id",
          "type": "uint256"
        }
      ],
      "name": "Approval",
      "type": "event"
    },
    {
      "anonymous": false,
      "inputs": [
        {
          "indexed": true,
          "internalType": "address",
          "name": "owner",
          "type": "address"
        },
        {
          "indexed": true,
          "internalType": "address",
          "name": "operator",
          "type": "address"
        },
        {
          "indexed": false,
          "internalType": "bool",
          "name": "approved",
          "type": "bool"
        }
      ],
      "name": "ApprovalForAll",
      "type": "event"
    },
    {
      "anonymous": false,
      "inputs": [
        {
          "indexed": true,
          "internalType": "uint256",
          "name": "roundId",
          "type": "uint256"
        },
        {
          "indexed": true,
          "internalType": "address",
          "name": "participant",
          "type": "address"
        },
        {
          "indexed": false,
          "internalType": "uint256",
          "name": "participantId",
          "type": "uint256"
        }
      ],
      "name": "ParticipantAdded",
      "type": "event"
    },
    {
      "anonymous": false,
      "inputs": [
        {
          "indexed": true,
          "internalType": "uint256",
          "name": "roundId",
          "type": "uint256"
        },
        {
          "indexed": true,
          "internalType": "address",
          "name": "participant",
          "type": "address"
        },
        {
          "indexed": false,
          "internalType": "uint256",
          "name": "amount",
          "type": "uint256"
        }
      ],
      "name": "Redistribution",
      "type": "event"
    },
    {
      "anonymous": false,
      "inputs": [
        {
          "indexed": true,
          "internalType": "uint256",
          "name": "roundId",
          "type": "uint256"
        },
        {
          "indexed": false,
          "internalType": "uint256",
          "name": "randomness",
          "type": "uint256"
        }
      ],
      "name": "RoundFinalized",
      "type": "event"
    },
    {
      "anonymous": false,
      "inputs": [
        {
          "indexed": true,
          "internalType": "uint256",
          "name": "roundId",
          "type": "uint256"
        }
      ],
      "name": "RoundStarted",
      "type": "event"
    },
    {
      "anonymous": false,
      "inputs": [
        {
          "indexed": false,
          "internalType": "string",
          "name": "baseURI",
          "type": "string"
        }
      ],
      "name": "SetBaseURI",
      "type": "event"
    },
    {
      "anonymous": false,
      "inputs": [
        {
          "indexed": false,
          "internalType": "uint256",
          "name": "everyoneWinsProbability",
          "type": "uint256"
        }
      ],
      "name": "SetEveryoneWinsProbability",
      "type": "event"
    },
    {
      "anonymous": false,
      "inputs": [
        {
          "indexed": false,
          "internalType": "uint256",
          "name": "finalizerReward",
          "type": "uint256"
        }
      ],
      "name": "SetFinalizerReward",
      "type": "event"
    },
    {
      "anonymous": false,
      "inputs": [
        {
          "indexed": false,
          "internalType": "uint256",
          "name": "minDuration",
          "type": "uint256"
        }
      ],
      "name": "SetMinDuration",
      "type": "event"
    },
    {
      "anonymous": false,
      "inputs": [
        {
          "indexed": false,
          "internalType": "address",
          "name": "owner",
          "type": "address"
        }
      ],
      "name": "SetOwner",
      "type": "event"
    },
    {
      "anonymous": false,
      "inputs": [
        {
          "indexed": false,
          "internalType": "uint256",
          "name": "price",
          "type": "uint256"
        }
      ],
      "name": "SetPrice",
      "type": "event"
    },
    {
      "anonymous": false,
      "inputs": [
        {
          "indexed": false,
          "internalType": "uint256[]",
          "name": "prizes",
          "type": "uint256[]"
        }
      ],
      "name": "SetPrizes",
      "type": "event"
    },
    {
      "anonymous": false,
      "inputs": [
        {
          "indexed": false,
          "internalType": "address",
          "name": "rc",
          "type": "address"
        }
      ],
      "name": "SetRandomnessClient",
      "type": "event"
    },
    {
      "anonymous": false,
      "inputs": [
        {
          "indexed": false,
          "internalType": "address",
          "name": "treasury",
          "type": "address"
        }
      ],
      "name": "SetTreasury",
      "type": "event"
    },
    {
      "anonymous": false,
      "inputs": [
        {
          "indexed": false,
          "internalType": "uint256",
          "name": "treasuryReserve",
          "type": "uint256"
        }
      ],
      "name": "SetTreasuryReserve",
      "type": "event"
    },
    {
      "anonymous": false,
      "inputs": [
        {
          "indexed": true,
          "internalType": "address",
          "name": "from",
          "type": "address"
        },
        {
          "indexed": true,
          "internalType": "address",
          "name": "to",
          "type": "address"
        },
        {
          "indexed": true,
          "internalType": "uint256",
          "name": "id",
          "type": "uint256"
        }
      ],
      "name": "Transfer",
      "type": "event"
    },
    {
      "anonymous": false,
      "inputs": [
        {
          "indexed": true,
          "internalType": "uint256",
          "name": "roundId",
          "type": "uint256"
        },
        {
          "indexed": true,
          "internalType": "address",
          "name": "participant",
          "type": "address"
        },
        {
          "indexed": false,
          "internalType": "uint256",
          "name": "prizeId",
          "type": "uint256"
        },
        {
          "indexed": false,
          "internalType": "uint256",
          "name": "prizeAmount",
          "type": "uint256"
        }
      ],
      "name": "WonPrize",
      "type": "event"
    },
    {
      "inputs": [
        {
          "internalType": "address",
          "name": "spender",
          "type": "address"
        },
        {
          "internalType": "uint256",
          "name": "id",
          "type": "uint256"
        }
      ],
      "name": "approve",
      "outputs": [],
      "stateMutability": "nonpayable",
      "type": "function"
    },
    {
      "inputs": [
        {
          "internalType": "address",
          "name": "owner",
          "type": "address"
        }
      ],
      "name": "balanceOf",
      "outputs": [
        {
          "internalType": "uint256",
          "name": "",
          "type": "uint256"
        }
      ],
      "stateMutability": "view",
      "type": "function"
    },
    {
      "inputs": [],
      "name": "baseURI",
      "outputs": [
        {
          "internalType": "string",
          "name": "",
          "type": "string"
        }
      ],
      "stateMutability": "view",
      "type": "function"
    },
    {
      "inputs": [],
      "name": "everyoneWinsProbability",
      "outputs": [
        {
          "internalType": "uint256",
          "name": "",
          "type": "uint256"
        }
      ],
      "stateMutability": "view",
      "type": "function"
    },
    {
      "inputs": [],
      "name": "finalizeRound",
      "outputs": [],
      "stateMutability": "nonpayable",
      "type": "function"
    },
    {
      "inputs": [],
      "name": "finalizerReward",
      "outputs": [
        {
          "internalType": "uint256",
          "name": "",
          "type": "uint256"
        }
      ],
      "stateMutability": "view",
      "type": "function"
    },
    {
      "inputs": [
        {
          "internalType": "uint256",
          "name": "",
          "type": "uint256"
        }
      ],
      "name": "getApproved",
      "outputs": [
        {
          "internalType": "address",
          "name": "",
          "type": "address"
        }
      ],
      "stateMutability": "view",
      "type": "function"
    },
    {
      "inputs": [
        {
          "internalType": "address",
          "name": "_owner",
          "type": "address"
        }
      ],
      "name": "getOwnerTokenIds",
      "outputs": [
        {
          "internalType": "uint256[]",
          "name": "",
          "type": "uint256[]"
        }
      ],
      "stateMutability": "view",
      "type": "function"
    },
    {
      "inputs": [
        {
          "internalType": "address",
          "name": "_owner",
          "type": "address"
        }
      ],
      "name": "getOwnerTokens",
      "outputs": [
        {
          "components": [
            {
              "internalType": "uint256",
              "name": "tokenId",
              "type": "uint256"
            },
            {
              "internalType": "uint256",
              "name": "roundId",
              "type": "uint256"
            },
            {
              "internalType": "uint256",
              "name": "prizePoolSize",
              "type": "uint256"
            },
            {
              "internalType": "uint256",
              "name": "prizeRank",
              "type": "uint256"
            }
          ],
          "internalType": "struct DumpingBandits.OwnerToken[]",
          "name": "",
          "type": "tuple[]"
        }
      ],
      "stateMutability": "view",
      "type": "function"
    },
    {
      "inputs": [
        {
          "internalType": "uint256",
          "name": "_roundId",
          "type": "uint256"
        }
      ],
      "name": "getRoundTokens",
      "outputs": [
        {
          "components": [
            {
              "internalType": "uint256",
              "name": "tokenId",
              "type": "uint256"
            },
            {
              "internalType": "address",
              "name": "owner",
              "type": "address"
            },
            {
              "internalType": "uint256",
              "name": "prizePoolSize",
              "type": "uint256"
            },
            {
              "internalType": "uint256",
              "name": "prizeRank",
              "type": "uint256"
            }
          ],
          "internalType": "struct DumpingBandits.RoundToken[]",
          "name": "",
          "type": "tuple[]"
        }
      ],
      "stateMutability": "view",
      "type": "function"
    },
    {
      "inputs": [
        {
          "internalType": "address",
          "name": "",
          "type": "address"
        },
        {
          "internalType": "address",
          "name": "",
          "type": "address"
        }
      ],
      "name": "isApprovedForAll",
      "outputs": [
        {
          "internalType": "bool",
          "name": "",
          "type": "bool"
        }
      ],
      "stateMutability": "view",
      "type": "function"
    },
    {
      "inputs": [],
      "name": "lastRoundLastTokenId",
      "outputs": [
        {
          "internalType": "uint256",
          "name": "",
          "type": "uint256"
        }
      ],
      "stateMutability": "view",
      "type": "function"
    },
    {
      "inputs": [],
      "name": "minDuration",
      "outputs": [
        {
          "internalType": "uint256",
          "name": "",
          "type": "uint256"
        }
      ],
      "stateMutability": "view",
      "type": "function"
    },
    {
      "inputs": [],
      "name": "name",
      "outputs": [
        {
          "internalType": "string",
          "name": "",
          "type": "string"
        }
      ],
      "stateMutability": "view",
      "type": "function"
    },
    {
      "inputs": [],
      "name": "owner",
      "outputs": [
        {
          "internalType": "address",
          "name": "",
          "type": "address"
        }
      ],
      "stateMutability": "view",
      "type": "function"
    },
    {
      "inputs": [
        {
          "internalType": "uint256",
          "name": "id",
          "type": "uint256"
        }
      ],
      "name": "ownerOf",
      "outputs": [
        {
          "internalType": "address",
          "name": "owner",
          "type": "address"
        }
      ],
      "stateMutability": "view",
      "type": "function"
    },
    {
      "inputs": [],
      "name": "participate",
      "outputs": [],
      "stateMutability": "payable",
      "type": "function"
    },
    {
      "inputs": [],
      "name": "price",
      "outputs": [
        {
          "internalType": "uint256",
          "name": "",
          "type": "uint256"
        }
      ],
      "stateMutability": "view",
      "type": "function"
    },
    {
      "inputs": [
        {
          "internalType": "uint256",
          "name": "_tokenId",
          "type": "uint256"
        }
      ],
      "name": "prizeRank",
      "outputs": [
        {
          "internalType": "uint256",
          "name": "",
          "type": "uint256"
        }
      ],
      "stateMutability": "view",
      "type": "function"
    },
    {
      "inputs": [
        {
          "internalType": "uint256",
          "name": "",
          "type": "uint256"
        }
      ],
      "name": "prizes",
      "outputs": [
        {
          "internalType": "uint256",
          "name": "",
          "type": "uint256"
        }
      ],
      "stateMutability": "view",
      "type": "function"
    },
    {
      "inputs": [],
      "name": "rc",
      "outputs": [
        {
          "internalType": "contract IRandomnessClient",
          "name": "",
          "type": "address"
        }
      ],
      "stateMutability": "view",
      "type": "function"
    },
    {
      "inputs": [],
      "name": "roundId",
      "outputs": [
        {
          "internalType": "uint256",
          "name": "",
          "type": "uint256"
        }
      ],
      "stateMutability": "view",
      "type": "function"
    },
    {
      "inputs": [],
      "name": "roundParticipants",
      "outputs": [
        {
          "internalType": "uint256",
          "name": "",
          "type": "uint256"
        }
      ],
      "stateMutability": "view",
      "type": "function"
    },
    {
      "inputs": [],
      "name": "roundStartedAt",
      "outputs": [
        {
          "internalType": "uint256",
          "name": "",
          "type": "uint256"
        }
      ],
      "stateMutability": "view",
      "type": "function"
    },
    {
      "inputs": [
        {
          "internalType": "uint256",
          "name": "",
          "type": "uint256"
        }
      ],
      "name": "rounds",
      "outputs": [
        {
          "internalType": "uint256",
          "name": "randomness",
          "type": "uint256"
        },
        {
          "internalType": "uint256",
          "name": "participants",
          "type": "uint256"
        },
        {
          "internalType": "uint256",
          "name": "lastRoundLastTokenId",
          "type": "uint256"
        }
      ],
      "stateMutability": "view",
      "type": "function"
    },
    {
      "inputs": [
        {
          "internalType": "address",
          "name": "from",
          "type": "address"
        },
        {
          "internalType": "address",
          "name": "to",
          "type": "address"
        },
        {
          "internalType": "uint256",
          "name": "id",
          "type": "uint256"
        }
      ],
      "name": "safeTransferFrom",
      "outputs": [],
      "stateMutability": "nonpayable",
      "type": "function"
    },
    {
      "inputs": [
        {
          "internalType": "address",
          "name": "from",
          "type": "address"
        },
        {
          "internalType": "address",
          "name": "to",
          "type": "address"
        },
        {
          "internalType": "uint256",
          "name": "id",
          "type": "uint256"
        },
        {
          "internalType": "bytes",
          "name": "data",
          "type": "bytes"
        }
      ],
      "name": "safeTransferFrom",
      "outputs": [],
      "stateMutability": "nonpayable",
      "type": "function"
    },
    {
      "inputs": [
        {
          "internalType": "address",
          "name": "operator",
          "type": "address"
        },
        {
          "internalType": "bool",
          "name": "approved",
          "type": "bool"
        }
      ],
      "name": "setApprovalForAll",
      "outputs": [],
      "stateMutability": "nonpayable",
      "type": "function"
    },
    {
      "inputs": [
        {
          "internalType": "string",
          "name": "_baseURI",
          "type": "string"
        }
      ],
      "name": "setBaseURI",
      "outputs": [],
      "stateMutability": "nonpayable",
      "type": "function"
    },
    {
      "inputs": [
        {
          "internalType": "uint256",
          "name": "_everyoneWinsProbability",
          "type": "uint256"
        }
      ],
      "name": "setEveryoneWinsProbability",
      "outputs": [],
      "stateMutability": "nonpayable",
      "type": "function"
    },
    {
      "inputs": [
        {
          "internalType": "uint256",
          "name": "_finalizerReward",
          "type": "uint256"
        }
      ],
      "name": "setFinalizerReward",
      "outputs": [],
      "stateMutability": "nonpayable",
      "type": "function"
    },
    {
      "inputs": [
        {
          "internalType": "uint256",
          "name": "_minDuration",
          "type": "uint256"
        }
      ],
      "name": "setMinDuration",
      "outputs": [],
      "stateMutability": "nonpayable",
      "type": "function"
    },
    {
      "inputs": [
        {
          "internalType": "address",
          "name": "_owner",
          "type": "address"
        }
      ],
      "name": "setOwner",
      "outputs": [],
      "stateMutability": "nonpayable",
      "type": "function"
    },
    {
      "inputs": [
        {
          "internalType": "uint256",
          "name": "_price",
          "type": "uint256"
        }
      ],
      "name": "setPrice",
      "outputs": [],
      "stateMutability": "nonpayable",
      "type": "function"
    },
    {
      "inputs": [
        {
          "internalType": "uint256[]",
          "name": "_prizes",
          "type": "uint256[]"
        }
      ],
      "name": "setPrizes",
      "outputs": [],
      "stateMutability": "nonpayable",
      "type": "function"
    },
    {
      "inputs": [
        {
          "internalType": "address",
          "name": "_rc",
          "type": "address"
        }
      ],
      "name": "setRandomnessClient",
      "outputs": [],
      "stateMutability": "nonpayable",
      "type": "function"
    },
    {
      "inputs": [
        {
          "internalType": "address",
          "name": "_treasury",
          "type": "address"
        }
      ],
      "name": "setTreasury",
      "outputs": [],
      "stateMutability": "nonpayable",
      "type": "function"
    },
    {
      "inputs": [
        {
          "internalType": "uint256",
          "name": "_treasuryReserve",
          "type": "uint256"
        }
      ],
      "name": "setTreasuryReserve",
      "outputs": [],
      "stateMutability": "nonpayable",
      "type": "function"
    },
    {
      "inputs": [
        {
          "internalType": "bytes4",
          "name": "interfaceId",
          "type": "bytes4"
        }
      ],
      "name": "supportsInterface",
      "outputs": [
        {
          "internalType": "bool",
          "name": "",
          "type": "bool"
        }
      ],
      "stateMutability": "view",
      "type": "function"
    },
    {
      "inputs": [],
      "name": "symbol",
      "outputs": [
        {
          "internalType": "string",
          "name": "",
          "type": "string"
        }
      ],
      "stateMutability": "view",
      "type": "function"
    },
    {
      "inputs": [
        {
          "internalType": "uint256",
          "name": "",
          "type": "uint256"
        }
      ],
      "name": "tokenIdRound",
      "outputs": [
        {
          "internalType": "uint256",
          "name": "",
          "type": "uint256"
        }
      ],
      "stateMutability": "view",
      "type": "function"
    },
    {
      "inputs": [
        {
          "internalType": "uint256",
          "name": "_tokenId",
          "type": "uint256"
        }
      ],
      "name": "tokenInfo",
      "outputs": [
        {
          "internalType": "string",
          "name": "",
          "type": "string"
        }
      ],
      "stateMutability": "view",
      "type": "function"
    },
    {
      "inputs": [
        {
          "internalType": "uint256",
          "name": "_tokenId",
          "type": "uint256"
        }
      ],
      "name": "tokenURI",
      "outputs": [
        {
          "internalType": "string",
          "name": "",
          "type": "string"
        }
      ],
      "stateMutability": "view",
      "type": "function"
    },
    {
      "inputs": [
        {
          "internalType": "address",
          "name": "from",
          "type": "address"
        },
        {
          "internalType": "address",
          "name": "to",
          "type": "address"
        },
        {
          "internalType": "uint256",
          "name": "id",
          "type": "uint256"
        }
      ],
      "name": "transferFrom",
      "outputs": [],
      "stateMutability": "nonpayable",
      "type": "function"
    },
    {
      "inputs": [],
      "name": "treasury",
      "outputs": [
        {
          "internalType": "contract IBanditTreasury",
          "name": "",
          "type": "address"
        }
      ],
      "stateMutability": "view",
      "type": "function"
    },
    {
      "inputs": [],
      "name": "treasuryReserve",
      "outputs": [
        {
          "internalType": "uint256",
          "name": "",
          "type": "uint256"
        }
      ],
      "stateMutability": "view",
      "type": "function"
    }
  ],
  "bytecode": {
    "object": "0x600160065560c0604052601b60809081527f68747470733a2f2f64756d70696e6762616e646974732f6e66742f000000000060a052600a90620000439082620003af565b50678ac7230489e80000600b55610384600c5564e8d4a51000600d556040805160608101825267058d15e17628000081526703782dace9d900006020820152670214e8348c4f000091810191909152620000a290600e90600362000298565b50674563918244f40000600f556702c68af0bb1400006010556000601155600060125560006013556000601455348015620000dc57600080fd5b506040516200374e3803806200374e833981016040819052620000ff9162000498565b6040518060400160405280600f81526020016e44756d70696e672042616e6469747360881b8152506040518060400160405280600681526020016510905391125560d21b8152508160009081620001579190620003af565b506001620001668282620003af565b5050506001600160a01b03821615806200018757506001600160a01b038116155b15620001a65760405163538ba4f960e01b815260040160405180910390fd5b600780546001600160a01b031916339081179091556040519081527f167d3e9c1016ab80e58802ca9da10ce5c6a0f4debc46a2e7a2cd9e56899a4fb59060200160405180910390a1600880546001600160a01b0319166001600160a01b0384169081179091556040519081527f240d8bf6972a9e438d69cd9b1c79a0414806127b38f7b84dd65168e180ad22bc9060200160405180910390a1600980546001600160a01b0319166001600160a01b0383169081179091556040519081527fcb7ef3e545f5cdb893f5c568ba710fe08f336375a2d9fd66e161033f8fc09ef39060200160405180910390a15050620004d0565b828054828255906000526020600020908101928215620002e1579160200282015b82811115620002e157825182906001600160401b0316905591602001919060010190620002b9565b50620002ef929150620002f3565b5090565b5b80821115620002ef5760008155600101620002f4565b634e487b7160e01b600052604160045260246000fd5b600181811c908216806200033557607f821691505b6020821081036200035657634e487b7160e01b600052602260045260246000fd5b50919050565b601f821115620003aa57600081815260208120601f850160051c81016020861015620003855750805b601f850160051c820191505b81811015620003a65782815560010162000391565b5050505b505050565b81516001600160401b03811115620003cb57620003cb6200030a565b620003e381620003dc845462000320565b846200035c565b602080601f8311600181146200041b5760008415620004025750858301515b600019600386901b1c1916600185901b178555620003a6565b600085815260208120601f198616915b828110156200044c578886015182559484019460019091019084016200042b565b50858210156200046b5787850151600019600388901b60f8161c191681555b5050505050600190811b01905550565b80516001600160a01b03811681146200049357600080fd5b919050565b60008060408385031215620004ac57600080fd5b620004b7836200047b565b9150620004c7602084016200047b565b90509250929050565b61326e80620004e06000396000f3fe60806040526004361061027d5760003560e01c80638cd221c91161014f578063be03d23d116100c1578063d63d4af01161007a578063d63d4af014610798578063e66b6000146107c5578063e985e9c5146107f2578063eccb3a4f1461082d578063f0f442601461084d578063f1816b1e1461086d57600080fd5b8063be03d23d14610704578063c0f2165e1461071a578063c87b56dd1461073a578063cc33c8751461075a578063d11711a21461077a578063d40dc8691461078257600080fd5b8063a035b1fe11610113578063a035b1fe14610658578063a16e56fc1461066e578063a22cb46514610684578063a6bd686b146106a4578063b88d4fde146106c4578063bba33931146106e457600080fd5b80638cd221c9146105cd5780638da5cb5b146105e357806391b7f5ed1461060357806395d89b411461062357806397811c4c1461063857600080fd5b8063296af167116101f357806361d027b3116101ac57806361d027b3146104d15780636352211e146104f15780636c0360eb1461051157806370a08231146105265780637b808ecc146105465780638c65c81f1461057357600080fd5b8063296af1671461042b57806342842e0e1461044f5780634f183cc51461046f57806355f804b31461048557806356715761146104a557806359297dbf146104bb57600080fd5b806312f773321161024557806312f773321461037657806313af4035146103965780631674bade146103b65780631e820325146103d65780631ecd794f146103eb57806323b872dd1461040b57600080fd5b806301ffc9a71461028257806306fdde03146102b7578063081812fc146102d95780630821808714610327578063095ea7b314610354575b600080fd5b34801561028e57600080fd5b506102a261029d36600461288f565b61088d565b60405190151581526020015b60405180910390f35b3480156102c357600080fd5b506102cc6108df565b6040516102ae91906128d0565b3480156102e557600080fd5b5061030f6102f4366004612903565b6004602052600090815260409020546001600160a01b031681565b6040516001600160a01b0390911681526020016102ae565b34801561033357600080fd5b50610347610342366004612903565b61096d565b6040516102ae919061291c565b34801561036057600080fd5b5061037461036f3660046129a0565b610b64565b005b34801561038257600080fd5b5060085461030f906001600160a01b031681565b3480156103a257600080fd5b506103746103b13660046129ca565b610c4b565b3480156103c257600080fd5b506103746103d1366004612903565b610ccb565b3480156103e257600080fd5b50610374610d2b565b3480156103f757600080fd5b50610374610406366004612903565b610efc565b34801561041757600080fd5b506103746104263660046129e5565b610f5c565b34801561043757600080fd5b50610441600f5481565b6040519081526020016102ae565b34801561045b57600080fd5b5061037461046a3660046129e5565b611123565b34801561047b57600080fd5b5061044160145481565b34801561049157600080fd5b506103746104a0366004612a68565b6111f8565b3480156104b157600080fd5b50610441600c5481565b3480156104c757600080fd5b5061044160105481565b3480156104dd57600080fd5b5060095461030f906001600160a01b031681565b3480156104fd57600080fd5b5061030f61050c366004612903565b611260565b34801561051d57600080fd5b506102cc6112b7565b34801561053257600080fd5b506104416105413660046129ca565b6112c4565b34801561055257600080fd5b50610441610561366004612903565b60166020526000908152604090205481565b34801561057f57600080fd5b506105b261058e366004612903565b60156020526000908152604090206001810154600282015460039092015490919083565b604080519384526020840192909252908201526060016102ae565b3480156105d957600080fd5b5061044160135481565b3480156105ef57600080fd5b5060075461030f906001600160a01b031681565b34801561060f57600080fd5b5061037461061e366004612903565b611327565b34801561062f57600080fd5b506102cc611387565b34801561064457600080fd5b506103746106533660046129ca565b611394565b34801561066457600080fd5b50610441600b5481565b34801561067a57600080fd5b5061044160115481565b34801561069057600080fd5b5061037461069f366004612afd565b611434565b3480156106b057600080fd5b506104416106bf366004612903565b6114a0565b3480156106d057600080fd5b506103746106df366004612b39565b6115f2565b3480156106f057600080fd5b506103746106ff366004612903565b6116b7565b34801561071057600080fd5b50610441600d5481565b34801561072657600080fd5b50610374610735366004612bd4565b611717565b34801561074657600080fd5b506102cc610755366004612903565b611856565b34801561076657600080fd5b506102cc610775366004612903565b61188a565b6103746119c8565b34801561078e57600080fd5b5061044160125481565b3480156107a457600080fd5b506107b86107b33660046129ca565b611ac3565b6040516102ae9190612c7a565b3480156107d157600080fd5b506107e56107e03660046129ca565b611d07565b6040516102ae9190612cd1565b3480156107fe57600080fd5b506102a261080d366004612d15565b600560209081526000928352604080842090915290825290205460ff1681565b34801561083957600080fd5b50610441610848366004612903565b611dff565b34801561085957600080fd5b506103746108683660046129ca565b611e20565b34801561087957600080fd5b50610374610888366004612903565b611ec0565b60006301ffc9a760e01b6001600160e01b0319831614806108be57506380ac58cd60e01b6001600160e01b03198316145b806108d95750635b5e139f60e01b6001600160e01b03198316145b92915050565b600080546108ec90612d48565b80601f016020809104026020016040519081016040528092919081815260200182805461091890612d48565b80156109655780601f1061093a57610100808354040283529160200191610965565b820191906000526020600020905b81548152906001019060200180831161094857829003601f168201915b505050505081565b60008181526015602090815260408083208151815460a0948102820185019093526080810183815260609594919384928491908401828280156109d957602002820191906000526020600020905b81546001600160a01b031681526001909101906020018083116109bb575b50505050508152602001600182015481526020016002820154815260200160038201548152505090506000816060015190506000826040015167ffffffffffffffff811115610a2a57610a2a612a21565b604051908082528060200260200182016040528015610a8f57816020015b610a7c60405180608001604052806000815260200160006001600160a01b0316815260200160008152602001600081525090565b815260200190600190039081610a485790505b50905060005b8360400151811015610b5b576000610aad8285612d98565b610ab8906001612d98565b90506000610ac582611260565b90506000610aee600b54886000015151670de0b6b3a7640000610ae89190612dab565b90611f20565b90506000610afb846114a0565b90506040518060800160405280858152602001846001600160a01b0316815260200183815260200182815250868681518110610b3957610b39612dc2565b6020026020010181905250505050508080610b5390612dd8565b915050610a95565b50949350505050565b6000818152600260205260409020546001600160a01b031633811480610bad57506001600160a01b038116600090815260056020908152604080832033845290915290205460ff165b610bef5760405162461bcd60e51b815260206004820152600e60248201526d1393d517d055551213d49256915160921b60448201526064015b60405180910390fd5b60008281526004602052604080822080546001600160a01b0319166001600160a01b0387811691821790925591518593918516917f8c5be1e5ebec7d5bd14f71427d1e84f3dd0314c0f7b2291e5b200ac8c7c3b92591a4505050565b6007546001600160a01b03163314610c76576040516338ebc58960e11b815260040160405180910390fd5b600780546001600160a01b0319166001600160a01b0383169081179091556040519081527f167d3e9c1016ab80e58802ca9da10ce5c6a0f4debc46a2e7a2cd9e56899a4fb5906020015b60405180910390a150565b6007546001600160a01b03163314610cf6576040516338ebc58960e11b815260040160405180910390fd5b600c8190556040518181527f7eded2c549bae9a064369318a940074f1c91f965cc3f7aed87ea7dba1c150c0c90602001610cc0565b610d33611f3c565b610d5057604051630fc2437760e11b815260040160405180910390fd5b600654600114610d8f5760405162461bcd60e51b815260206004820152600a6024820152695245454e5452414e435960b01b6044820152606401610be6565b6002600655600854604080516355573dc360e11b815290516000926001600160a01b03169163aaae7b869160048083019260209291908290030181865afa158015610dde573d6000803e3d6000fd5b505050506040513d601f19601f82011682018060405250810190610e029190612df1565b90506000610e0f82611f69565b6040805160808101825282815260208082018690526012548284015260145460608301526013546000908152601582529290922081518051949550919384939192610e5e9284929101906127c1565b5060208201516001820155604082015160028201556060909101516003909101558151600003610e9557610e9061206c565b610e9e565b610e9e8261213e565b610eaa33600f54612220565b610eb2612271565b600060118190556012556013546040518481527f2b034c48d6d3c5fa40da8afd25e88ee8ad074a546e1a3f05a860c6106b99b82b9060200160405180910390a25050600160065550565b6007546001600160a01b03163314610f27576040516338ebc58960e11b815260040160405180910390fd5b60108190556040518181527f7e2e70f554f7a916170e6f8b5fa7b10481e82c540902b810b83bbae02df025d190602001610cc0565b6000818152600260205260409020546001600160a01b03848116911614610fb25760405162461bcd60e51b815260206004820152600a60248201526957524f4e475f46524f4d60b01b6044820152606401610be6565b6001600160a01b038216610ffc5760405162461bcd60e51b81526020600482015260116024820152701253959053125117d49150d25412515395607a1b6044820152606401610be6565b336001600160a01b038416148061103657506001600160a01b038316600090815260056020908152604080832033845290915290205460ff165b8061105757506000818152600460205260409020546001600160a01b031633145b6110945760405162461bcd60e51b815260206004820152600e60248201526d1393d517d055551213d49256915160921b6044820152606401610be6565b6001600160a01b0380841660008181526003602090815260408083208054600019019055938616808352848320805460010190558583526002825284832080546001600160a01b03199081168317909155600490925284832080549092169091559251849392917fddf252ad1be2c89b69c2b068fc378daa952ba7f163c4a11628f55a4df523b3ef91a4505050565b61112e838383610f5c565b6001600160a01b0382163b15806111d75750604051630a85bd0160e11b8082523360048301526001600160a01b03858116602484015260448301849052608060648401526000608484015290919084169063150b7a029060a4016020604051808303816000875af11580156111a7573d6000803e3d6000fd5b505050506040513d601f19601f820116820180604052508101906111cb9190612e0a565b6001600160e01b031916145b6111f35760405162461bcd60e51b8152600401610be690612e27565b505050565b6007546001600160a01b03163314611223576040516338ebc58960e11b815260040160405180910390fd5b600a61122f8282612e9f565b507f23c8c9488efebfd474e85a7956de6f39b17c7ab88502d42a623db2d8e382bbaa600a604051610cc09190612f5f565b6000818152600260205260409020546001600160a01b0316806112b25760405162461bcd60e51b815260206004820152600a6024820152691393d517d3525395115160b21b6044820152606401610be6565b919050565b600a80546108ec90612d48565b60006001600160a01b03821661130b5760405162461bcd60e51b815260206004820152600c60248201526b5a45524f5f4144445245535360a01b6044820152606401610be6565b506001600160a01b031660009081526003602052604090205490565b6007546001600160a01b03163314611352576040516338ebc58960e11b815260040160405180910390fd5b600b8190556040518181527f4f5539c0409dfc4cb06f64cbd31237e1fbfe443f531584bf4dd77ec7fc5ba7b190602001610cc0565b600180546108ec90612d48565b6007546001600160a01b031633146113bf576040516338ebc58960e11b815260040160405180910390fd5b6001600160a01b0381166113e65760405163538ba4f960e01b815260040160405180910390fd5b600880546001600160a01b0319166001600160a01b0383169081179091556040519081527f240d8bf6972a9e438d69cd9b1c79a0414806127b38f7b84dd65168e180ad22bc90602001610cc0565b3360008181526005602090815260408083206001600160a01b03871680855290835292819020805460ff191686151590811790915590519081529192917f17307eab39ab6107e8899845ad3d59bd9653f200f220920489ca2b5937696c31910160405180910390a35050565b600081815260166020908152604080832054808452601583528184208251815460a095810282018601909452608081018481529294869491938492909184919084018282801561151957602002820191906000526020600020905b81546001600160a01b031681526001909101906020018083116114fb575b50505050508152602001600182015481526020016002820154815260200160038201548152505090506000600d54670de0b6b3a7640000836020015161155f9190612fea565b11801591506115745750600019949350505050565b60015b8251518110156115e65761158a86611260565b6001600160a01b0316836000015182815181106115a9576115a9612dc2565b60200260200101516001600160a01b0316036115d4576115ca816001612d98565b9695505050505050565b806115de81612dd8565b915050611577565b50600095945050505050565b6115fd858585610f5c565b6001600160a01b0384163b15806116945750604051630a85bd0160e11b808252906001600160a01b0386169063150b7a02906116459033908a9089908990899060040161300c565b6020604051808303816000875af1158015611664573d6000803e3d6000fd5b505050506040513d601f19601f820116820180604052508101906116889190612e0a565b6001600160e01b031916145b6116b05760405162461bcd60e51b8152600401610be690612e27565b5050505050565b6007546001600160a01b031633146116e2576040516338ebc58960e11b815260040160405180910390fd5b600f8190556040518181527f3e7248ce6e198f34feb7985860c18db7c24b8bfd1694296e521204548b0fbb0c90602001610cc0565b6007546001600160a01b03163314611742576040516338ebc58960e11b815260040160405180910390fd5b80516000036117645760405163a75f8d3560e01b815260040160405180910390fd5b805163ffffffff11611789576040516328592ca560e11b815260040160405180910390fd5b6000805b82518110156117cf578281815181106117a8576117a8612dc2565b6020026020010151826117bb9190612d98565b9150806117c781612dd8565b91505061178d565b50670de0b6b3a7640000601054826117e79190612d98565b111561180657604051631648186960e31b815260040160405180910390fd5b815161181990600e906020850190612826565b507fc1053cca128bc27ed92cf297a3b9d6eaab9a735abd9f97861d4fbde40b985b53600e60405161184a9190613060565b60405180910390a15050565b6060600a61186383612289565b60405160200161187492919061309b565b6040516020818303038152906040529050919050565b600081815260166020908152604080832054808452601583528184208251815460a095810282018601909452608081018481526060969395939491938492849184018282801561190357602002820191906000526020600020905b81546001600160a01b031681526001909101906020018083116118e5575b50505091835250506001820154602082015260028201546040820152600390910154606090910152805151909150600061193c866114a0565b9050600019811461197a5761195084612289565b6040516020016119609190613122565b604051602081830303815290604052945050505050919050565b8060000361199b5761198b84612289565b604051602001611960919061316b565b6119a484612289565b6119ad82612289565b6119b684612289565b604051602001611960939291906131b2565b600654600114611a075760405162461bcd60e51b815260206004820152600a6024820152695245454e5452414e435960b01b6044820152606401610be6565b6002600655600b543414611a2e57604051631da0f5f960e21b815260040160405180910390fd5b601154611a3d57611a3d61231c565b60128054906000611a4d83612dd8565b91905055506000601254601454611a649190612d98565b6013546000828152601660205260409020559050611a82338261237c565b6013546040518281523391907f4458602c75f7945f69e6a982b698a0ba5068f2ae7324e34dac6ef89360380e2b9060200160405180910390a3506001600655565b60606000611ad083611d07565b90508051600003611b37576040805160008082526020820190925290611b2f565b611b1c6040518060800160405280600081526020016000815260200160008152602001600081525090565b815260200190600190039081611af15790505b509392505050565b6000815167ffffffffffffffff811115611b5357611b53612a21565b604051908082528060200260200182016040528015611baf57816020015b611b9c6040518060800160405280600081526020016000815260200160008152602001600081525090565b815260200190600190039081611b715790505b50905060005b8251811015611b2f576000838281518110611bd257611bd2612dc2565b602090810291909101810151600081815260168352604080822054808352601585528183208251815460a097810282018801909452608081018481529597509195939491939092849291849190840182828015611c5857602002820191906000526020600020905b81546001600160a01b03168152600190910190602001808311611c3a575b50505050508152602001600182015481526020016002820154815260200160038201548152505090506000611ca2600b54836000015151670de0b6b3a7640000610ae89190612dab565b90506000611caf856114a0565b9050604051806080016040528086815260200185815260200183815260200182815250878781518110611ce457611ce4612dc2565b602002602001018190525050505050508080611cff90612dd8565b915050611bb5565b60606000611d14836112c4565b905080600003611d34576040805160008082526020820190925290611b2f565b60008167ffffffffffffffff811115611d4f57611d4f612a21565b604051908082528060200260200182016040528015611d78578160200160208202803683370190505b509050600060015b601254601454611d909190612d98565b8111611df557856001600160a01b0316611da982611260565b6001600160a01b031603611de35780838381518110611dca57611dca612dc2565b602090810291909101015281611ddf81612dd8565b9250505b80611ded81612dd8565b915050611d80565b5090949350505050565b600e8181548110611e0f57600080fd5b600091825260209091200154905081565b6007546001600160a01b03163314611e4b576040516338ebc58960e11b815260040160405180910390fd5b6001600160a01b038116611e725760405163538ba4f960e01b815260040160405180910390fd5b600980546001600160a01b0319166001600160a01b0383169081179091556040519081527fcb7ef3e545f5cdb893f5c568ba710fe08f336375a2d9fd66e161033f8fc09ef390602001610cc0565b6007546001600160a01b03163314611eeb576040516338ebc58960e11b815260040160405180910390fd5b600d8190556040518181527f9415f363ad9afde5b77185413860109cbf078b442ace9a0319f1ac90b84df9bd90602001610cc0565b6000611f358383670de0b6b3a764000061244c565b9392505050565b6000611f49601154151590565b8015611f645750600c54601154611f609190612d98565b4210155b905090565b600d54606090611f81670de0b6b3a764000084612fea565b1015611f9b57505060408051600081526020810190915290565b600e54601254600090611fb09085908461246a565b90506000815167ffffffffffffffff811115611fce57611fce612a21565b604051908082528060200260200182016040528015611ff7578160200160208202803683370190505b50905060005b8251811015610b5b5761203060145484838151811061201e5761201e612dc2565b602002602001015161050c9190612d98565b82828151811061204257612042612dc2565b6001600160a01b03909216602092830291909101909101528061206481612dd8565b915050611ffd565b6000612094601054670de0b6b3a76400006120879190613225565b600f54610ae89047613225565b905060006120b8601254670de0b6b3a76400006120b19190612dab565b839061258a565b905060015b60125481116111f35760006120d98260145461050c9190612d98565b90506120e58184612220565b806001600160a01b03166013547fae718d5005a53e2ce03ae49ffa0750b76ada9a2309cf05356a2ec06ba13a92658560405161212391815260200190565b60405180910390a3508061213681612dd8565b9150506120bd565b6000612159601054670de0b6b3a76400006120879190613225565b905060005b82518110156111f357600083828151811061217b5761217b612dc2565b6020026020010151905060006121b7600e848154811061219d5761219d612dc2565b906000526020600020015485611f2090919063ffffffff16565b90506121c38282612220565b60135460408051858152602081018490526001600160a01b03851692917f01901b784b0a5a9753a8551528cb8faec83886f379113da512c80111edbc8860910160405180910390a35050808061221890612dd8565b91505061215e565b600080600080600085875af19050806111f35760405162461bcd60e51b815260206004820152601360248201527211551217d514905394d1915497d19052531151606a1b6044820152606401610be6565b600954612287906001600160a01b031647612220565b565b606060006122968361259f565b600101905060008167ffffffffffffffff8111156122b6576122b6612a21565b6040519080825280601f01601f1916602001820160405280156122e0576020820181803683370190505b5090508181016020015b600019016f181899199a1a9b1b9c1cb0b131b232b360811b600a86061a8153600a85049450846122ea57509392505050565b6013805490600061232c83612dd8565b91905055506012546014546123419190612d98565b601455426011556000601281905560135460405190917f33a701182892fd888ed152ca2ac23771a32e814469b7cd255965471e1af3a65991a2565b6123868282612677565b6001600160a01b0382163b158061242c5750604051630a85bd0160e11b80825233600483015260006024830181905260448301849052608060648401526084830152906001600160a01b0384169063150b7a029060a4016020604051808303816000875af11580156123fc573d6000803e3d6000fd5b505050506040513d601f19601f820116820180604052508101906124209190612e0a565b6001600160e01b031916145b6124485760405162461bcd60e51b8152600401610be690612e27565b5050565b600082600019048411830215820261246357600080fd5b5091020490565b606060008263ffffffff1667ffffffffffffffff81111561248d5761248d612a21565b6040519080825280602002602001820160405280156124b6578160200160208202803683370190505b5090508460005b8463ffffffff1681101561257f576124d482612782565b63ffffffff16915060008663ffffffff16836124f09190612fea565b6124fb906001612d98565b9050600160005b83811015612545578286828151811061251d5761251d612dc2565b6020026020010151036125335760009150612545565b8061253d81612dd8565b915050612502565b508015612578578185848151811061255f5761255f612dc2565b60209081029190910101528261257481612dd8565b9350505b50506124bd565b509095945050505050565b6000611f3583670de0b6b3a76400008461244c565b60008072184f03e93ff9f4daa797ed6e38ed64bf6a1f0160401b83106125de5772184f03e93ff9f4daa797ed6e38ed64bf6a1f0160401b830492506040015b6d04ee2d6d415b85acef8100000000831061260a576d04ee2d6d415b85acef8100000000830492506020015b662386f26fc10000831061262857662386f26fc10000830492506010015b6305f5e1008310612640576305f5e100830492506008015b612710831061265457612710830492506004015b60648310612666576064830492506002015b600a83106108d95760010192915050565b6001600160a01b0382166126c15760405162461bcd60e51b81526020600482015260116024820152701253959053125117d49150d25412515395607a1b6044820152606401610be6565b6000818152600260205260409020546001600160a01b0316156127175760405162461bcd60e51b815260206004820152600e60248201526d1053149150511657d3525395115160921b6044820152606401610be6565b6001600160a01b038216600081815260036020908152604080832080546001019055848352600290915280822080546001600160a01b0319168417905551839291907fddf252ad1be2c89b69c2b068fc378daa952ba7f163c4a11628f55a4df523b3ef908290a45050565b60006405deece66d600b6601000000000000601081836127a28887612dab565b6127ac9190612d98565b6127b69190612fea565b901c95945050505050565b828054828255906000526020600020908101928215612816579160200282015b8281111561281657825182546001600160a01b0319166001600160a01b039091161782556020909201916001909101906127e1565b50612822929150612861565b5090565b828054828255906000526020600020908101928215612816579160200282015b82811115612816578251825591602001919060010190612846565b5b808211156128225760008155600101612862565b6001600160e01b03198116811461288c57600080fd5b50565b6000602082840312156128a157600080fd5b8135611f3581612876565b60005b838110156128c75781810151838201526020016128af565b50506000910152565b60208152600082518060208401526128ef8160408501602087016128ac565b601f01601f19169190910160400192915050565b60006020828403121561291557600080fd5b5035919050565b602080825282518282018190526000919060409081850190868401855b8281101561297c57815180518552868101516001600160a01b03168786015285810151868601526060908101519085015260809093019290850190600101612939565b5091979650505050505050565b80356001600160a01b03811681146112b257600080fd5b600080604083850312156129b357600080fd5b6129bc83612989565b946020939093013593505050565b6000602082840312156129dc57600080fd5b611f3582612989565b6000806000606084860312156129fa57600080fd5b612a0384612989565b9250612a1160208501612989565b9150604084013590509250925092565b634e487b7160e01b600052604160045260246000fd5b604051601f8201601f1916810167ffffffffffffffff81118282101715612a6057612a60612a21565b604052919050565b60006020808385031215612a7b57600080fd5b823567ffffffffffffffff80821115612a9357600080fd5b818501915085601f830112612aa757600080fd5b813581811115612ab957612ab9612a21565b612acb601f8201601f19168501612a37565b91508082528684828501011115612ae157600080fd5b8084840185840137600090820190930192909252509392505050565b60008060408385031215612b1057600080fd5b612b1983612989565b915060208301358015158114612b2e57600080fd5b809150509250929050565b600080600080600060808688031215612b5157600080fd5b612b5a86612989565b9450612b6860208701612989565b935060408601359250606086013567ffffffffffffffff80821115612b8c57600080fd5b818801915088601f830112612ba057600080fd5b813581811115612baf57600080fd5b896020828501011115612bc157600080fd5b9699959850939650602001949392505050565b60006020808385031215612be757600080fd5b823567ffffffffffffffff80821115612bff57600080fd5b818501915085601f830112612c1357600080fd5b813581811115612c2557612c25612a21565b8060051b9150612c36848301612a37565b8181529183018401918481019088841115612c5057600080fd5b938501935b83851015612c6e57843582529385019390850190612c55565b98975050505050505050565b602080825282518282018190526000919060409081850190868401855b8281101561297c57815180518552868101518786015285810151868601526060908101519085015260809093019290850190600101612c97565b6020808252825182820181905260009190848201906040850190845b81811015612d0957835183529284019291840191600101612ced565b50909695505050505050565b60008060408385031215612d2857600080fd5b612d3183612989565b9150612d3f60208401612989565b90509250929050565b600181811c90821680612d5c57607f821691505b602082108103612d7c57634e487b7160e01b600052602260045260246000fd5b50919050565b634e487b7160e01b600052601160045260246000fd5b808201808211156108d9576108d9612d82565b80820281158282048414176108d9576108d9612d82565b634e487b7160e01b600052603260045260246000fd5b600060018201612dea57612dea612d82565b5060010190565b600060208284031215612e0357600080fd5b5051919050565b600060208284031215612e1c57600080fd5b8151611f3581612876565b60208082526010908201526f155394d0519157d49150d2541251539560821b604082015260600190565b601f8211156111f357600081815260208120601f850160051c81016020861015612e785750805b601f850160051c820191505b81811015612e9757828155600101612e84565b505050505050565b815167ffffffffffffffff811115612eb957612eb9612a21565b612ecd81612ec78454612d48565b84612e51565b602080601f831160018114612f025760008415612eea5750858301515b600019600386901b1c1916600185901b178555612e97565b600085815260208120601f198616915b82811015612f3157888601518255948401946001909101908401612f12565b5085821015612f4f5787850151600019600388901b60f8161c191681555b5050505050600190811b01905550565b6000602080835260008454612f7381612d48565b80848701526040600180841660008114612f945760018114612fae57612fdc565b60ff1985168984015283151560051b890183019550612fdc565b896000528660002060005b85811015612fd45781548b8201860152908301908801612fb9565b8a0184019650505b509398975050505050505050565b60008261300757634e487b7160e01b600052601260045260246000fd5b500690565b6001600160a01b038681168252851660208201526040810184905260806060820181905281018290526000828460a0840137600060a0848401015260a0601f19601f85011683010190509695505050505050565b6020808252825482820181905260008481528281209092916040850190845b81811015612d095783548352600193840193928501920161307f565b60008084546130a981612d48565b600182811680156130c157600181146130d657613105565b60ff1984168752821515830287019450613105565b8860005260208060002060005b858110156130fc5781548a8201529084019082016130e3565b50505082870194505b5050505083516131198183602088016128ac565b01949350505050565b6502937bab732160d51b8152600082516131438160068501602087016128ac565b70202d2045766572796f6e652077696e732160781b6006939091019283015250601701919050565b6502937bab732160d51b81526000825161318c8160068501602087016128ac565b6e1016902234b2103737ba103bb4b71760891b6006939091019283015250601501919050565b6502937bab732160d51b8152600084516131d38160068501602089016128ac565b6201016960ed1b60069184019182015284516131f68160098401602089016128ac565b602f60f81b60099290910191820152835161321881600a8401602088016128ac565b01600a0195945050505050565b818103818111156108d9576108d9612d8256fea2646970667358221220a1ba55d3c4abac40fb6db725fce1e70c2ab637eb7d99f0d41ae1b3f888f0bcee64736f6c63430008120033",
    "linkReferences": {}
  },
  "methodIdentifiers": {
    "approve(address,uint256)": "095ea7b3",
    "balanceOf(address)": "70a08231",
    "baseURI()": "6c0360eb",
    "everyoneWinsProbability()": "be03d23d",
    "finalizeRound()": "1e820325",
    "finalizerReward()": "296af167",
    "getApproved(uint256)": "081812fc",
    "getOwnerTokenIds(address)": "e66b6000",
    "getOwnerTokens(address)": "d63d4af0",
    "getRoundTokens(uint256)": "08218087",
    "isApprovedForAll(address,address)": "e985e9c5",
    "lastRoundLastTokenId()": "4f183cc5",
    "minDuration()": "56715761",
    "name()": "06fdde03",
    "owner()": "8da5cb5b",
    "ownerOf(uint256)": "6352211e",
    "participate()": "d11711a2",
    "price()": "a035b1fe",
    "prizeRank(uint256)": "a6bd686b",
    "prizes(uint256)": "eccb3a4f",
    "rc()": "12f77332",
    "roundId()": "8cd221c9",
    "roundParticipants()": "d40dc869",
    "roundStartedAt()": "a16e56fc",
    "rounds(uint256)": "8c65c81f",
    "safeTransferFrom(address,address,uint256)": "42842e0e",
    "safeTransferFrom(address,address,uint256,bytes)": "b88d4fde",
    "setApprovalForAll(address,bool)": "a22cb465",
    "setBaseURI(string)": "55f804b3",
    "setEveryoneWinsProbability(uint256)": "f1816b1e",
    "setFinalizerReward(uint256)": "bba33931",
    "setMinDuration(uint256)": "1674bade",
    "setOwner(address)": "13af4035",
    "setPrice(uint256)": "91b7f5ed",
    "setPrizes(uint256[])": "c0f2165e",
    "setRandomnessClient(address)": "97811c4c",
    "setTreasury(address)": "f0f44260",
    "setTreasuryReserve(uint256)": "1ecd794f",
    "supportsInterface(bytes4)": "01ffc9a7",
    "symbol()": "95d89b41",
    "tokenIdRound(uint256)": "7b808ecc",
    "tokenInfo(uint256)": "cc33c875",
    "tokenURI(uint256)": "c87b56dd",
    "transferFrom(address,address,uint256)": "23b872dd",
    "treasury()": "61d027b3",
    "treasuryReserve()": "59297dbf"
  },
  "id": 25
}