{
  "abi": [
    {
      "inputs": [
        {
          "internalType": "address",
          "name": "_rc",
          "type": "address"
        },
        {
          "internalType": "address",
          "name": "_treasury",
          "type": "address"
        }
      ],
      "stateMutability": "nonpayable",
      "type": "constructor"
    },
    {
      "inputs": [],
      "name": "CANT_FINALIZE_YET",
      "type": "error"
    },
    {
      "inputs": [],
      "name": "NOT_OWNER",
      "type": "error"
    },
    {
      "inputs": [],
      "name": "TOO_MANY",
      "type": "error"
    },
    {
      "inputs": [],
      "name": "TOO_MANY_PRIZES",
      "type": "error"
    },
    {
      "inputs": [],
      "name": "WRONG_PRICE",
      "type": "error"
    },
    {
      "inputs": [],
      "name": "ZERO_ADDRESS",
      "type": "error"
    },
    {
      "inputs": [],
      "name": "ZERO_WINNERS",
      "type": "error"
    },
    {
      "anonymous": false,
      "inputs": [
        {
          "indexed": true,
          "internalType": "address",
          "name": "owner",
          "type": "address"
        },
        {
          "indexed": true,
          "internalType": "address",
          "name": "spender",
          "type": "address"
        },
        {
          "indexed": true,
          "internalType": "uint256",
          "name": "id",
          "type": "uint256"
        }
      ],
      "name": "Approval",
      "type": "event"
    },
    {
      "anonymous": false,
      "inputs": [
        {
          "indexed": true,
          "internalType": "address",
          "name": "owner",
          "type": "address"
        },
        {
          "indexed": true,
          "internalType": "address",
          "name": "operator",
          "type": "address"
        },
        {
          "indexed": false,
          "internalType": "bool",
          "name": "approved",
          "type": "bool"
        }
      ],
      "name": "ApprovalForAll",
      "type": "event"
    },
    {
      "anonymous": false,
      "inputs": [
        {
          "indexed": true,
          "internalType": "uint256",
          "name": "roundId",
          "type": "uint256"
        },
        {
          "indexed": true,
          "internalType": "address",
          "name": "participant",
          "type": "address"
        },
        {
          "indexed": false,
          "internalType": "uint256",
          "name": "participantId",
          "type": "uint256"
        }
      ],
      "name": "ParticipantAdded",
      "type": "event"
    },
    {
      "anonymous": false,
      "inputs": [
        {
          "indexed": true,
          "internalType": "uint256",
          "name": "roundId",
          "type": "uint256"
        },
        {
          "indexed": true,
          "internalType": "address",
          "name": "participant",
          "type": "address"
        },
        {
          "indexed": false,
          "internalType": "uint256",
          "name": "amount",
          "type": "uint256"
        }
      ],
      "name": "Redistribution",
      "type": "event"
    },
    {
      "anonymous": false,
      "inputs": [
        {
          "indexed": true,
          "internalType": "uint256",
          "name": "roundId",
          "type": "uint256"
        },
        {
          "indexed": false,
          "internalType": "uint256",
          "name": "randomness",
          "type": "uint256"
        }
      ],
      "name": "RoundFinalized",
      "type": "event"
    },
    {
      "anonymous": false,
      "inputs": [
        {
          "indexed": true,
          "internalType": "uint256",
          "name": "roundId",
          "type": "uint256"
        }
      ],
      "name": "RoundStarted",
      "type": "event"
    },
    {
      "anonymous": false,
      "inputs": [
        {
          "indexed": false,
          "internalType": "string",
          "name": "baseURI",
          "type": "string"
        }
      ],
      "name": "SetBaseURI",
      "type": "event"
    },
    {
      "anonymous": false,
      "inputs": [
        {
          "indexed": false,
          "internalType": "uint256",
          "name": "everyoneWinsProbability",
          "type": "uint256"
        }
      ],
      "name": "SetEveryoneWinsProbability",
      "type": "event"
    },
    {
      "anonymous": false,
      "inputs": [
        {
          "indexed": false,
          "internalType": "uint256",
          "name": "finalizerReward",
          "type": "uint256"
        }
      ],
      "name": "SetFinalizerReward",
      "type": "event"
    },
    {
      "anonymous": false,
      "inputs": [
        {
          "indexed": false,
          "internalType": "uint256",
          "name": "minDuration",
          "type": "uint256"
        }
      ],
      "name": "SetMinDuration",
      "type": "event"
    },
    {
      "anonymous": false,
      "inputs": [
        {
          "indexed": false,
          "internalType": "address",
          "name": "owner",
          "type": "address"
        }
      ],
      "name": "SetOwner",
      "type": "event"
    },
    {
      "anonymous": false,
      "inputs": [
        {
          "indexed": false,
          "internalType": "uint256",
          "name": "price",
          "type": "uint256"
        }
      ],
      "name": "SetPrice",
      "type": "event"
    },
    {
      "anonymous": false,
      "inputs": [
        {
          "indexed": false,
          "internalType": "uint256[]",
          "name": "prizes",
          "type": "uint256[]"
        }
      ],
      "name": "SetPrizes",
      "type": "event"
    },
    {
      "anonymous": false,
      "inputs": [
        {
          "indexed": false,
          "internalType": "address",
          "name": "rc",
          "type": "address"
        }
      ],
      "name": "SetRandomnessClient",
      "type": "event"
    },
    {
      "anonymous": false,
      "inputs": [
        {
          "indexed": false,
          "internalType": "address",
          "name": "treasury",
          "type": "address"
        }
      ],
      "name": "SetTreasury",
      "type": "event"
    },
    {
      "anonymous": false,
      "inputs": [
        {
          "indexed": false,
          "internalType": "uint256",
          "name": "treasuryReserve",
          "type": "uint256"
        }
      ],
      "name": "SetTreasuryReserve",
      "type": "event"
    },
    {
      "anonymous": false,
      "inputs": [
        {
          "indexed": true,
          "internalType": "address",
          "name": "from",
          "type": "address"
        },
        {
          "indexed": true,
          "internalType": "address",
          "name": "to",
          "type": "address"
        },
        {
          "indexed": true,
          "internalType": "uint256",
          "name": "id",
          "type": "uint256"
        }
      ],
      "name": "Transfer",
      "type": "event"
    },
    {
      "anonymous": false,
      "inputs": [
        {
          "indexed": true,
          "internalType": "uint256",
          "name": "roundId",
          "type": "uint256"
        },
        {
          "indexed": true,
          "internalType": "address",
          "name": "participant",
          "type": "address"
        },
        {
          "indexed": false,
          "internalType": "uint256",
          "name": "prizeId",
          "type": "uint256"
        },
        {
          "indexed": false,
          "internalType": "uint256",
          "name": "prizeAmount",
          "type": "uint256"
        }
      ],
      "name": "WonPrize",
      "type": "event"
    },
    {
      "inputs": [
        {
          "internalType": "address",
          "name": "spender",
          "type": "address"
        },
        {
          "internalType": "uint256",
          "name": "id",
          "type": "uint256"
        }
      ],
      "name": "approve",
      "outputs": [],
      "stateMutability": "nonpayable",
      "type": "function"
    },
    {
      "inputs": [
        {
          "internalType": "address",
          "name": "owner",
          "type": "address"
        }
      ],
      "name": "balanceOf",
      "outputs": [
        {
          "internalType": "uint256",
          "name": "",
          "type": "uint256"
        }
      ],
      "stateMutability": "view",
      "type": "function"
    },
    {
      "inputs": [],
      "name": "baseURI",
      "outputs": [
        {
          "internalType": "string",
          "name": "",
          "type": "string"
        }
      ],
      "stateMutability": "view",
      "type": "function"
    },
    {
      "inputs": [],
      "name": "everyoneWinsProbability",
      "outputs": [
        {
          "internalType": "uint256",
          "name": "",
          "type": "uint256"
        }
      ],
      "stateMutability": "view",
      "type": "function"
    },
    {
      "inputs": [],
      "name": "finalizeRound",
      "outputs": [],
      "stateMutability": "nonpayable",
      "type": "function"
    },
    {
      "inputs": [],
      "name": "finalizerReward",
      "outputs": [
        {
          "internalType": "uint256",
          "name": "",
          "type": "uint256"
        }
      ],
      "stateMutability": "view",
      "type": "function"
    },
    {
      "inputs": [
        {
          "internalType": "uint256",
          "name": "",
          "type": "uint256"
        }
      ],
      "name": "getApproved",
      "outputs": [
        {
          "internalType": "address",
          "name": "",
          "type": "address"
        }
      ],
      "stateMutability": "view",
      "type": "function"
    },
    {
      "inputs": [
        {
          "internalType": "address",
          "name": "_owner",
          "type": "address"
        }
      ],
      "name": "getOwnerTokenIds",
      "outputs": [
        {
          "internalType": "uint256[]",
          "name": "",
          "type": "uint256[]"
        }
      ],
      "stateMutability": "view",
      "type": "function"
    },
    {
      "inputs": [
        {
          "internalType": "address",
          "name": "",
          "type": "address"
        },
        {
          "internalType": "address",
          "name": "",
          "type": "address"
        }
      ],
      "name": "isApprovedForAll",
      "outputs": [
        {
          "internalType": "bool",
          "name": "",
          "type": "bool"
        }
      ],
      "stateMutability": "view",
      "type": "function"
    },
    {
      "inputs": [],
      "name": "lastRoundLastTokenId",
      "outputs": [
        {
          "internalType": "uint256",
          "name": "",
          "type": "uint256"
        }
      ],
      "stateMutability": "view",
      "type": "function"
    },
    {
      "inputs": [],
      "name": "minDuration",
      "outputs": [
        {
          "internalType": "uint256",
          "name": "",
          "type": "uint256"
        }
      ],
      "stateMutability": "view",
      "type": "function"
    },
    {
      "inputs": [],
      "name": "name",
      "outputs": [
        {
          "internalType": "string",
          "name": "",
          "type": "string"
        }
      ],
      "stateMutability": "view",
      "type": "function"
    },
    {
      "inputs": [],
      "name": "owner",
      "outputs": [
        {
          "internalType": "address",
          "name": "",
          "type": "address"
        }
      ],
      "stateMutability": "view",
      "type": "function"
    },
    {
      "inputs": [
        {
          "internalType": "uint256",
          "name": "id",
          "type": "uint256"
        }
      ],
      "name": "ownerOf",
      "outputs": [
        {
          "internalType": "address",
          "name": "owner",
          "type": "address"
        }
      ],
      "stateMutability": "view",
      "type": "function"
    },
    {
      "inputs": [],
      "name": "participate",
      "outputs": [],
      "stateMutability": "payable",
      "type": "function"
    },
    {
      "inputs": [],
      "name": "price",
      "outputs": [
        {
          "internalType": "uint256",
          "name": "",
          "type": "uint256"
        }
      ],
      "stateMutability": "view",
      "type": "function"
    },
    {
      "inputs": [
        {
          "internalType": "uint256",
          "name": "_tokenId",
          "type": "uint256"
        }
      ],
      "name": "prizeRank",
      "outputs": [
        {
          "internalType": "uint256",
          "name": "",
          "type": "uint256"
        }
      ],
      "stateMutability": "view",
      "type": "function"
    },
    {
      "inputs": [
        {
          "internalType": "uint256",
          "name": "",
          "type": "uint256"
        }
      ],
      "name": "prizes",
      "outputs": [
        {
          "internalType": "uint256",
          "name": "",
          "type": "uint256"
        }
      ],
      "stateMutability": "view",
      "type": "function"
    },
    {
      "inputs": [],
      "name": "rc",
      "outputs": [
        {
          "internalType": "contract IRandomnessClient",
          "name": "",
          "type": "address"
        }
      ],
      "stateMutability": "view",
      "type": "function"
    },
    {
      "inputs": [],
      "name": "roundId",
      "outputs": [
        {
          "internalType": "uint256",
          "name": "",
          "type": "uint256"
        }
      ],
      "stateMutability": "view",
      "type": "function"
    },
    {
      "inputs": [],
      "name": "roundParticipants",
      "outputs": [
        {
          "internalType": "uint256",
          "name": "",
          "type": "uint256"
        }
      ],
      "stateMutability": "view",
      "type": "function"
    },
    {
      "inputs": [],
      "name": "roundStartedAt",
      "outputs": [
        {
          "internalType": "uint256",
          "name": "",
          "type": "uint256"
        }
      ],
      "stateMutability": "view",
      "type": "function"
    },
    {
      "inputs": [
        {
          "internalType": "uint256",
          "name": "",
          "type": "uint256"
        }
      ],
      "name": "rounds",
      "outputs": [
        {
          "internalType": "uint256",
          "name": "randomness",
          "type": "uint256"
        },
        {
          "internalType": "uint256",
          "name": "participants",
          "type": "uint256"
        }
      ],
      "stateMutability": "view",
      "type": "function"
    },
    {
      "inputs": [
        {
          "internalType": "address",
          "name": "from",
          "type": "address"
        },
        {
          "internalType": "address",
          "name": "to",
          "type": "address"
        },
        {
          "internalType": "uint256",
          "name": "id",
          "type": "uint256"
        }
      ],
      "name": "safeTransferFrom",
      "outputs": [],
      "stateMutability": "nonpayable",
      "type": "function"
    },
    {
      "inputs": [
        {
          "internalType": "address",
          "name": "from",
          "type": "address"
        },
        {
          "internalType": "address",
          "name": "to",
          "type": "address"
        },
        {
          "internalType": "uint256",
          "name": "id",
          "type": "uint256"
        },
        {
          "internalType": "bytes",
          "name": "data",
          "type": "bytes"
        }
      ],
      "name": "safeTransferFrom",
      "outputs": [],
      "stateMutability": "nonpayable",
      "type": "function"
    },
    {
      "inputs": [
        {
          "internalType": "address",
          "name": "operator",
          "type": "address"
        },
        {
          "internalType": "bool",
          "name": "approved",
          "type": "bool"
        }
      ],
      "name": "setApprovalForAll",
      "outputs": [],
      "stateMutability": "nonpayable",
      "type": "function"
    },
    {
      "inputs": [
        {
          "internalType": "string",
          "name": "_baseURI",
          "type": "string"
        }
      ],
      "name": "setBaseURI",
      "outputs": [],
      "stateMutability": "nonpayable",
      "type": "function"
    },
    {
      "inputs": [
        {
          "internalType": "uint256",
          "name": "_everyoneWinsProbability",
          "type": "uint256"
        }
      ],
      "name": "setEveryoneWinsProbability",
      "outputs": [],
      "stateMutability": "nonpayable",
      "type": "function"
    },
    {
      "inputs": [
        {
          "internalType": "uint256",
          "name": "_finalizerReward",
          "type": "uint256"
        }
      ],
      "name": "setFinalizerReward",
      "outputs": [],
      "stateMutability": "nonpayable",
      "type": "function"
    },
    {
      "inputs": [
        {
          "internalType": "uint256",
          "name": "_minDuration",
          "type": "uint256"
        }
      ],
      "name": "setMinDuration",
      "outputs": [],
      "stateMutability": "nonpayable",
      "type": "function"
    },
    {
      "inputs": [
        {
          "internalType": "address",
          "name": "_owner",
          "type": "address"
        }
      ],
      "name": "setOwner",
      "outputs": [],
      "stateMutability": "nonpayable",
      "type": "function"
    },
    {
      "inputs": [
        {
          "internalType": "uint256",
          "name": "_price",
          "type": "uint256"
        }
      ],
      "name": "setPrice",
      "outputs": [],
      "stateMutability": "nonpayable",
      "type": "function"
    },
    {
      "inputs": [
        {
          "internalType": "uint256[]",
          "name": "_prizes",
          "type": "uint256[]"
        }
      ],
      "name": "setPrizes",
      "outputs": [],
      "stateMutability": "nonpayable",
      "type": "function"
    },
    {
      "inputs": [
        {
          "internalType": "address",
          "name": "_rc",
          "type": "address"
        }
      ],
      "name": "setRandomnessClient",
      "outputs": [],
      "stateMutability": "nonpayable",
      "type": "function"
    },
    {
      "inputs": [
        {
          "internalType": "address",
          "name": "_treasury",
          "type": "address"
        }
      ],
      "name": "setTreasury",
      "outputs": [],
      "stateMutability": "nonpayable",
      "type": "function"
    },
    {
      "inputs": [
        {
          "internalType": "uint256",
          "name": "_treasuryReserve",
          "type": "uint256"
        }
      ],
      "name": "setTreasuryReserve",
      "outputs": [],
      "stateMutability": "nonpayable",
      "type": "function"
    },
    {
      "inputs": [
        {
          "internalType": "bytes4",
          "name": "interfaceId",
          "type": "bytes4"
        }
      ],
      "name": "supportsInterface",
      "outputs": [
        {
          "internalType": "bool",
          "name": "",
          "type": "bool"
        }
      ],
      "stateMutability": "view",
      "type": "function"
    },
    {
      "inputs": [],
      "name": "symbol",
      "outputs": [
        {
          "internalType": "string",
          "name": "",
          "type": "string"
        }
      ],
      "stateMutability": "view",
      "type": "function"
    },
    {
      "inputs": [
        {
          "internalType": "uint256",
          "name": "",
          "type": "uint256"
        }
      ],
      "name": "tokenIdRound",
      "outputs": [
        {
          "internalType": "uint256",
          "name": "",
          "type": "uint256"
        }
      ],
      "stateMutability": "view",
      "type": "function"
    },
    {
      "inputs": [
        {
          "internalType": "uint256",
          "name": "_tokenId",
          "type": "uint256"
        }
      ],
      "name": "tokenInfo",
      "outputs": [
        {
          "internalType": "string",
          "name": "",
          "type": "string"
        }
      ],
      "stateMutability": "view",
      "type": "function"
    },
    {
      "inputs": [
        {
          "internalType": "uint256",
          "name": "_tokenId",
          "type": "uint256"
        }
      ],
      "name": "tokenURI",
      "outputs": [
        {
          "internalType": "string",
          "name": "",
          "type": "string"
        }
      ],
      "stateMutability": "view",
      "type": "function"
    },
    {
      "inputs": [
        {
          "internalType": "address",
          "name": "from",
          "type": "address"
        },
        {
          "internalType": "address",
          "name": "to",
          "type": "address"
        },
        {
          "internalType": "uint256",
          "name": "id",
          "type": "uint256"
        }
      ],
      "name": "transferFrom",
      "outputs": [],
      "stateMutability": "nonpayable",
      "type": "function"
    },
    {
      "inputs": [],
      "name": "treasury",
      "outputs": [
        {
          "internalType": "contract IBanditTreasury",
          "name": "",
          "type": "address"
        }
      ],
      "stateMutability": "view",
      "type": "function"
    },
    {
      "inputs": [],
      "name": "treasuryReserve",
      "outputs": [
        {
          "internalType": "uint256",
          "name": "",
          "type": "uint256"
        }
      ],
      "stateMutability": "view",
      "type": "function"
    }
  ],
  "bytecode": {
    "object": "0x600160065560c0604052601b60809081527f68747470733a2f2f64756d70696e6762616e646974732f6e66742f000000000060a052600a90620000439082620003af565b50678ac7230489e80000600b55610384600c5564e8d4a51000600d556040805160608101825267058d15e17628000081526703782dace9d900006020820152670214e8348c4f000091810191909152620000a290600e90600362000298565b50674563918244f40000600f556702c68af0bb1400006010556000601155600060125560006013556000601455348015620000dc57600080fd5b50604051620030c3380380620030c3833981016040819052620000ff9162000498565b6040518060400160405280600f81526020016e44756d70696e672042616e6469747360881b8152506040518060400160405280600681526020016510905391125560d21b8152508160009081620001579190620003af565b506001620001668282620003af565b5050506001600160a01b03821615806200018757506001600160a01b038116155b15620001a65760405163538ba4f960e01b815260040160405180910390fd5b600780546001600160a01b031916339081179091556040519081527f167d3e9c1016ab80e58802ca9da10ce5c6a0f4debc46a2e7a2cd9e56899a4fb59060200160405180910390a1600880546001600160a01b0319166001600160a01b0384169081179091556040519081527f240d8bf6972a9e438d69cd9b1c79a0414806127b38f7b84dd65168e180ad22bc9060200160405180910390a1600980546001600160a01b0319166001600160a01b0383169081179091556040519081527fcb7ef3e545f5cdb893f5c568ba710fe08f336375a2d9fd66e161033f8fc09ef39060200160405180910390a15050620004d0565b828054828255906000526020600020908101928215620002e1579160200282015b82811115620002e157825182906001600160401b0316905591602001919060010190620002b9565b50620002ef929150620002f3565b5090565b5b80821115620002ef5760008155600101620002f4565b634e487b7160e01b600052604160045260246000fd5b600181811c908216806200033557607f821691505b6020821081036200035657634e487b7160e01b600052602260045260246000fd5b50919050565b601f821115620003aa57600081815260208120601f850160051c81016020861015620003855750805b601f850160051c820191505b81811015620003a65782815560010162000391565b5050505b505050565b81516001600160401b03811115620003cb57620003cb6200030a565b620003e381620003dc845462000320565b846200035c565b602080601f8311600181146200041b5760008415620004025750858301515b600019600386901b1c1916600185901b178555620003a6565b600085815260208120601f198616915b828110156200044c578886015182559484019460019091019084016200042b565b50858210156200046b5787850151600019600388901b60f8161c191681555b5050505050600190811b01905550565b80516001600160a01b03811681146200049357600080fd5b919050565b60008060408385031215620004ac57600080fd5b620004b7836200047b565b9150620004c7602084016200047b565b90509250929050565b612be380620004e06000396000f3fe6080604052600436106102675760003560e01c80638cd221c911610144578063be03d23d116100b6578063d40dc8691161007a578063d40dc86914610731578063e66b600014610747578063e985e9c514610774578063eccb3a4f146107af578063f0f44260146107cf578063f1816b1e146107ef57600080fd5b8063be03d23d146106b3578063c0f2165e146106c9578063c87b56dd146106e9578063cc33c87514610709578063d11711a21461072957600080fd5b8063a035b1fe11610108578063a035b1fe14610607578063a16e56fc1461061d578063a22cb46514610633578063a6bd686b14610653578063b88d4fde14610673578063bba339311461069357600080fd5b80638cd221c91461057c5780638da5cb5b1461059257806391b7f5ed146105b257806395d89b41146105d257806397811c4c146105e757600080fd5b806342842e0e116101dd57806361d027b3116101a157806361d027b31461048e5780636352211e146104ae5780636c0360eb146104ce57806370a08231146104e35780637b808ecc146105035780638c65c81f1461053057600080fd5b806342842e0e1461040c5780634f183cc51461042c57806355f804b314610442578063567157611461046257806359297dbf1461047857600080fd5b806313af40351161022f57806313af4035146103535780631674bade146103735780631e820325146103935780631ecd794f146103a857806323b872dd146103c8578063296af167146103e857600080fd5b806301ffc9a71461026c57806306fdde03146102a1578063081812fc146102c3578063095ea7b31461031157806312f7733214610333575b600080fd5b34801561027857600080fd5b5061028c6102873660046122c8565b61080f565b60405190151581526020015b60405180910390f35b3480156102ad57600080fd5b506102b6610861565b6040516102989190612309565b3480156102cf57600080fd5b506102f96102de36600461233c565b6004602052600090815260409020546001600160a01b031681565b6040516001600160a01b039091168152602001610298565b34801561031d57600080fd5b5061033161032c36600461236c565b6108ef565b005b34801561033f57600080fd5b506008546102f9906001600160a01b031681565b34801561035f57600080fd5b5061033161036e366004612396565b6109d6565b34801561037f57600080fd5b5061033161038e36600461233c565b610a56565b34801561039f57600080fd5b50610331610ab6565b3480156103b457600080fd5b506103316103c336600461233c565b610c75565b3480156103d457600080fd5b506103316103e33660046123b1565b610cd5565b3480156103f457600080fd5b506103fe600f5481565b604051908152602001610298565b34801561041857600080fd5b506103316104273660046123b1565b610e9c565b34801561043857600080fd5b506103fe60145481565b34801561044e57600080fd5b5061033161045d366004612434565b610f71565b34801561046e57600080fd5b506103fe600c5481565b34801561048457600080fd5b506103fe60105481565b34801561049a57600080fd5b506009546102f9906001600160a01b031681565b3480156104ba57600080fd5b506102f96104c936600461233c565b610fd9565b3480156104da57600080fd5b506102b6611030565b3480156104ef57600080fd5b506103fe6104fe366004612396565b61103d565b34801561050f57600080fd5b506103fe61051e36600461233c565b60166020526000908152604090205481565b34801561053c57600080fd5b5061056761054b36600461233c565b6015602052600090815260409020600181015460029091015482565b60408051928352602083019190915201610298565b34801561058857600080fd5b506103fe60135481565b34801561059e57600080fd5b506007546102f9906001600160a01b031681565b3480156105be57600080fd5b506103316105cd36600461233c565b6110a0565b3480156105de57600080fd5b506102b6611100565b3480156105f357600080fd5b50610331610602366004612396565b61110d565b34801561061357600080fd5b506103fe600b5481565b34801561062957600080fd5b506103fe60115481565b34801561063f57600080fd5b5061033161064e3660046124c9565b6111ad565b34801561065f57600080fd5b506103fe61066e36600461233c565b611219565b34801561067f57600080fd5b5061033161068e366004612505565b6112e8565b34801561069f57600080fd5b506103316106ae36600461233c565b6113ad565b3480156106bf57600080fd5b506103fe600d5481565b3480156106d557600080fd5b506103316106e43660046125a0565b61140d565b3480156106f557600080fd5b506102b661070436600461233c565b61154c565b34801561071557600080fd5b506102b661072436600461233c565b611580565b610331611636565b34801561073d57600080fd5b506103fe60125481565b34801561075357600080fd5b50610767610762366004612396565b611731565b6040516102989190612646565b34801561078057600080fd5b5061028c61078f36600461268a565b600560209081526000928352604080842090915290825290205460ff1681565b3480156107bb57600080fd5b506103fe6107ca36600461233c565b611829565b3480156107db57600080fd5b506103316107ea366004612396565b61184a565b3480156107fb57600080fd5b5061033161080a36600461233c565b6118ea565b60006301ffc9a760e01b6001600160e01b03198316148061084057506380ac58cd60e01b6001600160e01b03198316145b8061085b5750635b5e139f60e01b6001600160e01b03198316145b92915050565b6000805461086e906126bd565b80601f016020809104026020016040519081016040528092919081815260200182805461089a906126bd565b80156108e75780601f106108bc576101008083540402835291602001916108e7565b820191906000526020600020905b8154815290600101906020018083116108ca57829003601f168201915b505050505081565b6000818152600260205260409020546001600160a01b03163381148061093857506001600160a01b038116600090815260056020908152604080832033845290915290205460ff165b61097a5760405162461bcd60e51b815260206004820152600e60248201526d1393d517d055551213d49256915160921b60448201526064015b60405180910390fd5b60008281526004602052604080822080546001600160a01b0319166001600160a01b0387811691821790925591518593918516917f8c5be1e5ebec7d5bd14f71427d1e84f3dd0314c0f7b2291e5b200ac8c7c3b92591a4505050565b6007546001600160a01b03163314610a01576040516338ebc58960e11b815260040160405180910390fd5b600780546001600160a01b0319166001600160a01b0383169081179091556040519081527f167d3e9c1016ab80e58802ca9da10ce5c6a0f4debc46a2e7a2cd9e56899a4fb5906020015b60405180910390a150565b6007546001600160a01b03163314610a81576040516338ebc58960e11b815260040160405180910390fd5b600c8190556040518181527f7eded2c549bae9a064369318a940074f1c91f965cc3f7aed87ea7dba1c150c0c90602001610a4b565b610abe61194a565b610adb57604051630fc2437760e11b815260040160405180910390fd5b600654600114610b1a5760405162461bcd60e51b815260206004820152600a6024820152695245454e5452414e435960b01b6044820152606401610971565b6002600655600854604080516355573dc360e11b815290516000926001600160a01b03169163aaae7b869160048083019260209291908290030181865afa158015610b69573d6000803e3d6000fd5b505050506040513d601f19601f82011682018060405250810190610b8d91906126f7565b90506000610b9a82611977565b604080516060810182528281526020808201869052601254828401526013546000908152601582529290922081518051949550919384939192610be19284929101906121fa565b50602082015160018201556040909101516002909101558151600003610c0e57610c09611a83565b610c17565b610c1782611b5b565b610c2333600f54611c3d565b610c2b611c8e565b600060118190556012556013546040518481527f2b034c48d6d3c5fa40da8afd25e88ee8ad074a546e1a3f05a860c6106b99b82b9060200160405180910390a25050600160065550565b6007546001600160a01b03163314610ca0576040516338ebc58960e11b815260040160405180910390fd5b60108190556040518181527f7e2e70f554f7a916170e6f8b5fa7b10481e82c540902b810b83bbae02df025d190602001610a4b565b6000818152600260205260409020546001600160a01b03848116911614610d2b5760405162461bcd60e51b815260206004820152600a60248201526957524f4e475f46524f4d60b01b6044820152606401610971565b6001600160a01b038216610d755760405162461bcd60e51b81526020600482015260116024820152701253959053125117d49150d25412515395607a1b6044820152606401610971565b336001600160a01b0384161480610daf57506001600160a01b038316600090815260056020908152604080832033845290915290205460ff165b80610dd057506000818152600460205260409020546001600160a01b031633145b610e0d5760405162461bcd60e51b815260206004820152600e60248201526d1393d517d055551213d49256915160921b6044820152606401610971565b6001600160a01b0380841660008181526003602090815260408083208054600019019055938616808352848320805460010190558583526002825284832080546001600160a01b03199081168317909155600490925284832080549092169091559251849392917fddf252ad1be2c89b69c2b068fc378daa952ba7f163c4a11628f55a4df523b3ef91a4505050565b610ea7838383610cd5565b6001600160a01b0382163b1580610f505750604051630a85bd0160e11b8082523360048301526001600160a01b03858116602484015260448301849052608060648401526000608484015290919084169063150b7a029060a4016020604051808303816000875af1158015610f20573d6000803e3d6000fd5b505050506040513d601f19601f82011682018060405250810190610f449190612710565b6001600160e01b031916145b610f6c5760405162461bcd60e51b81526004016109719061272d565b505050565b6007546001600160a01b03163314610f9c576040516338ebc58960e11b815260040160405180910390fd5b600a610fa882826127a5565b507f23c8c9488efebfd474e85a7956de6f39b17c7ab88502d42a623db2d8e382bbaa600a604051610a4b9190612865565b6000818152600260205260409020546001600160a01b03168061102b5760405162461bcd60e51b815260206004820152600a6024820152691393d517d3525395115160b21b6044820152606401610971565b919050565b600a805461086e906126bd565b60006001600160a01b0382166110845760405162461bcd60e51b815260206004820152600c60248201526b5a45524f5f4144445245535360a01b6044820152606401610971565b506001600160a01b031660009081526003602052604090205490565b6007546001600160a01b031633146110cb576040516338ebc58960e11b815260040160405180910390fd5b600b8190556040518181527f4f5539c0409dfc4cb06f64cbd31237e1fbfe443f531584bf4dd77ec7fc5ba7b190602001610a4b565b6001805461086e906126bd565b6007546001600160a01b03163314611138576040516338ebc58960e11b815260040160405180910390fd5b6001600160a01b03811661115f5760405163538ba4f960e01b815260040160405180910390fd5b600880546001600160a01b0319166001600160a01b0383169081179091556040519081527f240d8bf6972a9e438d69cd9b1c79a0414806127b38f7b84dd65168e180ad22bc90602001610a4b565b3360008181526005602090815260408083206001600160a01b03871680855290835292819020805460ff191686151590811790915590519081529192917f17307eab39ab6107e8899845ad3d59bd9653f200f220920489ca2b5937696c31910160405180910390a35050565b60008181526016602090815260408083205480845260159092528220600d54600182015484919061125390670de0b6b3a7640000906128f0565b11801591506112685750600019949350505050565b60015b82548110156112dc5761127d86610fd9565b6001600160a01b031683600001828154811061129b5761129b612912565b6000918252602090912001546001600160a01b0316036112ca576112c081600161293e565b9695505050505050565b806112d481612951565b91505061126b565b50600095945050505050565b6112f3858585610cd5565b6001600160a01b0384163b158061138a5750604051630a85bd0160e11b808252906001600160a01b0386169063150b7a029061133b9033908a9089908990899060040161296a565b6020604051808303816000875af115801561135a573d6000803e3d6000fd5b505050506040513d601f19601f8201168201806040525081019061137e9190612710565b6001600160e01b031916145b6113a65760405162461bcd60e51b81526004016109719061272d565b5050505050565b6007546001600160a01b031633146113d8576040516338ebc58960e11b815260040160405180910390fd5b600f8190556040518181527f3e7248ce6e198f34feb7985860c18db7c24b8bfd1694296e521204548b0fbb0c90602001610a4b565b6007546001600160a01b03163314611438576040516338ebc58960e11b815260040160405180910390fd5b805160000361145a5760405163a75f8d3560e01b815260040160405180910390fd5b805163ffffffff1161147f576040516328592ca560e11b815260040160405180910390fd5b6000805b82518110156114c55782818151811061149e5761149e612912565b6020026020010151826114b1919061293e565b9150806114bd81612951565b915050611483565b50670de0b6b3a7640000601054826114dd919061293e565b11156114fc57604051631648186960e31b815260040160405180910390fd5b815161150f90600e90602085019061225f565b507fc1053cca128bc27ed92cf297a3b9d6eaab9a735abd9f97861d4fbde40b985b53600e60405161154091906129be565b60405180910390a15050565b6060600a61155983611ca6565b60405160200161156a9291906129f9565b6040516020818303038152906040529050919050565b6000818152601660209081526040808320548084526015909252822080546060936115aa86611219565b905060001981146115e8576115be84611ca6565b6040516020016115ce9190612a80565b604051602081830303815290604052945050505050919050565b80600003611609576115f984611ca6565b6040516020016115ce9190612ac9565b61161284611ca6565b61161b82611ca6565b61162484611ca6565b6040516020016115ce93929190612b10565b6006546001146116755760405162461bcd60e51b815260206004820152600a6024820152695245454e5452414e435960b01b6044820152606401610971565b6002600655600b54341461169c57604051631da0f5f960e21b815260040160405180910390fd5b6011546116ab576116ab611d39565b601280549060006116bb83612951565b919050555060006012546014546116d2919061293e565b60135460008281526016602052604090205590506116f03382611d99565b6013546040518281523391907f4458602c75f7945f69e6a982b698a0ba5068f2ae7324e34dac6ef89360380e2b9060200160405180910390a3506001600655565b6060600061173e8361103d565b90508060000361175e575050604080516000815260208101909152919050565b60008167ffffffffffffffff811115611779576117796123ed565b6040519080825280602002602001820160405280156117a2578160200160208202803683370190505b509050600060015b6012546014546117ba919061293e565b811161181f57856001600160a01b03166117d382610fd9565b6001600160a01b03160361180d57808383815181106117f4576117f4612912565b60209081029190910101528161180981612951565b9250505b8061181781612951565b9150506117aa565b5090949350505050565b600e818154811061183957600080fd5b600091825260209091200154905081565b6007546001600160a01b03163314611875576040516338ebc58960e11b815260040160405180910390fd5b6001600160a01b03811661189c5760405163538ba4f960e01b815260040160405180910390fd5b600980546001600160a01b0319166001600160a01b0383169081179091556040519081527fcb7ef3e545f5cdb893f5c568ba710fe08f336375a2d9fd66e161033f8fc09ef390602001610a4b565b6007546001600160a01b03163314611915576040516338ebc58960e11b815260040160405180910390fd5b600d8190556040518181527f9415f363ad9afde5b77185413860109cbf078b442ace9a0319f1ac90b84df9bd90602001610a4b565b6000611957601154151590565b80156119725750600c5460115461196e919061293e565b4210155b905090565b600d5460609061198f670de0b6b3a7640000846128f0565b10156119a957505060408051600081526020810190915290565b600e546012546000906119be90859084611e69565b90506000815167ffffffffffffffff8111156119dc576119dc6123ed565b604051908082528060200260200182016040528015611a05578160200160208202803683370190505b50905060005b8251811015611a7a57611a3e601454848381518110611a2c57611a2c612912565b60200260200101516104c9919061293e565b828281518110611a5057611a50612912565b6001600160a01b039092166020928302919091019091015280611a7281612951565b915050611a0b565b50949350505050565b6000611ab1601054670de0b6b3a7640000611a9e9190612b83565b600f54611aab9047612b83565b90611f89565b90506000611ad5601254670de0b6b3a7640000611ace9190612b96565b8390611fa5565b905060015b6012548111610f6c576000611af6826014546104c9919061293e565b9050611b028184611c3d565b806001600160a01b03166013547fae718d5005a53e2ce03ae49ffa0750b76ada9a2309cf05356a2ec06ba13a926585604051611b4091815260200190565b60405180910390a35080611b5381612951565b915050611ada565b6000611b76601054670de0b6b3a7640000611a9e9190612b83565b905060005b8251811015610f6c576000838281518110611b9857611b98612912565b602002602001015190506000611bd4600e8481548110611bba57611bba612912565b906000526020600020015485611f8990919063ffffffff16565b9050611be08282611c3d565b60135460408051858152602081018490526001600160a01b03851692917f01901b784b0a5a9753a8551528cb8faec83886f379113da512c80111edbc8860910160405180910390a350508080611c3590612951565b915050611b7b565b600080600080600085875af1905080610f6c5760405162461bcd60e51b815260206004820152601360248201527211551217d514905394d1915497d19052531151606a1b6044820152606401610971565b600954611ca4906001600160a01b031647611c3d565b565b60606000611cb383611fba565b600101905060008167ffffffffffffffff811115611cd357611cd36123ed565b6040519080825280601f01601f191660200182016040528015611cfd576020820181803683370190505b5090508181016020015b600019016f181899199a1a9b1b9c1cb0b131b232b360811b600a86061a8153600a8504945084611d0757509392505050565b60138054906000611d4983612951565b9190505550601254601454611d5e919061293e565b601455426011556000601281905560135460405190917f33a701182892fd888ed152ca2ac23771a32e814469b7cd255965471e1af3a65991a2565b611da38282612092565b6001600160a01b0382163b1580611e495750604051630a85bd0160e11b80825233600483015260006024830181905260448301849052608060648401526084830152906001600160a01b0384169063150b7a029060a4016020604051808303816000875af1158015611e19573d6000803e3d6000fd5b505050506040513d601f19601f82011682018060405250810190611e3d9190612710565b6001600160e01b031916145b611e655760405162461bcd60e51b81526004016109719061272d565b5050565b606060008263ffffffff1667ffffffffffffffff811115611e8c57611e8c6123ed565b604051908082528060200260200182016040528015611eb5578160200160208202803683370190505b5090508460005b8463ffffffff16811015611f7e57611ed38261219d565b63ffffffff16915060008663ffffffff1683611eef91906128f0565b611efa90600161293e565b9050600160005b83811015611f445782868281518110611f1c57611f1c612912565b602002602001015103611f325760009150611f44565b80611f3c81612951565b915050611f01565b508015611f775781858481518110611f5e57611f5e612912565b602090810291909101015282611f7381612951565b9350505b5050611ebc565b509095945050505050565b6000611f9e8383670de0b6b3a76400006121dc565b9392505050565b6000611f9e83670de0b6b3a7640000846121dc565b60008072184f03e93ff9f4daa797ed6e38ed64bf6a1f0160401b8310611ff95772184f03e93ff9f4daa797ed6e38ed64bf6a1f0160401b830492506040015b6d04ee2d6d415b85acef81000000008310612025576d04ee2d6d415b85acef8100000000830492506020015b662386f26fc10000831061204357662386f26fc10000830492506010015b6305f5e100831061205b576305f5e100830492506008015b612710831061206f57612710830492506004015b60648310612081576064830492506002015b600a831061085b5760010192915050565b6001600160a01b0382166120dc5760405162461bcd60e51b81526020600482015260116024820152701253959053125117d49150d25412515395607a1b6044820152606401610971565b6000818152600260205260409020546001600160a01b0316156121325760405162461bcd60e51b815260206004820152600e60248201526d1053149150511657d3525395115160921b6044820152606401610971565b6001600160a01b038216600081815260036020908152604080832080546001019055848352600290915280822080546001600160a01b0319168417905551839291907fddf252ad1be2c89b69c2b068fc378daa952ba7f163c4a11628f55a4df523b3ef908290a45050565b60006405deece66d600b6601000000000000601081836121bd8887612b96565b6121c7919061293e565b6121d191906128f0565b901c95945050505050565b60008260001904841183021582026121f357600080fd5b5091020490565b82805482825590600052602060002090810192821561224f579160200282015b8281111561224f57825182546001600160a01b0319166001600160a01b0390911617825560209092019160019091019061221a565b5061225b92915061229a565b5090565b82805482825590600052602060002090810192821561224f579160200282015b8281111561224f57825182559160200191906001019061227f565b5b8082111561225b576000815560010161229b565b6001600160e01b0319811681146122c557600080fd5b50565b6000602082840312156122da57600080fd5b8135611f9e816122af565b60005b838110156123005781810151838201526020016122e8565b50506000910152565b60208152600082518060208401526123288160408501602087016122e5565b601f01601f19169190910160400192915050565b60006020828403121561234e57600080fd5b5035919050565b80356001600160a01b038116811461102b57600080fd5b6000806040838503121561237f57600080fd5b61238883612355565b946020939093013593505050565b6000602082840312156123a857600080fd5b611f9e82612355565b6000806000606084860312156123c657600080fd5b6123cf84612355565b92506123dd60208501612355565b9150604084013590509250925092565b634e487b7160e01b600052604160045260246000fd5b604051601f8201601f1916810167ffffffffffffffff8111828210171561242c5761242c6123ed565b604052919050565b6000602080838503121561244757600080fd5b823567ffffffffffffffff8082111561245f57600080fd5b818501915085601f83011261247357600080fd5b813581811115612485576124856123ed565b612497601f8201601f19168501612403565b915080825286848285010111156124ad57600080fd5b8084840185840137600090820190930192909252509392505050565b600080604083850312156124dc57600080fd5b6124e583612355565b9150602083013580151581146124fa57600080fd5b809150509250929050565b60008060008060006080868803121561251d57600080fd5b61252686612355565b945061253460208701612355565b935060408601359250606086013567ffffffffffffffff8082111561255857600080fd5b818801915088601f83011261256c57600080fd5b81358181111561257b57600080fd5b89602082850101111561258d57600080fd5b9699959850939650602001949392505050565b600060208083850312156125b357600080fd5b823567ffffffffffffffff808211156125cb57600080fd5b818501915085601f8301126125df57600080fd5b8135818111156125f1576125f16123ed565b8060051b9150612602848301612403565b818152918301840191848101908884111561261c57600080fd5b938501935b8385101561263a57843582529385019390850190612621565b98975050505050505050565b6020808252825182820181905260009190848201906040850190845b8181101561267e57835183529284019291840191600101612662565b50909695505050505050565b6000806040838503121561269d57600080fd5b6126a683612355565b91506126b460208401612355565b90509250929050565b600181811c908216806126d157607f821691505b6020821081036126f157634e487b7160e01b600052602260045260246000fd5b50919050565b60006020828403121561270957600080fd5b5051919050565b60006020828403121561272257600080fd5b8151611f9e816122af565b60208082526010908201526f155394d0519157d49150d2541251539560821b604082015260600190565b601f821115610f6c57600081815260208120601f850160051c8101602086101561277e5750805b601f850160051c820191505b8181101561279d5782815560010161278a565b505050505050565b815167ffffffffffffffff8111156127bf576127bf6123ed565b6127d3816127cd84546126bd565b84612757565b602080601f83116001811461280857600084156127f05750858301515b600019600386901b1c1916600185901b17855561279d565b600085815260208120601f198616915b8281101561283757888601518255948401946001909101908401612818565b50858210156128555787850151600019600388901b60f8161c191681555b5050505050600190811b01905550565b6000602080835260008454612879816126bd565b8084870152604060018084166000811461289a57600181146128b4576128e2565b60ff1985168984015283151560051b8901830195506128e2565b896000528660002060005b858110156128da5781548b82018601529083019088016128bf565b8a0184019650505b509398975050505050505050565b60008261290d57634e487b7160e01b600052601260045260246000fd5b500690565b634e487b7160e01b600052603260045260246000fd5b634e487b7160e01b600052601160045260246000fd5b8082018082111561085b5761085b612928565b60006001820161296357612963612928565b5060010190565b6001600160a01b038681168252851660208201526040810184905260806060820181905281018290526000828460a0840137600060a0848401015260a0601f19601f85011683010190509695505050505050565b6020808252825482820181905260008481528281209092916040850190845b8181101561267e578354835260019384019392850192016129dd565b6000808454612a07816126bd565b60018281168015612a1f5760018114612a3457612a63565b60ff1984168752821515830287019450612a63565b8860005260208060002060005b85811015612a5a5781548a820152908401908201612a41565b50505082870194505b505050508351612a778183602088016122e5565b01949350505050565b6502937bab732160d51b815260008251612aa18160068501602087016122e5565b70202d2045766572796f6e652077696e732160781b6006939091019283015250601701919050565b6502937bab732160d51b815260008251612aea8160068501602087016122e5565b6e1016902234b2103737ba103bb4b71760891b6006939091019283015250601501919050565b6502937bab732160d51b815260008451612b318160068501602089016122e5565b6201016960ed1b6006918401918201528451612b548160098401602089016122e5565b602f60f81b600992909101918201528351612b7681600a8401602088016122e5565b01600a0195945050505050565b8181038181111561085b5761085b612928565b808202811582820484141761085b5761085b61292856fea26469706673582212205bc29c6e12344509b448e8aa6fa093fff666f4f41851718d83d44bff556c9cea64736f6c63430008120033",
    "linkReferences": {}
  },
  "methodIdentifiers": {
    "approve(address,uint256)": "095ea7b3",
    "balanceOf(address)": "70a08231",
    "baseURI()": "6c0360eb",
    "everyoneWinsProbability()": "be03d23d",
    "finalizeRound()": "1e820325",
    "finalizerReward()": "296af167",
    "getApproved(uint256)": "081812fc",
    "getOwnerTokenIds(address)": "e66b6000",
    "isApprovedForAll(address,address)": "e985e9c5",
    "lastRoundLastTokenId()": "4f183cc5",
    "minDuration()": "56715761",
    "name()": "06fdde03",
    "owner()": "8da5cb5b",
    "ownerOf(uint256)": "6352211e",
    "participate()": "d11711a2",
    "price()": "a035b1fe",
    "prizeRank(uint256)": "a6bd686b",
    "prizes(uint256)": "eccb3a4f",
    "rc()": "12f77332",
    "roundId()": "8cd221c9",
    "roundParticipants()": "d40dc869",
    "roundStartedAt()": "a16e56fc",
    "rounds(uint256)": "8c65c81f",
    "safeTransferFrom(address,address,uint256)": "42842e0e",
    "safeTransferFrom(address,address,uint256,bytes)": "b88d4fde",
    "setApprovalForAll(address,bool)": "a22cb465",
    "setBaseURI(string)": "55f804b3",
    "setEveryoneWinsProbability(uint256)": "f1816b1e",
    "setFinalizerReward(uint256)": "bba33931",
    "setMinDuration(uint256)": "1674bade",
    "setOwner(address)": "13af4035",
    "setPrice(uint256)": "91b7f5ed",
    "setPrizes(uint256[])": "c0f2165e",
    "setRandomnessClient(address)": "97811c4c",
    "setTreasury(address)": "f0f44260",
    "setTreasuryReserve(uint256)": "1ecd794f",
    "supportsInterface(bytes4)": "01ffc9a7",
    "symbol()": "95d89b41",
    "tokenIdRound(uint256)": "7b808ecc",
    "tokenInfo(uint256)": "cc33c875",
    "tokenURI(uint256)": "c87b56dd",
    "transferFrom(address,address,uint256)": "23b872dd",
    "treasury()": "61d027b3",
    "treasuryReserve()": "59297dbf"
  },
  "id": 25
}