{
  "abi": [
    {
      "inputs": [
        {
          "internalType": "address",
          "name": "_rc",
          "type": "address"
        },
        {
          "internalType": "address",
          "name": "_treasury",
          "type": "address"
        }
      ],
      "stateMutability": "nonpayable",
      "type": "constructor"
    },
    {
      "inputs": [],
      "name": "CANT_FINALIZE_YET",
      "type": "error"
    },
    {
      "inputs": [],
      "name": "NOT_OWNER",
      "type": "error"
    },
    {
      "inputs": [],
      "name": "TOO_MANY",
      "type": "error"
    },
    {
      "inputs": [],
      "name": "TOO_MANY_PRIZES",
      "type": "error"
    },
    {
      "inputs": [],
      "name": "WRONG_PRICE",
      "type": "error"
    },
    {
      "inputs": [],
      "name": "ZERO_ADDRESS",
      "type": "error"
    },
    {
      "inputs": [],
      "name": "ZERO_WINNERS",
      "type": "error"
    },
    {
      "anonymous": false,
      "inputs": [
        {
          "indexed": true,
          "internalType": "address",
          "name": "owner",
          "type": "address"
        },
        {
          "indexed": true,
          "internalType": "address",
          "name": "spender",
          "type": "address"
        },
        {
          "indexed": true,
          "internalType": "uint256",
          "name": "id",
          "type": "uint256"
        }
      ],
      "name": "Approval",
      "type": "event"
    },
    {
      "anonymous": false,
      "inputs": [
        {
          "indexed": true,
          "internalType": "address",
          "name": "owner",
          "type": "address"
        },
        {
          "indexed": true,
          "internalType": "address",
          "name": "operator",
          "type": "address"
        },
        {
          "indexed": false,
          "internalType": "bool",
          "name": "approved",
          "type": "bool"
        }
      ],
      "name": "ApprovalForAll",
      "type": "event"
    },
    {
      "anonymous": false,
      "inputs": [
        {
          "indexed": true,
          "internalType": "uint256",
          "name": "roundId",
          "type": "uint256"
        },
        {
          "indexed": true,
          "internalType": "address",
          "name": "participant",
          "type": "address"
        },
        {
          "indexed": false,
          "internalType": "uint256",
          "name": "participantId",
          "type": "uint256"
        }
      ],
      "name": "ParticipantAdded",
      "type": "event"
    },
    {
      "anonymous": false,
      "inputs": [
        {
          "indexed": true,
          "internalType": "uint256",
          "name": "roundId",
          "type": "uint256"
        },
        {
          "indexed": true,
          "internalType": "address",
          "name": "participant",
          "type": "address"
        },
        {
          "indexed": false,
          "internalType": "uint256",
          "name": "amount",
          "type": "uint256"
        }
      ],
      "name": "Redistribution",
      "type": "event"
    },
    {
      "anonymous": false,
      "inputs": [
        {
          "indexed": true,
          "internalType": "uint256",
          "name": "roundId",
          "type": "uint256"
        },
        {
          "indexed": false,
          "internalType": "uint256",
          "name": "randomness",
          "type": "uint256"
        }
      ],
      "name": "RoundFinalized",
      "type": "event"
    },
    {
      "anonymous": false,
      "inputs": [
        {
          "indexed": true,
          "internalType": "uint256",
          "name": "roundId",
          "type": "uint256"
        }
      ],
      "name": "RoundStarted",
      "type": "event"
    },
    {
      "anonymous": false,
      "inputs": [
        {
          "indexed": false,
          "internalType": "uint256",
          "name": "everyoneWinsProbability",
          "type": "uint256"
        }
      ],
      "name": "SetEveryoneWinsProbability",
      "type": "event"
    },
    {
      "anonymous": false,
      "inputs": [
        {
          "indexed": false,
          "internalType": "uint256",
          "name": "finalizerReward",
          "type": "uint256"
        }
      ],
      "name": "SetFinalizerReward",
      "type": "event"
    },
    {
      "anonymous": false,
      "inputs": [
        {
          "indexed": false,
          "internalType": "uint256",
          "name": "minDuration",
          "type": "uint256"
        }
      ],
      "name": "SetMinDuration",
      "type": "event"
    },
    {
      "anonymous": false,
      "inputs": [
        {
          "indexed": false,
          "internalType": "address",
          "name": "owner",
          "type": "address"
        }
      ],
      "name": "SetOwner",
      "type": "event"
    },
    {
      "anonymous": false,
      "inputs": [
        {
          "indexed": false,
          "internalType": "uint256",
          "name": "price",
          "type": "uint256"
        }
      ],
      "name": "SetPrice",
      "type": "event"
    },
    {
      "anonymous": false,
      "inputs": [
        {
          "indexed": false,
          "internalType": "uint256[]",
          "name": "prizes",
          "type": "uint256[]"
        }
      ],
      "name": "SetPrizes",
      "type": "event"
    },
    {
      "anonymous": false,
      "inputs": [
        {
          "indexed": false,
          "internalType": "address",
          "name": "rc",
          "type": "address"
        }
      ],
      "name": "SetRandomnessClient",
      "type": "event"
    },
    {
      "anonymous": false,
      "inputs": [
        {
          "indexed": false,
          "internalType": "address",
          "name": "treasury",
          "type": "address"
        }
      ],
      "name": "SetTreasury",
      "type": "event"
    },
    {
      "anonymous": false,
      "inputs": [
        {
          "indexed": false,
          "internalType": "uint256",
          "name": "treasuryReserve",
          "type": "uint256"
        }
      ],
      "name": "SetTreasuryReserve",
      "type": "event"
    },
    {
      "anonymous": false,
      "inputs": [
        {
          "indexed": true,
          "internalType": "address",
          "name": "from",
          "type": "address"
        },
        {
          "indexed": true,
          "internalType": "address",
          "name": "to",
          "type": "address"
        },
        {
          "indexed": true,
          "internalType": "uint256",
          "name": "id",
          "type": "uint256"
        }
      ],
      "name": "Transfer",
      "type": "event"
    },
    {
      "anonymous": false,
      "inputs": [
        {
          "indexed": true,
          "internalType": "uint256",
          "name": "roundId",
          "type": "uint256"
        },
        {
          "indexed": true,
          "internalType": "address",
          "name": "participant",
          "type": "address"
        },
        {
          "indexed": false,
          "internalType": "uint256",
          "name": "prizeId",
          "type": "uint256"
        },
        {
          "indexed": false,
          "internalType": "uint256",
          "name": "prizeAmount",
          "type": "uint256"
        }
      ],
      "name": "WonPrize",
      "type": "event"
    },
    {
      "inputs": [
        {
          "internalType": "address",
          "name": "spender",
          "type": "address"
        },
        {
          "internalType": "uint256",
          "name": "id",
          "type": "uint256"
        }
      ],
      "name": "approve",
      "outputs": [],
      "stateMutability": "nonpayable",
      "type": "function"
    },
    {
      "inputs": [
        {
          "internalType": "address",
          "name": "owner",
          "type": "address"
        }
      ],
      "name": "balanceOf",
      "outputs": [
        {
          "internalType": "uint256",
          "name": "",
          "type": "uint256"
        }
      ],
      "stateMutability": "view",
      "type": "function"
    },
    {
      "inputs": [],
      "name": "everyoneWinsProbability",
      "outputs": [
        {
          "internalType": "uint256",
          "name": "",
          "type": "uint256"
        }
      ],
      "stateMutability": "view",
      "type": "function"
    },
    {
      "inputs": [],
      "name": "finalizeRound",
      "outputs": [],
      "stateMutability": "nonpayable",
      "type": "function"
    },
    {
      "inputs": [],
      "name": "finalizerReward",
      "outputs": [
        {
          "internalType": "uint256",
          "name": "",
          "type": "uint256"
        }
      ],
      "stateMutability": "view",
      "type": "function"
    },
    {
      "inputs": [
        {
          "internalType": "uint256",
          "name": "",
          "type": "uint256"
        }
      ],
      "name": "getApproved",
      "outputs": [
        {
          "internalType": "address",
          "name": "",
          "type": "address"
        }
      ],
      "stateMutability": "view",
      "type": "function"
    },
    {
      "inputs": [
        {
          "internalType": "address",
          "name": "_owner",
          "type": "address"
        }
      ],
      "name": "getOwnerTokenIds",
      "outputs": [
        {
          "internalType": "uint256[]",
          "name": "",
          "type": "uint256[]"
        }
      ],
      "stateMutability": "view",
      "type": "function"
    },
    {
      "inputs": [
        {
          "internalType": "address",
          "name": "",
          "type": "address"
        },
        {
          "internalType": "address",
          "name": "",
          "type": "address"
        }
      ],
      "name": "isApprovedForAll",
      "outputs": [
        {
          "internalType": "bool",
          "name": "",
          "type": "bool"
        }
      ],
      "stateMutability": "view",
      "type": "function"
    },
    {
      "inputs": [],
      "name": "lastRoundLastTokenId",
      "outputs": [
        {
          "internalType": "uint256",
          "name": "",
          "type": "uint256"
        }
      ],
      "stateMutability": "view",
      "type": "function"
    },
    {
      "inputs": [],
      "name": "minDuration",
      "outputs": [
        {
          "internalType": "uint256",
          "name": "",
          "type": "uint256"
        }
      ],
      "stateMutability": "view",
      "type": "function"
    },
    {
      "inputs": [],
      "name": "name",
      "outputs": [
        {
          "internalType": "string",
          "name": "",
          "type": "string"
        }
      ],
      "stateMutability": "view",
      "type": "function"
    },
    {
      "inputs": [],
      "name": "owner",
      "outputs": [
        {
          "internalType": "address",
          "name": "",
          "type": "address"
        }
      ],
      "stateMutability": "view",
      "type": "function"
    },
    {
      "inputs": [
        {
          "internalType": "uint256",
          "name": "id",
          "type": "uint256"
        }
      ],
      "name": "ownerOf",
      "outputs": [
        {
          "internalType": "address",
          "name": "owner",
          "type": "address"
        }
      ],
      "stateMutability": "view",
      "type": "function"
    },
    {
      "inputs": [],
      "name": "participate",
      "outputs": [],
      "stateMutability": "payable",
      "type": "function"
    },
    {
      "inputs": [],
      "name": "price",
      "outputs": [
        {
          "internalType": "uint256",
          "name": "",
          "type": "uint256"
        }
      ],
      "stateMutability": "view",
      "type": "function"
    },
    {
      "inputs": [
        {
          "internalType": "uint256",
          "name": "_tokenId",
          "type": "uint256"
        }
      ],
      "name": "prizeRank",
      "outputs": [
        {
          "internalType": "uint256",
          "name": "",
          "type": "uint256"
        }
      ],
      "stateMutability": "view",
      "type": "function"
    },
    {
      "inputs": [
        {
          "internalType": "uint256",
          "name": "",
          "type": "uint256"
        }
      ],
      "name": "prizes",
      "outputs": [
        {
          "internalType": "uint256",
          "name": "",
          "type": "uint256"
        }
      ],
      "stateMutability": "view",
      "type": "function"
    },
    {
      "inputs": [],
      "name": "rc",
      "outputs": [
        {
          "internalType": "contract IRandomnessClient",
          "name": "",
          "type": "address"
        }
      ],
      "stateMutability": "view",
      "type": "function"
    },
    {
      "inputs": [],
      "name": "roundId",
      "outputs": [
        {
          "internalType": "uint256",
          "name": "",
          "type": "uint256"
        }
      ],
      "stateMutability": "view",
      "type": "function"
    },
    {
      "inputs": [],
      "name": "roundParticipants",
      "outputs": [
        {
          "internalType": "uint256",
          "name": "",
          "type": "uint256"
        }
      ],
      "stateMutability": "view",
      "type": "function"
    },
    {
      "inputs": [],
      "name": "roundStartedAt",
      "outputs": [
        {
          "internalType": "uint256",
          "name": "",
          "type": "uint256"
        }
      ],
      "stateMutability": "view",
      "type": "function"
    },
    {
      "inputs": [
        {
          "internalType": "uint256",
          "name": "",
          "type": "uint256"
        }
      ],
      "name": "rounds",
      "outputs": [
        {
          "internalType": "uint256",
          "name": "randomness",
          "type": "uint256"
        },
        {
          "internalType": "uint256",
          "name": "participants",
          "type": "uint256"
        }
      ],
      "stateMutability": "view",
      "type": "function"
    },
    {
      "inputs": [
        {
          "internalType": "address",
          "name": "from",
          "type": "address"
        },
        {
          "internalType": "address",
          "name": "to",
          "type": "address"
        },
        {
          "internalType": "uint256",
          "name": "id",
          "type": "uint256"
        }
      ],
      "name": "safeTransferFrom",
      "outputs": [],
      "stateMutability": "nonpayable",
      "type": "function"
    },
    {
      "inputs": [
        {
          "internalType": "address",
          "name": "from",
          "type": "address"
        },
        {
          "internalType": "address",
          "name": "to",
          "type": "address"
        },
        {
          "internalType": "uint256",
          "name": "id",
          "type": "uint256"
        },
        {
          "internalType": "bytes",
          "name": "data",
          "type": "bytes"
        }
      ],
      "name": "safeTransferFrom",
      "outputs": [],
      "stateMutability": "nonpayable",
      "type": "function"
    },
    {
      "inputs": [
        {
          "internalType": "address",
          "name": "operator",
          "type": "address"
        },
        {
          "internalType": "bool",
          "name": "approved",
          "type": "bool"
        }
      ],
      "name": "setApprovalForAll",
      "outputs": [],
      "stateMutability": "nonpayable",
      "type": "function"
    },
    {
      "inputs": [
        {
          "internalType": "uint256",
          "name": "_everyoneWinsProbability",
          "type": "uint256"
        }
      ],
      "name": "setEveryoneWinsProbability",
      "outputs": [],
      "stateMutability": "nonpayable",
      "type": "function"
    },
    {
      "inputs": [
        {
          "internalType": "uint256",
          "name": "_finalizerReward",
          "type": "uint256"
        }
      ],
      "name": "setFinalizerReward",
      "outputs": [],
      "stateMutability": "nonpayable",
      "type": "function"
    },
    {
      "inputs": [
        {
          "internalType": "uint256",
          "name": "_minDuration",
          "type": "uint256"
        }
      ],
      "name": "setMinDuration",
      "outputs": [],
      "stateMutability": "nonpayable",
      "type": "function"
    },
    {
      "inputs": [
        {
          "internalType": "address",
          "name": "_owner",
          "type": "address"
        }
      ],
      "name": "setOwner",
      "outputs": [],
      "stateMutability": "nonpayable",
      "type": "function"
    },
    {
      "inputs": [
        {
          "internalType": "uint256",
          "name": "_price",
          "type": "uint256"
        }
      ],
      "name": "setPrice",
      "outputs": [],
      "stateMutability": "nonpayable",
      "type": "function"
    },
    {
      "inputs": [
        {
          "internalType": "uint256[]",
          "name": "_prizes",
          "type": "uint256[]"
        }
      ],
      "name": "setPrizes",
      "outputs": [],
      "stateMutability": "nonpayable",
      "type": "function"
    },
    {
      "inputs": [
        {
          "internalType": "address",
          "name": "_rc",
          "type": "address"
        }
      ],
      "name": "setRandomnessClient",
      "outputs": [],
      "stateMutability": "nonpayable",
      "type": "function"
    },
    {
      "inputs": [
        {
          "internalType": "address",
          "name": "_treasury",
          "type": "address"
        }
      ],
      "name": "setTreasury",
      "outputs": [],
      "stateMutability": "nonpayable",
      "type": "function"
    },
    {
      "inputs": [
        {
          "internalType": "uint256",
          "name": "_treasuryReserve",
          "type": "uint256"
        }
      ],
      "name": "setTreasuryReserve",
      "outputs": [],
      "stateMutability": "nonpayable",
      "type": "function"
    },
    {
      "inputs": [
        {
          "internalType": "bytes4",
          "name": "interfaceId",
          "type": "bytes4"
        }
      ],
      "name": "supportsInterface",
      "outputs": [
        {
          "internalType": "bool",
          "name": "",
          "type": "bool"
        }
      ],
      "stateMutability": "view",
      "type": "function"
    },
    {
      "inputs": [],
      "name": "symbol",
      "outputs": [
        {
          "internalType": "string",
          "name": "",
          "type": "string"
        }
      ],
      "stateMutability": "view",
      "type": "function"
    },
    {
      "inputs": [
        {
          "internalType": "uint256",
          "name": "",
          "type": "uint256"
        }
      ],
      "name": "tokenIdRound",
      "outputs": [
        {
          "internalType": "uint256",
          "name": "",
          "type": "uint256"
        }
      ],
      "stateMutability": "view",
      "type": "function"
    },
    {
      "inputs": [
        {
          "internalType": "uint256",
          "name": "_tokenId",
          "type": "uint256"
        }
      ],
      "name": "tokenInfo",
      "outputs": [
        {
          "internalType": "string",
          "name": "",
          "type": "string"
        }
      ],
      "stateMutability": "view",
      "type": "function"
    },
    {
      "inputs": [
        {
          "internalType": "uint256",
          "name": "_tokenId",
          "type": "uint256"
        }
      ],
      "name": "tokenURI",
      "outputs": [
        {
          "internalType": "string",
          "name": "",
          "type": "string"
        }
      ],
      "stateMutability": "pure",
      "type": "function"
    },
    {
      "inputs": [
        {
          "internalType": "address",
          "name": "from",
          "type": "address"
        },
        {
          "internalType": "address",
          "name": "to",
          "type": "address"
        },
        {
          "internalType": "uint256",
          "name": "id",
          "type": "uint256"
        }
      ],
      "name": "transferFrom",
      "outputs": [],
      "stateMutability": "nonpayable",
      "type": "function"
    },
    {
      "inputs": [],
      "name": "treasury",
      "outputs": [
        {
          "internalType": "contract IBanditTreasury",
          "name": "",
          "type": "address"
        }
      ],
      "stateMutability": "view",
      "type": "function"
    },
    {
      "inputs": [],
      "name": "treasuryReserve",
      "outputs": [
        {
          "internalType": "uint256",
          "name": "",
          "type": "uint256"
        }
      ],
      "stateMutability": "view",
      "type": "function"
    }
  ],
  "bytecode": {
    "object": "0x6001600655678ac7230489e80000600a55610384600b5564e8d4a51000600c5560e060405267058d15e17628000060809081526703782dace9d9000060a052670214e8348c4f000060c0526200005a90600d90600362000250565b50674563918244f40000600e556702c68af0bb140000600f5560006010556000601155600060125560006013553480156200009457600080fd5b5060405162002d3e38038062002d3e833981016040819052620000b791620002df565b6040518060400160405280600f81526020016e44756d70696e672042616e6469747360881b8152506040518060400160405280600681526020016510905391125560d21b81525081600090816200010f9190620003bc565b5060016200011e8282620003bc565b5050506001600160a01b03821615806200013f57506001600160a01b038116155b156200015e5760405163538ba4f960e01b815260040160405180910390fd5b600780546001600160a01b031916339081179091556040519081527f167d3e9c1016ab80e58802ca9da10ce5c6a0f4debc46a2e7a2cd9e56899a4fb59060200160405180910390a1600880546001600160a01b0319166001600160a01b0384169081179091556040519081527f240d8bf6972a9e438d69cd9b1c79a0414806127b38f7b84dd65168e180ad22bc9060200160405180910390a1600980546001600160a01b0319166001600160a01b0383169081179091556040519081527fcb7ef3e545f5cdb893f5c568ba710fe08f336375a2d9fd66e161033f8fc09ef39060200160405180910390a1505062000488565b82805482825590600052602060002090810192821562000299579160200282015b828111156200029957825182906001600160401b031690559160200191906001019062000271565b50620002a7929150620002ab565b5090565b5b80821115620002a75760008155600101620002ac565b80516001600160a01b0381168114620002da57600080fd5b919050565b60008060408385031215620002f357600080fd5b620002fe83620002c2565b91506200030e60208401620002c2565b90509250929050565b634e487b7160e01b600052604160045260246000fd5b600181811c908216806200034257607f821691505b6020821081036200036357634e487b7160e01b600052602260045260246000fd5b50919050565b601f821115620003b757600081815260208120601f850160051c81016020861015620003925750805b601f850160051c820191505b81811015620003b3578281556001016200039e565b5050505b505050565b81516001600160401b03811115620003d857620003d862000317565b620003f081620003e984546200032d565b8462000369565b602080601f8311600181146200042857600084156200040f5750858301515b600019600386901b1c1916600185901b178555620003b3565b600085815260208120601f198616915b82811015620004595788860151825594840194600190910190840162000438565b5085821015620004785787850151600019600388901b60f8161c191681555b5050505050600190811b01905550565b6128a680620004986000396000f3fe6080604052600436106102515760003560e01c80638da5cb5b11610139578063be03d23d116100b6578063d40dc8691161007a578063d40dc869146106e6578063e66b6000146106fc578063e985e9c514610729578063eccb3a4f14610764578063f0f4426014610784578063f1816b1e146107a457600080fd5b8063be03d23d14610668578063c0f2165e1461067e578063c87b56dd1461069e578063cc33c875146106be578063d11711a2146106de57600080fd5b8063a16e56fc116100fd578063a16e56fc146105d2578063a22cb465146105e8578063a6bd686b14610608578063b88d4fde14610628578063bba339311461064857600080fd5b80638da5cb5b1461054757806391b7f5ed1461056757806395d89b411461058757806397811c4c1461059c578063a035b1fe146105bc57600080fd5b8063296af167116101d257806361d027b31161019657806361d027b3146104585780636352211e1461047857806370a08231146104985780637b808ecc146104b85780638c65c81f146104e55780638cd221c91461053157600080fd5b8063296af167146103d257806342842e0e146103f65780634f183cc514610416578063567157611461042c57806359297dbf1461044257600080fd5b806313af40351161021957806313af40351461033d5780631674bade1461035d5780631e8203251461037d5780631ecd794f1461039257806323b872dd146103b257600080fd5b806301ffc9a71461025657806306fdde031461028b578063081812fc146102ad578063095ea7b3146102fb57806312f773321461031d575b600080fd5b34801561026257600080fd5b50610276610271366004612205565b6107c4565b60405190151581526020015b60405180910390f35b34801561029757600080fd5b506102a0610816565b6040516102829190612246565b3480156102b957600080fd5b506102e36102c8366004612279565b6004602052600090815260409020546001600160a01b031681565b6040516001600160a01b039091168152602001610282565b34801561030757600080fd5b5061031b6103163660046122a9565b6108a4565b005b34801561032957600080fd5b506008546102e3906001600160a01b031681565b34801561034957600080fd5b5061031b6103583660046122d3565b61098b565b34801561036957600080fd5b5061031b610378366004612279565b610a0b565b34801561038957600080fd5b5061031b610a6b565b34801561039e57600080fd5b5061031b6103ad366004612279565b610c2a565b3480156103be57600080fd5b5061031b6103cd3660046122ee565b610c8a565b3480156103de57600080fd5b506103e8600e5481565b604051908152602001610282565b34801561040257600080fd5b5061031b6104113660046122ee565b610e51565b34801561042257600080fd5b506103e860135481565b34801561043857600080fd5b506103e8600b5481565b34801561044e57600080fd5b506103e8600f5481565b34801561046457600080fd5b506009546102e3906001600160a01b031681565b34801561048457600080fd5b506102e3610493366004612279565b610f26565b3480156104a457600080fd5b506103e86104b33660046122d3565b610f7d565b3480156104c457600080fd5b506103e86104d3366004612279565b60156020526000908152604090205481565b3480156104f157600080fd5b5061051c610500366004612279565b6014602052600090815260409020600181015460029091015482565b60408051928352602083019190915201610282565b34801561053d57600080fd5b506103e860125481565b34801561055357600080fd5b506007546102e3906001600160a01b031681565b34801561057357600080fd5b5061031b610582366004612279565b610fe0565b34801561059357600080fd5b506102a0611040565b3480156105a857600080fd5b5061031b6105b73660046122d3565b61104d565b3480156105c857600080fd5b506103e8600a5481565b3480156105de57600080fd5b506103e860105481565b3480156105f457600080fd5b5061031b61060336600461232a565b6110ed565b34801561061457600080fd5b506103e8610623366004612279565b611159565b34801561063457600080fd5b5061031b610643366004612366565b611228565b34801561065457600080fd5b5061031b610663366004612279565b6112ed565b34801561067457600080fd5b506103e8600c5481565b34801561068a57600080fd5b5061031b610699366004612417565b61134d565b3480156106aa57600080fd5b506102a06106b9366004612279565b61148c565b3480156106ca57600080fd5b506102a06106d9366004612279565b6114bd565b61031b611573565b3480156106f257600080fd5b506103e860115481565b34801561070857600080fd5b5061071c6107173660046122d3565b61166e565b60405161028291906124d5565b34801561073557600080fd5b50610276610744366004612519565b600560209081526000928352604080842090915290825290205460ff1681565b34801561077057600080fd5b506103e861077f366004612279565b611766565b34801561079057600080fd5b5061031b61079f3660046122d3565b611787565b3480156107b057600080fd5b5061031b6107bf366004612279565b611827565b60006301ffc9a760e01b6001600160e01b0319831614806107f557506380ac58cd60e01b6001600160e01b03198316145b806108105750635b5e139f60e01b6001600160e01b03198316145b92915050565b600080546108239061254c565b80601f016020809104026020016040519081016040528092919081815260200182805461084f9061254c565b801561089c5780601f106108715761010080835404028352916020019161089c565b820191906000526020600020905b81548152906001019060200180831161087f57829003601f168201915b505050505081565b6000818152600260205260409020546001600160a01b0316338114806108ed57506001600160a01b038116600090815260056020908152604080832033845290915290205460ff165b61092f5760405162461bcd60e51b815260206004820152600e60248201526d1393d517d055551213d49256915160921b60448201526064015b60405180910390fd5b60008281526004602052604080822080546001600160a01b0319166001600160a01b0387811691821790925591518593918516917f8c5be1e5ebec7d5bd14f71427d1e84f3dd0314c0f7b2291e5b200ac8c7c3b92591a4505050565b6007546001600160a01b031633146109b6576040516338ebc58960e11b815260040160405180910390fd5b600780546001600160a01b0319166001600160a01b0383169081179091556040519081527f167d3e9c1016ab80e58802ca9da10ce5c6a0f4debc46a2e7a2cd9e56899a4fb5906020015b60405180910390a150565b6007546001600160a01b03163314610a36576040516338ebc58960e11b815260040160405180910390fd5b600b8190556040518181527f7eded2c549bae9a064369318a940074f1c91f965cc3f7aed87ea7dba1c150c0c90602001610a00565b610a73611887565b610a9057604051630fc2437760e11b815260040160405180910390fd5b600654600114610acf5760405162461bcd60e51b815260206004820152600a6024820152695245454e5452414e435960b01b6044820152606401610926565b6002600655600854604080516355573dc360e11b815290516000926001600160a01b03169163aaae7b869160048083019260209291908290030181865afa158015610b1e573d6000803e3d6000fd5b505050506040513d601f19601f82011682018060405250810190610b429190612586565b90506000610b4f826118b4565b604080516060810182528281526020808201869052601154828401526012546000908152601482529290922081518051949550919384939192610b96928492910190612137565b50602082015160018201556040909101516002909101558151600003610bc357610bbe6119c0565b610bcc565b610bcc82611a98565b610bd833600e54611b7a565b610be0611bcb565b600060108190556011556012546040518481527f2b034c48d6d3c5fa40da8afd25e88ee8ad074a546e1a3f05a860c6106b99b82b9060200160405180910390a25050600160065550565b6007546001600160a01b03163314610c55576040516338ebc58960e11b815260040160405180910390fd5b600f8190556040518181527f7e2e70f554f7a916170e6f8b5fa7b10481e82c540902b810b83bbae02df025d190602001610a00565b6000818152600260205260409020546001600160a01b03848116911614610ce05760405162461bcd60e51b815260206004820152600a60248201526957524f4e475f46524f4d60b01b6044820152606401610926565b6001600160a01b038216610d2a5760405162461bcd60e51b81526020600482015260116024820152701253959053125117d49150d25412515395607a1b6044820152606401610926565b336001600160a01b0384161480610d6457506001600160a01b038316600090815260056020908152604080832033845290915290205460ff165b80610d8557506000818152600460205260409020546001600160a01b031633145b610dc25760405162461bcd60e51b815260206004820152600e60248201526d1393d517d055551213d49256915160921b6044820152606401610926565b6001600160a01b0380841660008181526003602090815260408083208054600019019055938616808352848320805460010190558583526002825284832080546001600160a01b03199081168317909155600490925284832080549092169091559251849392917fddf252ad1be2c89b69c2b068fc378daa952ba7f163c4a11628f55a4df523b3ef91a4505050565b610e5c838383610c8a565b6001600160a01b0382163b1580610f055750604051630a85bd0160e11b8082523360048301526001600160a01b03858116602484015260448301849052608060648401526000608484015290919084169063150b7a029060a4016020604051808303816000875af1158015610ed5573d6000803e3d6000fd5b505050506040513d601f19601f82011682018060405250810190610ef9919061259f565b6001600160e01b031916145b610f215760405162461bcd60e51b8152600401610926906125bc565b505050565b6000818152600260205260409020546001600160a01b031680610f785760405162461bcd60e51b815260206004820152600a6024820152691393d517d3525395115160b21b6044820152606401610926565b919050565b60006001600160a01b038216610fc45760405162461bcd60e51b815260206004820152600c60248201526b5a45524f5f4144445245535360a01b6044820152606401610926565b506001600160a01b031660009081526003602052604090205490565b6007546001600160a01b0316331461100b576040516338ebc58960e11b815260040160405180910390fd5b600a8190556040518181527f4f5539c0409dfc4cb06f64cbd31237e1fbfe443f531584bf4dd77ec7fc5ba7b190602001610a00565b600180546108239061254c565b6007546001600160a01b03163314611078576040516338ebc58960e11b815260040160405180910390fd5b6001600160a01b03811661109f5760405163538ba4f960e01b815260040160405180910390fd5b600880546001600160a01b0319166001600160a01b0383169081179091556040519081527f240d8bf6972a9e438d69cd9b1c79a0414806127b38f7b84dd65168e180ad22bc90602001610a00565b3360008181526005602090815260408083206001600160a01b03871680855290835292819020805460ff191686151590811790915590519081529192917f17307eab39ab6107e8899845ad3d59bd9653f200f220920489ca2b5937696c31910160405180910390a35050565b60008181526015602090815260408083205480845260149092528220600c54600182015484919061119390670de0b6b3a7640000906125e6565b11801591506111a85750600019949350505050565b60015b825481101561121c576111bd86610f26565b6001600160a01b03168360000182815481106111db576111db612608565b6000918252602090912001546001600160a01b03160361120a57611200816001612634565b9695505050505050565b8061121481612647565b9150506111ab565b50600095945050505050565b611233858585610c8a565b6001600160a01b0384163b15806112ca5750604051630a85bd0160e11b808252906001600160a01b0386169063150b7a029061127b9033908a90899089908990600401612660565b6020604051808303816000875af115801561129a573d6000803e3d6000fd5b505050506040513d601f19601f820116820180604052508101906112be919061259f565b6001600160e01b031916145b6112e65760405162461bcd60e51b8152600401610926906125bc565b5050505050565b6007546001600160a01b03163314611318576040516338ebc58960e11b815260040160405180910390fd5b600e8190556040518181527f3e7248ce6e198f34feb7985860c18db7c24b8bfd1694296e521204548b0fbb0c90602001610a00565b6007546001600160a01b03163314611378576040516338ebc58960e11b815260040160405180910390fd5b805160000361139a5760405163a75f8d3560e01b815260040160405180910390fd5b805163ffffffff116113bf576040516328592ca560e11b815260040160405180910390fd5b6000805b8251811015611405578281815181106113de576113de612608565b6020026020010151826113f19190612634565b9150806113fd81612647565b9150506113c3565b50670de0b6b3a7640000600f548261141d9190612634565b111561143c57604051631648186960e31b815260040160405180910390fd5b815161144f90600d90602085019061219c565b507fc1053cca128bc27ed92cf297a3b9d6eaab9a735abd9f97861d4fbde40b985b53600d60405161148091906126b4565b60405180910390a15050565b606061149782611be3565b6040516020016114a791906126ef565b6040516020818303038152906040529050919050565b6000818152601560209081526040808320548084526014909252822080546060936114e786611159565b90506000198114611525576114fb84611be3565b60405160200161150b9190612743565b604051602081830303815290604052945050505050919050565b806000036115465761153684611be3565b60405160200161150b919061278c565b61154f84611be3565b61155882611be3565b61156184611be3565b60405160200161150b939291906127d3565b6006546001146115b25760405162461bcd60e51b815260206004820152600a6024820152695245454e5452414e435960b01b6044820152606401610926565b6002600655600a5434146115d957604051631da0f5f960e21b815260040160405180910390fd5b6010546115e8576115e8611c76565b601180549060006115f883612647565b9190505550600060115460135461160f9190612634565b601254600082815260156020526040902055905061162d3382611cd6565b6012546040518281523391907f4458602c75f7945f69e6a982b698a0ba5068f2ae7324e34dac6ef89360380e2b9060200160405180910390a3506001600655565b6060600061167b83610f7d565b90508060000361169b575050604080516000815260208101909152919050565b60008167ffffffffffffffff8111156116b6576116b6612401565b6040519080825280602002602001820160405280156116df578160200160208202803683370190505b509050600060015b6011546013546116f79190612634565b811161175c57856001600160a01b031661171082610f26565b6001600160a01b03160361174a578083838151811061173157611731612608565b60209081029190910101528161174681612647565b9250505b8061175481612647565b9150506116e7565b5090949350505050565b600d818154811061177657600080fd5b600091825260209091200154905081565b6007546001600160a01b031633146117b2576040516338ebc58960e11b815260040160405180910390fd5b6001600160a01b0381166117d95760405163538ba4f960e01b815260040160405180910390fd5b600980546001600160a01b0319166001600160a01b0383169081179091556040519081527fcb7ef3e545f5cdb893f5c568ba710fe08f336375a2d9fd66e161033f8fc09ef390602001610a00565b6007546001600160a01b03163314611852576040516338ebc58960e11b815260040160405180910390fd5b600c8190556040518181527f9415f363ad9afde5b77185413860109cbf078b442ace9a0319f1ac90b84df9bd90602001610a00565b6000611894601054151590565b80156118af5750600b546010546118ab9190612634565b4210155b905090565b600c546060906118cc670de0b6b3a7640000846125e6565b10156118e657505060408051600081526020810190915290565b600d546011546000906118fb90859084611da6565b90506000815167ffffffffffffffff81111561191957611919612401565b604051908082528060200260200182016040528015611942578160200160208202803683370190505b50905060005b82518110156119b75761197b60135484838151811061196957611969612608565b60200260200101516104939190612634565b82828151811061198d5761198d612608565b6001600160a01b0390921660209283029190910190910152806119af81612647565b915050611948565b50949350505050565b60006119ee600f54670de0b6b3a76400006119db9190612846565b600e546119e89047612846565b90611ec6565b90506000611a12601154670de0b6b3a7640000611a0b9190612859565b8390611ee2565b905060015b6011548111610f21576000611a33826013546104939190612634565b9050611a3f8184611b7a565b806001600160a01b03166012547fae718d5005a53e2ce03ae49ffa0750b76ada9a2309cf05356a2ec06ba13a926585604051611a7d91815260200190565b60405180910390a35080611a9081612647565b915050611a17565b6000611ab3600f54670de0b6b3a76400006119db9190612846565b905060005b8251811015610f21576000838281518110611ad557611ad5612608565b602002602001015190506000611b11600d8481548110611af757611af7612608565b906000526020600020015485611ec690919063ffffffff16565b9050611b1d8282611b7a565b60125460408051858152602081018490526001600160a01b03851692917f01901b784b0a5a9753a8551528cb8faec83886f379113da512c80111edbc8860910160405180910390a350508080611b7290612647565b915050611ab8565b600080600080600085875af1905080610f215760405162461bcd60e51b815260206004820152601360248201527211551217d514905394d1915497d19052531151606a1b6044820152606401610926565b600954611be1906001600160a01b031647611b7a565b565b60606000611bf083611ef7565b600101905060008167ffffffffffffffff811115611c1057611c10612401565b6040519080825280601f01601f191660200182016040528015611c3a576020820181803683370190505b5090508181016020015b600019016f181899199a1a9b1b9c1cb0b131b232b360811b600a86061a8153600a8504945084611c4457509392505050565b60128054906000611c8683612647565b9190505550601154601354611c9b9190612634565b601355426010556000601181905560125460405190917f33a701182892fd888ed152ca2ac23771a32e814469b7cd255965471e1af3a65991a2565b611ce08282611fcf565b6001600160a01b0382163b1580611d865750604051630a85bd0160e11b80825233600483015260006024830181905260448301849052608060648401526084830152906001600160a01b0384169063150b7a029060a4016020604051808303816000875af1158015611d56573d6000803e3d6000fd5b505050506040513d601f19601f82011682018060405250810190611d7a919061259f565b6001600160e01b031916145b611da25760405162461bcd60e51b8152600401610926906125bc565b5050565b606060008263ffffffff1667ffffffffffffffff811115611dc957611dc9612401565b604051908082528060200260200182016040528015611df2578160200160208202803683370190505b5090508460005b8463ffffffff16811015611ebb57611e10826120da565b63ffffffff16915060008663ffffffff1683611e2c91906125e6565b611e37906001612634565b9050600160005b83811015611e815782868281518110611e5957611e59612608565b602002602001015103611e6f5760009150611e81565b80611e7981612647565b915050611e3e565b508015611eb45781858481518110611e9b57611e9b612608565b602090810291909101015282611eb081612647565b9350505b5050611df9565b509095945050505050565b6000611edb8383670de0b6b3a7640000612119565b9392505050565b6000611edb83670de0b6b3a764000084612119565b60008072184f03e93ff9f4daa797ed6e38ed64bf6a1f0160401b8310611f365772184f03e93ff9f4daa797ed6e38ed64bf6a1f0160401b830492506040015b6d04ee2d6d415b85acef81000000008310611f62576d04ee2d6d415b85acef8100000000830492506020015b662386f26fc100008310611f8057662386f26fc10000830492506010015b6305f5e1008310611f98576305f5e100830492506008015b6127108310611fac57612710830492506004015b60648310611fbe576064830492506002015b600a83106108105760010192915050565b6001600160a01b0382166120195760405162461bcd60e51b81526020600482015260116024820152701253959053125117d49150d25412515395607a1b6044820152606401610926565b6000818152600260205260409020546001600160a01b03161561206f5760405162461bcd60e51b815260206004820152600e60248201526d1053149150511657d3525395115160921b6044820152606401610926565b6001600160a01b038216600081815260036020908152604080832080546001019055848352600290915280822080546001600160a01b0319168417905551839291907fddf252ad1be2c89b69c2b068fc378daa952ba7f163c4a11628f55a4df523b3ef908290a45050565b60006405deece66d600b6601000000000000601081836120fa8887612859565b6121049190612634565b61210e91906125e6565b901c95945050505050565b600082600019048411830215820261213057600080fd5b5091020490565b82805482825590600052602060002090810192821561218c579160200282015b8281111561218c57825182546001600160a01b0319166001600160a01b03909116178255602090920191600190910190612157565b506121989291506121d7565b5090565b82805482825590600052602060002090810192821561218c579160200282015b8281111561218c5782518255916020019190600101906121bc565b5b8082111561219857600081556001016121d8565b6001600160e01b03198116811461220257600080fd5b50565b60006020828403121561221757600080fd5b8135611edb816121ec565b60005b8381101561223d578181015183820152602001612225565b50506000910152565b6020815260008251806020840152612265816040850160208701612222565b601f01601f19169190910160400192915050565b60006020828403121561228b57600080fd5b5035919050565b80356001600160a01b0381168114610f7857600080fd5b600080604083850312156122bc57600080fd5b6122c583612292565b946020939093013593505050565b6000602082840312156122e557600080fd5b611edb82612292565b60008060006060848603121561230357600080fd5b61230c84612292565b925061231a60208501612292565b9150604084013590509250925092565b6000806040838503121561233d57600080fd5b61234683612292565b91506020830135801515811461235b57600080fd5b809150509250929050565b60008060008060006080868803121561237e57600080fd5b61238786612292565b945061239560208701612292565b935060408601359250606086013567ffffffffffffffff808211156123b957600080fd5b818801915088601f8301126123cd57600080fd5b8135818111156123dc57600080fd5b8960208285010111156123ee57600080fd5b9699959850939650602001949392505050565b634e487b7160e01b600052604160045260246000fd5b6000602080838503121561242a57600080fd5b823567ffffffffffffffff8082111561244257600080fd5b818501915085601f83011261245657600080fd5b81358181111561246857612468612401565b8060051b604051601f19603f8301168101818110858211171561248d5761248d612401565b6040529182528482019250838101850191888311156124ab57600080fd5b938501935b828510156124c9578435845293850193928501926124b0565b98975050505050505050565b6020808252825182820181905260009190848201906040850190845b8181101561250d578351835292840192918401916001016124f1565b50909695505050505050565b6000806040838503121561252c57600080fd5b61253583612292565b915061254360208401612292565b90509250929050565b600181811c9082168061256057607f821691505b60208210810361258057634e487b7160e01b600052602260045260246000fd5b50919050565b60006020828403121561259857600080fd5b5051919050565b6000602082840312156125b157600080fd5b8151611edb816121ec565b60208082526010908201526f155394d0519157d49150d2541251539560821b604082015260600190565b60008261260357634e487b7160e01b600052601260045260246000fd5b500690565b634e487b7160e01b600052603260045260246000fd5b634e487b7160e01b600052601160045260246000fd5b808201808211156108105761081061261e565b6000600182016126595761265961261e565b5060010190565b6001600160a01b038681168252851660208201526040810184905260806060820181905281018290526000828460a0840137600060a0848401015260a0601f19601f85011683010190509695505050505050565b6020808252825482820181905260008481528281209092916040850190845b8181101561250d578354835260019384019392850192016126d3565b7f68747470733a2f2f64756d70696e6762616e646974732e63616e746f2e6c6966815265652f6e66742f60d01b602082015260008251612736816026850160208701612222565b9190910160260192915050565b6502937bab732160d51b815260008251612764816006850160208701612222565b70202d2045766572796f6e652077696e732160781b6006939091019283015250601701919050565b6502937bab732160d51b8152600082516127ad816006850160208701612222565b6e1016902234b2103737ba103bb4b71760891b6006939091019283015250601501919050565b6502937bab732160d51b8152600084516127f4816006850160208901612222565b6201016960ed1b6006918401918201528451612817816009840160208901612222565b602f60f81b60099290910191820152835161283981600a840160208801612222565b01600a0195945050505050565b818103818111156108105761081061261e565b80820281158282048414176108105761081061261e56fea2646970667358221220d2bd7846b28d1a54fdd63a8e58a53d3030d3fefca910c92dd1711288016c461a64736f6c63430008120033",
    "linkReferences": {}
  },
  "methodIdentifiers": {
    "approve(address,uint256)": "095ea7b3",
    "balanceOf(address)": "70a08231",
    "everyoneWinsProbability()": "be03d23d",
    "finalizeRound()": "1e820325",
    "finalizerReward()": "296af167",
    "getApproved(uint256)": "081812fc",
    "getOwnerTokenIds(address)": "e66b6000",
    "isApprovedForAll(address,address)": "e985e9c5",
    "lastRoundLastTokenId()": "4f183cc5",
    "minDuration()": "56715761",
    "name()": "06fdde03",
    "owner()": "8da5cb5b",
    "ownerOf(uint256)": "6352211e",
    "participate()": "d11711a2",
    "price()": "a035b1fe",
    "prizeRank(uint256)": "a6bd686b",
    "prizes(uint256)": "eccb3a4f",
    "rc()": "12f77332",
    "roundId()": "8cd221c9",
    "roundParticipants()": "d40dc869",
    "roundStartedAt()": "a16e56fc",
    "rounds(uint256)": "8c65c81f",
    "safeTransferFrom(address,address,uint256)": "42842e0e",
    "safeTransferFrom(address,address,uint256,bytes)": "b88d4fde",
    "setApprovalForAll(address,bool)": "a22cb465",
    "setEveryoneWinsProbability(uint256)": "f1816b1e",
    "setFinalizerReward(uint256)": "bba33931",
    "setMinDuration(uint256)": "1674bade",
    "setOwner(address)": "13af4035",
    "setPrice(uint256)": "91b7f5ed",
    "setPrizes(uint256[])": "c0f2165e",
    "setRandomnessClient(address)": "97811c4c",
    "setTreasury(address)": "f0f44260",
    "setTreasuryReserve(uint256)": "1ecd794f",
    "supportsInterface(bytes4)": "01ffc9a7",
    "symbol()": "95d89b41",
    "tokenIdRound(uint256)": "7b808ecc",
    "tokenInfo(uint256)": "cc33c875",
    "tokenURI(uint256)": "c87b56dd",
    "transferFrom(address,address,uint256)": "23b872dd",
    "treasury()": "61d027b3",
    "treasuryReserve()": "59297dbf"
  },
  "id": 25
}