{
  "abi": [
    {
      "inputs": [
        {
          "internalType": "address",
          "name": "_rc",
          "type": "address"
        }
      ],
      "stateMutability": "nonpayable",
      "type": "constructor"
    },
    {
      "inputs": [],
      "name": "ALREADY_PARTICIPATED",
      "type": "error"
    },
    {
      "inputs": [],
      "name": "CANT_FINALIZE_YET",
      "type": "error"
    },
    {
      "inputs": [],
      "name": "NOT_OWNER",
      "type": "error"
    },
    {
      "inputs": [],
      "name": "TOO_MANY",
      "type": "error"
    },
    {
      "inputs": [],
      "name": "TOO_MANY_PRIZES",
      "type": "error"
    },
    {
      "inputs": [],
      "name": "WRONG_PRICE",
      "type": "error"
    },
    {
      "inputs": [],
      "name": "ZERO_ADDRESS",
      "type": "error"
    },
    {
      "inputs": [],
      "name": "ZERO_WINNERS",
      "type": "error"
    },
    {
      "anonymous": false,
      "inputs": [
        {
          "indexed": true,
          "internalType": "address",
          "name": "owner",
          "type": "address"
        },
        {
          "indexed": true,
          "internalType": "address",
          "name": "spender",
          "type": "address"
        },
        {
          "indexed": true,
          "internalType": "uint256",
          "name": "id",
          "type": "uint256"
        }
      ],
      "name": "Approval",
      "type": "event"
    },
    {
      "anonymous": false,
      "inputs": [
        {
          "indexed": true,
          "internalType": "address",
          "name": "owner",
          "type": "address"
        },
        {
          "indexed": true,
          "internalType": "address",
          "name": "operator",
          "type": "address"
        },
        {
          "indexed": false,
          "internalType": "bool",
          "name": "approved",
          "type": "bool"
        }
      ],
      "name": "ApprovalForAll",
      "type": "event"
    },
    {
      "anonymous": false,
      "inputs": [
        {
          "indexed": true,
          "internalType": "uint256",
          "name": "roundId",
          "type": "uint256"
        },
        {
          "indexed": true,
          "internalType": "address",
          "name": "participant",
          "type": "address"
        },
        {
          "indexed": false,
          "internalType": "uint256",
          "name": "participantId",
          "type": "uint256"
        }
      ],
      "name": "ParticipantAdded",
      "type": "event"
    },
    {
      "anonymous": false,
      "inputs": [
        {
          "indexed": true,
          "internalType": "uint256",
          "name": "roundId",
          "type": "uint256"
        },
        {
          "indexed": true,
          "internalType": "address",
          "name": "participant",
          "type": "address"
        },
        {
          "indexed": false,
          "internalType": "uint256",
          "name": "amount",
          "type": "uint256"
        }
      ],
      "name": "Redistribution",
      "type": "event"
    },
    {
      "anonymous": false,
      "inputs": [
        {
          "indexed": true,
          "internalType": "uint256",
          "name": "roundId",
          "type": "uint256"
        },
        {
          "indexed": false,
          "internalType": "uint256",
          "name": "randomness",
          "type": "uint256"
        }
      ],
      "name": "RoundFinalized",
      "type": "event"
    },
    {
      "anonymous": false,
      "inputs": [
        {
          "indexed": true,
          "internalType": "uint256",
          "name": "roundId",
          "type": "uint256"
        }
      ],
      "name": "RoundStarted",
      "type": "event"
    },
    {
      "anonymous": false,
      "inputs": [
        {
          "indexed": false,
          "internalType": "uint256",
          "name": "finalizerReward",
          "type": "uint256"
        }
      ],
      "name": "SetFinalizerReward",
      "type": "event"
    },
    {
      "anonymous": false,
      "inputs": [
        {
          "indexed": false,
          "internalType": "uint256",
          "name": "minDuration",
          "type": "uint256"
        }
      ],
      "name": "SetMinDuration",
      "type": "event"
    },
    {
      "anonymous": false,
      "inputs": [
        {
          "indexed": false,
          "internalType": "uint256",
          "name": "noWinnerProbability",
          "type": "uint256"
        }
      ],
      "name": "SetNoWinnerProbability",
      "type": "event"
    },
    {
      "anonymous": false,
      "inputs": [
        {
          "indexed": false,
          "internalType": "address",
          "name": "owner",
          "type": "address"
        }
      ],
      "name": "SetOwner",
      "type": "event"
    },
    {
      "anonymous": false,
      "inputs": [
        {
          "indexed": false,
          "internalType": "uint256",
          "name": "price",
          "type": "uint256"
        }
      ],
      "name": "SetPrice",
      "type": "event"
    },
    {
      "anonymous": false,
      "inputs": [
        {
          "indexed": false,
          "internalType": "uint256[]",
          "name": "prizes",
          "type": "uint256[]"
        }
      ],
      "name": "SetPrizes",
      "type": "event"
    },
    {
      "anonymous": false,
      "inputs": [
        {
          "indexed": false,
          "internalType": "address",
          "name": "rc",
          "type": "address"
        }
      ],
      "name": "SetRandomnessClient",
      "type": "event"
    },
    {
      "anonymous": false,
      "inputs": [
        {
          "indexed": false,
          "internalType": "uint256",
          "name": "redistributionReserve",
          "type": "uint256"
        }
      ],
      "name": "SetRedistributionReserve",
      "type": "event"
    },
    {
      "anonymous": false,
      "inputs": [
        {
          "indexed": true,
          "internalType": "address",
          "name": "from",
          "type": "address"
        },
        {
          "indexed": true,
          "internalType": "address",
          "name": "to",
          "type": "address"
        },
        {
          "indexed": true,
          "internalType": "uint256",
          "name": "id",
          "type": "uint256"
        }
      ],
      "name": "Transfer",
      "type": "event"
    },
    {
      "anonymous": false,
      "inputs": [
        {
          "indexed": true,
          "internalType": "uint256",
          "name": "roundId",
          "type": "uint256"
        },
        {
          "indexed": true,
          "internalType": "address",
          "name": "participant",
          "type": "address"
        },
        {
          "indexed": false,
          "internalType": "uint256",
          "name": "prizeId",
          "type": "uint256"
        },
        {
          "indexed": false,
          "internalType": "uint256",
          "name": "prizeAmount",
          "type": "uint256"
        }
      ],
      "name": "WonPrize",
      "type": "event"
    },
    {
      "inputs": [
        {
          "internalType": "address",
          "name": "spender",
          "type": "address"
        },
        {
          "internalType": "uint256",
          "name": "id",
          "type": "uint256"
        }
      ],
      "name": "approve",
      "outputs": [],
      "stateMutability": "nonpayable",
      "type": "function"
    },
    {
      "inputs": [
        {
          "internalType": "address",
          "name": "owner",
          "type": "address"
        }
      ],
      "name": "balanceOf",
      "outputs": [
        {
          "internalType": "uint256",
          "name": "",
          "type": "uint256"
        }
      ],
      "stateMutability": "view",
      "type": "function"
    },
    {
      "inputs": [],
      "name": "defaultFinalizerReward",
      "outputs": [
        {
          "internalType": "uint256",
          "name": "",
          "type": "uint256"
        }
      ],
      "stateMutability": "view",
      "type": "function"
    },
    {
      "inputs": [],
      "name": "defaultMinDuration",
      "outputs": [
        {
          "internalType": "uint256",
          "name": "",
          "type": "uint256"
        }
      ],
      "stateMutability": "view",
      "type": "function"
    },
    {
      "inputs": [],
      "name": "defaultNoWinnerProbability",
      "outputs": [
        {
          "internalType": "uint256",
          "name": "",
          "type": "uint256"
        }
      ],
      "stateMutability": "view",
      "type": "function"
    },
    {
      "inputs": [],
      "name": "defaultPrice",
      "outputs": [
        {
          "internalType": "uint256",
          "name": "",
          "type": "uint256"
        }
      ],
      "stateMutability": "view",
      "type": "function"
    },
    {
      "inputs": [
        {
          "internalType": "uint256",
          "name": "",
          "type": "uint256"
        }
      ],
      "name": "defaultPrizes",
      "outputs": [
        {
          "internalType": "uint256",
          "name": "",
          "type": "uint256"
        }
      ],
      "stateMutability": "view",
      "type": "function"
    },
    {
      "inputs": [],
      "name": "defaultRedistributionReserve",
      "outputs": [
        {
          "internalType": "uint256",
          "name": "",
          "type": "uint256"
        }
      ],
      "stateMutability": "view",
      "type": "function"
    },
    {
      "inputs": [],
      "name": "finalizeRound",
      "outputs": [],
      "stateMutability": "nonpayable",
      "type": "function"
    },
    {
      "inputs": [
        {
          "internalType": "uint256",
          "name": "",
          "type": "uint256"
        }
      ],
      "name": "getApproved",
      "outputs": [
        {
          "internalType": "address",
          "name": "",
          "type": "address"
        }
      ],
      "stateMutability": "view",
      "type": "function"
    },
    {
      "inputs": [
        {
          "internalType": "uint256",
          "name": "",
          "type": "uint256"
        },
        {
          "internalType": "uint256",
          "name": "",
          "type": "uint256"
        }
      ],
      "name": "idParticipants",
      "outputs": [
        {
          "internalType": "address",
          "name": "",
          "type": "address"
        }
      ],
      "stateMutability": "view",
      "type": "function"
    },
    {
      "inputs": [
        {
          "internalType": "address",
          "name": "",
          "type": "address"
        },
        {
          "internalType": "address",
          "name": "",
          "type": "address"
        }
      ],
      "name": "isApprovedForAll",
      "outputs": [
        {
          "internalType": "bool",
          "name": "",
          "type": "bool"
        }
      ],
      "stateMutability": "view",
      "type": "function"
    },
    {
      "inputs": [
        {
          "internalType": "uint256",
          "name": "_tokenId",
          "type": "uint256"
        }
      ],
      "name": "lookupId",
      "outputs": [
        {
          "internalType": "uint256",
          "name": "",
          "type": "uint256"
        },
        {
          "internalType": "uint256",
          "name": "",
          "type": "uint256"
        }
      ],
      "stateMutability": "view",
      "type": "function"
    },
    {
      "inputs": [
        {
          "internalType": "uint256",
          "name": "_tokenId",
          "type": "uint256"
        }
      ],
      "name": "lookupPrize",
      "outputs": [
        {
          "internalType": "uint256",
          "name": "",
          "type": "uint256"
        },
        {
          "internalType": "uint256",
          "name": "",
          "type": "uint256"
        },
        {
          "internalType": "uint256",
          "name": "",
          "type": "uint256"
        },
        {
          "internalType": "bool",
          "name": "",
          "type": "bool"
        }
      ],
      "stateMutability": "view",
      "type": "function"
    },
    {
      "inputs": [],
      "name": "name",
      "outputs": [
        {
          "internalType": "string",
          "name": "",
          "type": "string"
        }
      ],
      "stateMutability": "view",
      "type": "function"
    },
    {
      "inputs": [],
      "name": "nextTokenId",
      "outputs": [
        {
          "internalType": "uint256",
          "name": "",
          "type": "uint256"
        }
      ],
      "stateMutability": "view",
      "type": "function"
    },
    {
      "inputs": [],
      "name": "owner",
      "outputs": [
        {
          "internalType": "address",
          "name": "",
          "type": "address"
        }
      ],
      "stateMutability": "view",
      "type": "function"
    },
    {
      "inputs": [
        {
          "internalType": "uint256",
          "name": "id",
          "type": "uint256"
        }
      ],
      "name": "ownerOf",
      "outputs": [
        {
          "internalType": "address",
          "name": "owner",
          "type": "address"
        }
      ],
      "stateMutability": "view",
      "type": "function"
    },
    {
      "inputs": [
        {
          "internalType": "uint256",
          "name": "",
          "type": "uint256"
        },
        {
          "internalType": "address",
          "name": "",
          "type": "address"
        }
      ],
      "name": "participantIds",
      "outputs": [
        {
          "internalType": "uint256",
          "name": "",
          "type": "uint256"
        }
      ],
      "stateMutability": "view",
      "type": "function"
    },
    {
      "inputs": [],
      "name": "participate",
      "outputs": [],
      "stateMutability": "payable",
      "type": "function"
    },
    {
      "inputs": [],
      "name": "rc",
      "outputs": [
        {
          "internalType": "contract IRandomnessClient",
          "name": "",
          "type": "address"
        }
      ],
      "stateMutability": "view",
      "type": "function"
    },
    {
      "inputs": [],
      "name": "roundId",
      "outputs": [
        {
          "internalType": "uint256",
          "name": "",
          "type": "uint256"
        }
      ],
      "stateMutability": "view",
      "type": "function"
    },
    {
      "inputs": [
        {
          "internalType": "uint256",
          "name": "",
          "type": "uint256"
        }
      ],
      "name": "rounds",
      "outputs": [
        {
          "internalType": "uint256",
          "name": "roundStartedAt",
          "type": "uint256"
        },
        {
          "internalType": "uint256",
          "name": "totalParticipants",
          "type": "uint256"
        },
        {
          "internalType": "uint256",
          "name": "price",
          "type": "uint256"
        },
        {
          "internalType": "uint256",
          "name": "minDuration",
          "type": "uint256"
        },
        {
          "internalType": "uint256",
          "name": "noWinnerProbability",
          "type": "uint256"
        },
        {
          "internalType": "uint256",
          "name": "finalizerReward",
          "type": "uint256"
        },
        {
          "internalType": "uint256",
          "name": "redistributionReserve",
          "type": "uint256"
        },
        {
          "internalType": "uint256",
          "name": "randomness",
          "type": "uint256"
        }
      ],
      "stateMutability": "view",
      "type": "function"
    },
    {
      "inputs": [
        {
          "internalType": "address",
          "name": "from",
          "type": "address"
        },
        {
          "internalType": "address",
          "name": "to",
          "type": "address"
        },
        {
          "internalType": "uint256",
          "name": "id",
          "type": "uint256"
        }
      ],
      "name": "safeTransferFrom",
      "outputs": [],
      "stateMutability": "nonpayable",
      "type": "function"
    },
    {
      "inputs": [
        {
          "internalType": "address",
          "name": "from",
          "type": "address"
        },
        {
          "internalType": "address",
          "name": "to",
          "type": "address"
        },
        {
          "internalType": "uint256",
          "name": "id",
          "type": "uint256"
        },
        {
          "internalType": "bytes",
          "name": "data",
          "type": "bytes"
        }
      ],
      "name": "safeTransferFrom",
      "outputs": [],
      "stateMutability": "nonpayable",
      "type": "function"
    },
    {
      "inputs": [
        {
          "internalType": "address",
          "name": "operator",
          "type": "address"
        },
        {
          "internalType": "bool",
          "name": "approved",
          "type": "bool"
        }
      ],
      "name": "setApprovalForAll",
      "outputs": [],
      "stateMutability": "nonpayable",
      "type": "function"
    },
    {
      "inputs": [
        {
          "internalType": "uint256",
          "name": "_finalizerReward",
          "type": "uint256"
        }
      ],
      "name": "setFinalizerReward",
      "outputs": [],
      "stateMutability": "nonpayable",
      "type": "function"
    },
    {
      "inputs": [
        {
          "internalType": "uint256",
          "name": "_minDuration",
          "type": "uint256"
        }
      ],
      "name": "setMinDuration",
      "outputs": [],
      "stateMutability": "nonpayable",
      "type": "function"
    },
    {
      "inputs": [
        {
          "internalType": "uint256",
          "name": "_noWinnerProbability",
          "type": "uint256"
        }
      ],
      "name": "setNoWinnerProbability",
      "outputs": [],
      "stateMutability": "nonpayable",
      "type": "function"
    },
    {
      "inputs": [
        {
          "internalType": "address",
          "name": "_owner",
          "type": "address"
        }
      ],
      "name": "setOwner",
      "outputs": [],
      "stateMutability": "nonpayable",
      "type": "function"
    },
    {
      "inputs": [
        {
          "internalType": "uint256",
          "name": "_price",
          "type": "uint256"
        }
      ],
      "name": "setPrice",
      "outputs": [],
      "stateMutability": "nonpayable",
      "type": "function"
    },
    {
      "inputs": [
        {
          "internalType": "uint256[]",
          "name": "_prizes",
          "type": "uint256[]"
        }
      ],
      "name": "setPrizes",
      "outputs": [],
      "stateMutability": "nonpayable",
      "type": "function"
    },
    {
      "inputs": [
        {
          "internalType": "address",
          "name": "_rc",
          "type": "address"
        }
      ],
      "name": "setRandomnessClient",
      "outputs": [],
      "stateMutability": "nonpayable",
      "type": "function"
    },
    {
      "inputs": [
        {
          "internalType": "uint256",
          "name": "_redistributionReserve",
          "type": "uint256"
        }
      ],
      "name": "setRedistributionReserve",
      "outputs": [],
      "stateMutability": "nonpayable",
      "type": "function"
    },
    {
      "inputs": [
        {
          "internalType": "bytes4",
          "name": "interfaceId",
          "type": "bytes4"
        }
      ],
      "name": "supportsInterface",
      "outputs": [
        {
          "internalType": "bool",
          "name": "",
          "type": "bool"
        }
      ],
      "stateMutability": "view",
      "type": "function"
    },
    {
      "inputs": [],
      "name": "symbol",
      "outputs": [
        {
          "internalType": "string",
          "name": "",
          "type": "string"
        }
      ],
      "stateMutability": "view",
      "type": "function"
    },
    {
      "inputs": [
        {
          "internalType": "uint256",
          "name": "id",
          "type": "uint256"
        }
      ],
      "name": "tokenURI",
      "outputs": [
        {
          "internalType": "string",
          "name": "",
          "type": "string"
        }
      ],
      "stateMutability": "pure",
      "type": "function"
    },
    {
      "inputs": [
        {
          "internalType": "address",
          "name": "from",
          "type": "address"
        },
        {
          "internalType": "address",
          "name": "to",
          "type": "address"
        },
        {
          "internalType": "uint256",
          "name": "id",
          "type": "uint256"
        }
      ],
      "name": "transferFrom",
      "outputs": [],
      "stateMutability": "nonpayable",
      "type": "function"
    }
  ],
  "bytecode": {
    "object": "0x6001600655678ac7230489e80000600955610384600a5564e8d4a51000600b5560e060405267058d15e17628000060809081526703782dace9d9000060a052670214e8348c4f000060c0526200005a90600c90600362000172565b50678ac7230489e80000600d5566470de4df820000600e556000600f5560006010553480156200008957600080fd5b5060405162002bba38038062002bba833981016040819052620000ac91620001e4565b6040518060400160405280600f81526020016e44756d70696e672042616e6469747360881b8152506040518060400160405280600681526020016510905391125560d21b8152508160009081620001049190620002bb565b506001620001138282620002bb565b5050506001600160a01b0381166200013e5760405163538ba4f960e01b815260040160405180910390fd5b60078054336001600160a01b031991821617909155600880549091166001600160a01b039290921691909117905562000387565b828054828255906000526020600020908101928215620001bb579160200282015b82811115620001bb57825182906001600160401b031690559160200191906001019062000193565b50620001c9929150620001cd565b5090565b5b80821115620001c95760008155600101620001ce565b600060208284031215620001f757600080fd5b81516001600160a01b03811681146200020f57600080fd5b9392505050565b634e487b7160e01b600052604160045260246000fd5b600181811c908216806200024157607f821691505b6020821081036200026257634e487b7160e01b600052602260045260246000fd5b50919050565b601f821115620002b657600081815260208120601f850160051c81016020861015620002915750805b601f850160051c820191505b81811015620002b2578281556001016200029d565b5050505b505050565b81516001600160401b03811115620002d757620002d762000216565b620002ef81620002e884546200022c565b8462000268565b602080601f8311600181146200032757600084156200030e5750858301515b600019600386901b1c1916600185901b178555620002b2565b600085815260208120601f198616915b82811015620003585788860151825594840194600190910190840162000337565b5085821015620003775787850151600019600388901b60f8161c191681555b5050505050600190811b01905550565b61282380620003976000396000f3fe6080604052600436106102255760003560e01c80638da5cb5b11610123578063bba33931116100ab578063dba910991161006f578063dba9109914610707578063e69e04b314610727578063e736e9a61461073d578063e92a845e14610753578063e985e9c51461079457600080fd5b8063bba3393114610667578063c0f2165e14610687578063c87b56dd146106a7578063cf630098146106c7578063d11711a2146106ff57600080fd5b806397811c4c116100f257806397811c4c146105bc578063a18d3fcd146105dc578063a22cb465146105f2578063aeb0717f14610612578063b88d4fde1461064757600080fd5b80638da5cb5b1461055157806390456d1d1461057157806391b7f5ed1461058757806395d89b41146105a757600080fd5b80631e820325116101b15780636352211e116101755780636352211e1461044c57806370a082311461046c57806375794a3c1461048c5780638c65c81f146104a25780638cd221c91461053b57600080fd5b80631e820325146103c157806323b872dd146103d65780633e2ab598146103f657806342842e0e1461040c57806354e5cd261461042c57600080fd5b806312f77332116101f857806312f77332146102f157806313af40351461031157806314141dfa146103315780631674bade146103735780631a11dc241461039357600080fd5b806301ffc9a71461022a57806306fdde031461025f578063081812fc14610281578063095ea7b3146102cf575b600080fd5b34801561023657600080fd5b5061024a61024536600461227b565b6107cf565b60405190151581526020015b60405180910390f35b34801561026b57600080fd5b50610274610821565b60405161025691906122bc565b34801561028d57600080fd5b506102b761029c3660046122ef565b6004602052600090815260409020546001600160a01b031681565b6040516001600160a01b039091168152602001610256565b3480156102db57600080fd5b506102ef6102ea36600461231f565b6108af565b005b3480156102fd57600080fd5b506008546102b7906001600160a01b031681565b34801561031d57600080fd5b506102ef61032c366004612349565b610996565b34801561033d57600080fd5b5061035161034c3660046122ef565b610a16565b6040805194855260208501939093529183015215156060820152608001610256565b34801561037f57600080fd5b506102ef61038e3660046122ef565b610bcf565b34801561039f57600080fd5b506103b36103ae3660046122ef565b610c2f565b604051908152602001610256565b3480156103cd57600080fd5b506102ef610c50565b3480156103e257600080fd5b506102ef6103f1366004612364565b610ddc565b34801561040257600080fd5b506103b3600b5481565b34801561041857600080fd5b506102ef610427366004612364565b610fa3565b34801561043857600080fd5b506102ef6104473660046122ef565b611078565b34801561045857600080fd5b506102b76104673660046122ef565b6110d8565b34801561047857600080fd5b506103b3610487366004612349565b61112f565b34801561049857600080fd5b506103b360105481565b3480156104ae57600080fd5b506105006104bd3660046122ef565b6011602052600090815260409020805460018201546002830154600384015460048501546006860154600787015460089097015495969495939492939192909188565b604080519889526020890197909752958701949094526060860192909252608085015260a084015260c083015260e082015261010001610256565b34801561054757600080fd5b506103b3600f5481565b34801561055d57600080fd5b506007546102b7906001600160a01b031681565b34801561057d57600080fd5b506103b3600d5481565b34801561059357600080fd5b506102ef6105a23660046122ef565b611192565b3480156105b357600080fd5b506102746111f2565b3480156105c857600080fd5b506102ef6105d7366004612349565b6111ff565b3480156105e857600080fd5b506103b3600e5481565b3480156105fe57600080fd5b506102ef61060d3660046123a0565b61129f565b34801561061e57600080fd5b5061063261062d3660046122ef565b61130b565b60408051928352602083019190915201610256565b34801561065357600080fd5b506102ef6106623660046123dc565b611386565b34801561067357600080fd5b506102ef6106823660046122ef565b61144b565b34801561069357600080fd5b506102ef6106a236600461248d565b6114ab565b3480156106b357600080fd5b506102746106c23660046122ef565b6115f6565b3480156106d357600080fd5b506103b36106e236600461254b565b601260209081526000928352604080842090915290825290205481565b6102ef611627565b34801561071357600080fd5b506102ef6107223660046122ef565b6117e2565b34801561073357600080fd5b506103b360095481565b34801561074957600080fd5b506103b3600a5481565b34801561075f57600080fd5b506102b761076e366004612577565b60136020908152600092835260408084209091529082529020546001600160a01b031681565b3480156107a057600080fd5b5061024a6107af366004612599565b600560209081526000928352604080842090915290825290205460ff1681565b60006301ffc9a760e01b6001600160e01b03198316148061080057506380ac58cd60e01b6001600160e01b03198316145b8061081b5750635b5e139f60e01b6001600160e01b03198316145b92915050565b6000805461082e906125c3565b80601f016020809104026020016040519081016040528092919081815260200182805461085a906125c3565b80156108a75780601f1061087c576101008083540402835291602001916108a7565b820191906000526020600020905b81548152906001019060200180831161088a57829003601f168201915b505050505081565b6000818152600260205260409020546001600160a01b0316338114806108f857506001600160a01b038116600090815260056020908152604080832033845290915290205460ff165b61093a5760405162461bcd60e51b815260206004820152600e60248201526d1393d517d055551213d49256915160921b60448201526064015b60405180910390fd5b60008281526004602052604080822080546001600160a01b0319166001600160a01b0387811691821790925591518593918516917f8c5be1e5ebec7d5bd14f71427d1e84f3dd0314c0f7b2291e5b200ac8c7c3b92591a4505050565b6007546001600160a01b031633146109c1576040516338ebc58960e11b815260040160405180910390fd5b600780546001600160a01b0319166001600160a01b0383169081179091556040519081527f167d3e9c1016ab80e58802ca9da10ce5c6a0f4debc46a2e7a2cd9e56899a4fb5906020015b60405180910390a150565b600080600080600080610a288761130b565b600082815260116020908152604080832081516101208101835281548152600182015481850152600282015481840152600382015460608201526004820154608082015260058201805484518187028101870190955280855297995095975093959394909360a0860193830182828015610ac157602002820191906000526020600020905b815481526020019060010190808311610aad575b50505050508152602001600682015481526020016007820154815260200160088201548152505090506000610afa826101000151611842565b90506000805b8251811015610b4d5784838281518110610b1c57610b1c6125fd565b602002602001015103610b3b57610b34816001612629565b9150610b4d565b80610b458161263c565b915050610b00565b5080600003610b6f576000806000600198509850985098505050505050610bc8565b60a0830151600090610b82600184612655565b81518110610b9257610b926125fd565b602002602001015190506000610bb58286604001516118b890919063ffffffff16565b929a509098509096506000955050505050505b9193509193565b6007546001600160a01b03163314610bfa576040516338ebc58960e11b815260040160405180910390fd5b600a8190556040518181527f7eded2c549bae9a064369318a940074f1c91f965cc3f7aed87ea7dba1c150c0c90602001610a0b565b600c8181548110610c3f57600080fd5b600091825260209091200154905081565b610c586118d4565b610c7557604051630fc2437760e11b815260040160405180910390fd5b600654600114610cb45760405162461bcd60e51b815260206004820152600a6024820152695245454e5452414e435960b01b6044820152606401610931565b6002600655600854604080516355573dc360e11b815290516000926001600160a01b03169163aaae7b869160048083019260209291908290030181865afa158015610d03573d6000803e3d6000fd5b505050506040513d601f19601f82011682018060405250810190610d279190612668565b600f546000908152601160205260408120600801829055909150610d4a82611842565b90508051600003610d6257610d5d61191a565b610d6b565b610d6b81611a19565b600f54600090815260116020526040902060060154610d8b903390611b4a565b610d93611b9b565b600f546040518381527f2b034c48d6d3c5fa40da8afd25e88ee8ad074a546e1a3f05a860c6106b99b82b9060200160405180910390a25050600f80546001908101909155600655565b6000818152600260205260409020546001600160a01b03848116911614610e325760405162461bcd60e51b815260206004820152600a60248201526957524f4e475f46524f4d60b01b6044820152606401610931565b6001600160a01b038216610e7c5760405162461bcd60e51b81526020600482015260116024820152701253959053125117d49150d25412515395607a1b6044820152606401610931565b336001600160a01b0384161480610eb657506001600160a01b038316600090815260056020908152604080832033845290915290205460ff165b80610ed757506000818152600460205260409020546001600160a01b031633145b610f145760405162461bcd60e51b815260206004820152600e60248201526d1393d517d055551213d49256915160921b6044820152606401610931565b6001600160a01b0380841660008181526003602090815260408083208054600019019055938616808352848320805460010190558583526002825284832080546001600160a01b03199081168317909155600490925284832080549092169091559251849392917fddf252ad1be2c89b69c2b068fc378daa952ba7f163c4a11628f55a4df523b3ef91a4505050565b610fae838383610ddc565b6001600160a01b0382163b15806110575750604051630a85bd0160e11b8082523360048301526001600160a01b03858116602484015260448301849052608060648401526000608484015290919084169063150b7a029060a4016020604051808303816000875af1158015611027573d6000803e3d6000fd5b505050506040513d601f19601f8201168201806040525081019061104b9190612681565b6001600160e01b031916145b6110735760405162461bcd60e51b81526004016109319061269e565b505050565b6007546001600160a01b031633146110a3576040516338ebc58960e11b815260040160405180910390fd5b600b8190556040518181527feb3b53ef4835985447c0c5849c726f3e163685692434313c6dcded17425318b690602001610a0b565b6000818152600260205260409020546001600160a01b03168061112a5760405162461bcd60e51b815260206004820152600a6024820152691393d517d3525395115160b21b6044820152606401610931565b919050565b60006001600160a01b0382166111765760405162461bcd60e51b815260206004820152600c60248201526b5a45524f5f4144445245535360a01b6044820152606401610931565b506001600160a01b031660009081526003602052604090205490565b6007546001600160a01b031633146111bd576040516338ebc58960e11b815260040160405180910390fd5b60098190556040518181527f4f5539c0409dfc4cb06f64cbd31237e1fbfe443f531584bf4dd77ec7fc5ba7b190602001610a0b565b6001805461082e906125c3565b6007546001600160a01b0316331461122a576040516338ebc58960e11b815260040160405180910390fd5b6001600160a01b0381166112515760405163538ba4f960e01b815260040160405180910390fd5b600880546001600160a01b0319166001600160a01b0383169081179091556040519081527f240d8bf6972a9e438d69cd9b1c79a0414806127b38f7b84dd65168e180ad22bc90602001610a0b565b3360008181526005602090815260408083206001600160a01b03871680855290835292819020805460ff191686151590811790915590519081529192917f17307eab39ab6107e8899845ad3d59bd9653f200f220920489ca2b5937696c31910160405180910390a35050565b6000806000805b84821015611339576000818152601160205260409020600190810154929092019101611312565b611344600182612655565b8260116000611354600186612655565b815260200190815260200160002060010154876113719190612629565b61137b9190612655565b935093505050915091565b611391858585610ddc565b6001600160a01b0384163b15806114285750604051630a85bd0160e11b808252906001600160a01b0386169063150b7a02906113d99033908a908990899089906004016126c8565b6020604051808303816000875af11580156113f8573d6000803e3d6000fd5b505050506040513d601f19601f8201168201806040525081019061141c9190612681565b6001600160e01b031916145b6114445760405162461bcd60e51b81526004016109319061269e565b5050505050565b6007546001600160a01b03163314611476576040516338ebc58960e11b815260040160405180910390fd5b600d8190556040518181527f3e7248ce6e198f34feb7985860c18db7c24b8bfd1694296e521204548b0fbb0c90602001610a0b565b6007546001600160a01b031633146114d6576040516338ebc58960e11b815260040160405180910390fd5b80516000036114f85760405163a75f8d3560e01b815260040160405180910390fd5b805163ffffffff1161151d576040516328592ca560e11b815260040160405180910390fd5b6000805b82518110156115635782818151811061153c5761153c6125fd565b60200260200101518261154f9190612629565b91508061155b8161263c565b915050611521565b50670de0b6b3a7640000600e54600d548361157e9190612629565b6115889190612629565b11156115a757604051631648186960e31b815260040160405180910390fd5b81516115ba90600c906020850190612202565b507fc1053cca128bc27ed92cf297a3b9d6eaab9a735abd9f97861d4fbde40b985b53826040516115ea919061271c565b60405180910390a15050565b606061160182611bd9565b6040516020016116119190612760565b6040516020818303038152906040529050919050565b6006546001146116665760405162461bcd60e51b815260206004820152600a6024820152695245454e5452414e435960b01b6044820152606401610931565b60026006819055600f5460009081526011602052604090200154341461169f57604051631da0f5f960e21b815260040160405180910390fd5b600f546000908152601260209081526040808320338452909152902054156116da576040516311c7923f60e01b815260040160405180910390fd5b600f5460009081526011602052604090206001015463fffffffe1901611713576040516328592ca560e11b815260040160405180910390fd5b600f5460009081526011602052604090205461173157611731611c6c565b61173d33601054611dc1565b600f80546000908152601160209081526040808320600190810180548201905560108054820190558454845281842001546012835281842033808652908452828520829055855485526013845282852082865284529382902080546001600160a01b031916851790559354905184815290917f4458602c75f7945f69e6a982b698a0ba5068f2ae7324e34dac6ef89360380e2b910160405180910390a3506001600655565b6007546001600160a01b0316331461180d576040516338ebc58960e11b815260040160405180910390fd5b600e8190556040518181527f2a192b4661a277773a99a8f8b74a2b4cbf445983952b7959874ce5dbe4cab90e90602001610a0b565b600f5460009081526011602052604090206004015460609061186c670de0b6b3a7640000846127b4565b101561188657505060408051600081526020810190915290565b600f546000908152601160205260408120600581015460019091015490916118af858385611e8d565b95945050505050565b60006118cd8383670de0b6b3a7640000611fad565b9392505050565b600f54600090815260116020526040812054151580156119155750600f546000908152601160205260409020600381015490546119119190612629565b4210155b905090565b600f5460009081526011602052604081206001810154600282015460069092015490929061195a61195385670de0b6b3a76400006127d6565b84906118b8565b6119649190612655565b9050600061198461197d85670de0b6b3a76400006127d6565b8390611fcb565b905060015b84811161144457600f5460009081526013602090815260408083208484529091529020546001600160a01b03166119c08184611b4a565b806001600160a01b0316600f547fae718d5005a53e2ce03ae49ffa0750b76ada9a2309cf05356a2ec06ba13a9265856040516119fe91815260200190565b60405180910390a35080611a118161263c565b915050611989565b600f54600090815260116020526040812060060154611a389047612655565b905060005b825181101561107357600f54600090815260136020526040812084518290869085908110611a6d57611a6d6125fd565b6020026020010151815260200190815260200160002060009054906101000a90046001600160a01b031690506000611ae160116000600f5481526020019081526020016000206005018481548110611ac757611ac76125fd565b9060005260206000200154856118b890919063ffffffff16565b9050611aed8282611b4a565b600f5460408051858152602081018490526001600160a01b03851692917f01901b784b0a5a9753a8551528cb8faec83886f379113da512c80111edbc8860910160405180910390a350508080611b429061263c565b915050611a3d565b600080600080600085875af19050806110735760405162461bcd60e51b815260206004820152601360248201527211551217d514905394d1915497d19052531151606a1b6044820152606401610931565b600f54600090815260116020526040812060070154611bba90476118b8565b90506000611bc88247612655565b9050611bd5600082611b4a565b5050565b60606000611be683611fe0565b600101905060008167ffffffffffffffff811115611c0657611c06612477565b6040519080825280601f01601f191660200182016040528015611c30576020820181803683370190505b5090508181016020015b600019016f181899199a1a9b1b9c1cb0b131b232b360811b600a86061a8153600a8504945084611c3a57509392505050565b6000604051806101200160405280428152602001600081526020016009548152602001600a548152602001600b548152602001600c805480602002602001604051908101604052809291908181526020018280548015611ceb57602002820191906000526020600020905b815481526020019060010190808311611cd7575b50505050508152602001600d548152602001600e548152602001600081525090508060116000600f548152602001908152602001600020600082015181600001556020820151816001015560408201518160020155606082015181600301556080820151816004015560a0820151816005019080519060200190611d70929190612202565b5060c0820151600682015560e0820151600782015561010090910151600890910155600f546040517f33a701182892fd888ed152ca2ac23771a32e814469b7cd255965471e1af3a65990600090a250565b611dcb82826120b8565b6001600160a01b0382163b1580611e715750604051630a85bd0160e11b80825233600483015260006024830181905260448301849052608060648401526084830152906001600160a01b0384169063150b7a029060a4016020604051808303816000875af1158015611e41573d6000803e3d6000fd5b505050506040513d601f19601f82011682018060405250810190611e659190612681565b6001600160e01b031916145b611bd55760405162461bcd60e51b81526004016109319061269e565b606060008263ffffffff1667ffffffffffffffff811115611eb057611eb0612477565b604051908082528060200260200182016040528015611ed9578160200160208202803683370190505b5090508460005b8463ffffffff16811015611fa257611ef7826121c3565b63ffffffff16915060008663ffffffff1683611f1391906127b4565b611f1e906001612629565b9050600160005b83811015611f685782868281518110611f4057611f406125fd565b602002602001015103611f565760009150611f68565b80611f608161263c565b915050611f25565b508015611f9b5781858481518110611f8257611f826125fd565b602090810291909101015282611f978161263c565b9350505b5050611ee0565b509095945050505050565b6000826000190484118302158202611fc457600080fd5b5091020490565b60006118cd83670de0b6b3a764000084611fad565b60008072184f03e93ff9f4daa797ed6e38ed64bf6a1f0160401b831061201f5772184f03e93ff9f4daa797ed6e38ed64bf6a1f0160401b830492506040015b6d04ee2d6d415b85acef8100000000831061204b576d04ee2d6d415b85acef8100000000830492506020015b662386f26fc10000831061206957662386f26fc10000830492506010015b6305f5e1008310612081576305f5e100830492506008015b612710831061209557612710830492506004015b606483106120a7576064830492506002015b600a831061081b5760010192915050565b6001600160a01b0382166121025760405162461bcd60e51b81526020600482015260116024820152701253959053125117d49150d25412515395607a1b6044820152606401610931565b6000818152600260205260409020546001600160a01b0316156121585760405162461bcd60e51b815260206004820152600e60248201526d1053149150511657d3525395115160921b6044820152606401610931565b6001600160a01b038216600081815260036020908152604080832080546001019055848352600290915280822080546001600160a01b0319168417905551839291907fddf252ad1be2c89b69c2b068fc378daa952ba7f163c4a11628f55a4df523b3ef908290a45050565b60006405deece66d600b6601000000000000601081836121e388876127d6565b6121ed9190612629565b6121f791906127b4565b901c95945050505050565b82805482825590600052602060002090810192821561223d579160200282015b8281111561223d578251825591602001919060010190612222565b5061224992915061224d565b5090565b5b80821115612249576000815560010161224e565b6001600160e01b03198116811461227857600080fd5b50565b60006020828403121561228d57600080fd5b81356118cd81612262565b60005b838110156122b357818101518382015260200161229b565b50506000910152565b60208152600082518060208401526122db816040850160208701612298565b601f01601f19169190910160400192915050565b60006020828403121561230157600080fd5b5035919050565b80356001600160a01b038116811461112a57600080fd5b6000806040838503121561233257600080fd5b61233b83612308565b946020939093013593505050565b60006020828403121561235b57600080fd5b6118cd82612308565b60008060006060848603121561237957600080fd5b61238284612308565b925061239060208501612308565b9150604084013590509250925092565b600080604083850312156123b357600080fd5b6123bc83612308565b9150602083013580151581146123d157600080fd5b809150509250929050565b6000806000806000608086880312156123f457600080fd5b6123fd86612308565b945061240b60208701612308565b935060408601359250606086013567ffffffffffffffff8082111561242f57600080fd5b818801915088601f83011261244357600080fd5b81358181111561245257600080fd5b89602082850101111561246457600080fd5b9699959850939650602001949392505050565b634e487b7160e01b600052604160045260246000fd5b600060208083850312156124a057600080fd5b823567ffffffffffffffff808211156124b857600080fd5b818501915085601f8301126124cc57600080fd5b8135818111156124de576124de612477565b8060051b604051601f19603f8301168101818110858211171561250357612503612477565b60405291825284820192508381018501918883111561252157600080fd5b938501935b8285101561253f57843584529385019392850192612526565b98975050505050505050565b6000806040838503121561255e57600080fd5b8235915061256e60208401612308565b90509250929050565b6000806040838503121561258a57600080fd5b50508035926020909101359150565b600080604083850312156125ac57600080fd5b6125b583612308565b915061256e60208401612308565b600181811c908216806125d757607f821691505b6020821081036125f757634e487b7160e01b600052602260045260246000fd5b50919050565b634e487b7160e01b600052603260045260246000fd5b634e487b7160e01b600052601160045260246000fd5b8082018082111561081b5761081b612613565b60006001820161264e5761264e612613565b5060010190565b8181038181111561081b5761081b612613565b60006020828403121561267a57600080fd5b5051919050565b60006020828403121561269357600080fd5b81516118cd81612262565b60208082526010908201526f155394d0519157d49150d2541251539560821b604082015260600190565b6001600160a01b038681168252851660208201526040810184905260806060820181905281018290526000828460a0840137600060a0848401015260a0601f19601f85011683010190509695505050505050565b6020808252825182820181905260009190848201906040850190845b8181101561275457835183529284019291840191600101612738565b50909695505050505050565b7f68747470733a2f2f64756d70696e6762616e646974732e63616e746f2e6c6966815265652f6e66742f60d01b6020820152600082516127a7816026850160208701612298565b9190910160260192915050565b6000826127d157634e487b7160e01b600052601260045260246000fd5b500690565b808202811582820484141761081b5761081b61261356fea2646970667358221220a335a654a3db16014c34e61d907b815bede58d0b59f6d41a55100f7c4262d71a64736f6c63430008120033",
    "linkReferences": {}
  },
  "methodIdentifiers": {
    "approve(address,uint256)": "095ea7b3",
    "balanceOf(address)": "70a08231",
    "defaultFinalizerReward()": "90456d1d",
    "defaultMinDuration()": "e736e9a6",
    "defaultNoWinnerProbability()": "3e2ab598",
    "defaultPrice()": "e69e04b3",
    "defaultPrizes(uint256)": "1a11dc24",
    "defaultRedistributionReserve()": "a18d3fcd",
    "finalizeRound()": "1e820325",
    "getApproved(uint256)": "081812fc",
    "idParticipants(uint256,uint256)": "e92a845e",
    "isApprovedForAll(address,address)": "e985e9c5",
    "lookupId(uint256)": "aeb0717f",
    "lookupPrize(uint256)": "14141dfa",
    "name()": "06fdde03",
    "nextTokenId()": "75794a3c",
    "owner()": "8da5cb5b",
    "ownerOf(uint256)": "6352211e",
    "participantIds(uint256,address)": "cf630098",
    "participate()": "d11711a2",
    "rc()": "12f77332",
    "roundId()": "8cd221c9",
    "rounds(uint256)": "8c65c81f",
    "safeTransferFrom(address,address,uint256)": "42842e0e",
    "safeTransferFrom(address,address,uint256,bytes)": "b88d4fde",
    "setApprovalForAll(address,bool)": "a22cb465",
    "setFinalizerReward(uint256)": "bba33931",
    "setMinDuration(uint256)": "1674bade",
    "setNoWinnerProbability(uint256)": "54e5cd26",
    "setOwner(address)": "13af4035",
    "setPrice(uint256)": "91b7f5ed",
    "setPrizes(uint256[])": "c0f2165e",
    "setRandomnessClient(address)": "97811c4c",
    "setRedistributionReserve(uint256)": "dba91099",
    "supportsInterface(bytes4)": "01ffc9a7",
    "symbol()": "95d89b41",
    "tokenURI(uint256)": "c87b56dd",
    "transferFrom(address,address,uint256)": "23b872dd"
  },
  "id": 24
}