{
  "abi": [
    {
      "inputs": [
        {
          "internalType": "address",
          "name": "_rc",
          "type": "address"
        }
      ],
      "stateMutability": "nonpayable",
      "type": "constructor"
    },
    {
      "inputs": [],
      "name": "ALREADY_PARTICIPATED",
      "type": "error"
    },
    {
      "inputs": [],
      "name": "CANT_FINALIZE_YET",
      "type": "error"
    },
    {
      "inputs": [],
      "name": "NOT_OWNER",
      "type": "error"
    },
    {
      "inputs": [],
      "name": "TOO_MANY",
      "type": "error"
    },
    {
      "inputs": [],
      "name": "TOO_MANY_PRIZES",
      "type": "error"
    },
    {
      "inputs": [],
      "name": "WRONG_PRICE",
      "type": "error"
    },
    {
      "inputs": [],
      "name": "ZERO_ADDRESS",
      "type": "error"
    },
    {
      "inputs": [],
      "name": "ZERO_WINNERS",
      "type": "error"
    },
    {
      "anonymous": false,
      "inputs": [
        {
          "indexed": true,
          "internalType": "address",
          "name": "owner",
          "type": "address"
        },
        {
          "indexed": true,
          "internalType": "address",
          "name": "spender",
          "type": "address"
        },
        {
          "indexed": true,
          "internalType": "uint256",
          "name": "id",
          "type": "uint256"
        }
      ],
      "name": "Approval",
      "type": "event"
    },
    {
      "anonymous": false,
      "inputs": [
        {
          "indexed": true,
          "internalType": "address",
          "name": "owner",
          "type": "address"
        },
        {
          "indexed": true,
          "internalType": "address",
          "name": "operator",
          "type": "address"
        },
        {
          "indexed": false,
          "internalType": "bool",
          "name": "approved",
          "type": "bool"
        }
      ],
      "name": "ApprovalForAll",
      "type": "event"
    },
    {
      "anonymous": false,
      "inputs": [
        {
          "indexed": true,
          "internalType": "uint256",
          "name": "roundId",
          "type": "uint256"
        },
        {
          "indexed": true,
          "internalType": "address",
          "name": "participant",
          "type": "address"
        },
        {
          "indexed": false,
          "internalType": "uint256",
          "name": "participantId",
          "type": "uint256"
        }
      ],
      "name": "ParticipantAdded",
      "type": "event"
    },
    {
      "anonymous": false,
      "inputs": [
        {
          "indexed": true,
          "internalType": "uint256",
          "name": "roundId",
          "type": "uint256"
        },
        {
          "indexed": true,
          "internalType": "address",
          "name": "participant",
          "type": "address"
        },
        {
          "indexed": false,
          "internalType": "uint256",
          "name": "amount",
          "type": "uint256"
        }
      ],
      "name": "Redistribution",
      "type": "event"
    },
    {
      "anonymous": false,
      "inputs": [
        {
          "indexed": true,
          "internalType": "uint256",
          "name": "roundId",
          "type": "uint256"
        },
        {
          "indexed": false,
          "internalType": "uint256",
          "name": "randomness",
          "type": "uint256"
        }
      ],
      "name": "RoundFinalized",
      "type": "event"
    },
    {
      "anonymous": false,
      "inputs": [
        {
          "indexed": true,
          "internalType": "uint256",
          "name": "roundId",
          "type": "uint256"
        }
      ],
      "name": "RoundStarted",
      "type": "event"
    },
    {
      "anonymous": false,
      "inputs": [
        {
          "indexed": false,
          "internalType": "uint256",
          "name": "finalizerReward",
          "type": "uint256"
        }
      ],
      "name": "SetFinalizerReward",
      "type": "event"
    },
    {
      "anonymous": false,
      "inputs": [
        {
          "indexed": false,
          "internalType": "uint256",
          "name": "minDuration",
          "type": "uint256"
        }
      ],
      "name": "SetMinDuration",
      "type": "event"
    },
    {
      "anonymous": false,
      "inputs": [
        {
          "indexed": false,
          "internalType": "uint256",
          "name": "noWinnerProbability",
          "type": "uint256"
        }
      ],
      "name": "SetNoWinnerProbability",
      "type": "event"
    },
    {
      "anonymous": false,
      "inputs": [
        {
          "indexed": false,
          "internalType": "address",
          "name": "owner",
          "type": "address"
        }
      ],
      "name": "SetOwner",
      "type": "event"
    },
    {
      "anonymous": false,
      "inputs": [
        {
          "indexed": false,
          "internalType": "uint256",
          "name": "price",
          "type": "uint256"
        }
      ],
      "name": "SetPrice",
      "type": "event"
    },
    {
      "anonymous": false,
      "inputs": [
        {
          "indexed": false,
          "internalType": "uint256[]",
          "name": "prizes",
          "type": "uint256[]"
        }
      ],
      "name": "SetPrizes",
      "type": "event"
    },
    {
      "anonymous": false,
      "inputs": [
        {
          "indexed": false,
          "internalType": "address",
          "name": "rc",
          "type": "address"
        }
      ],
      "name": "SetRandomnessClient",
      "type": "event"
    },
    {
      "anonymous": false,
      "inputs": [
        {
          "indexed": false,
          "internalType": "uint256",
          "name": "redistributionReserve",
          "type": "uint256"
        }
      ],
      "name": "SetRedistributionReserve",
      "type": "event"
    },
    {
      "anonymous": false,
      "inputs": [
        {
          "indexed": true,
          "internalType": "address",
          "name": "from",
          "type": "address"
        },
        {
          "indexed": true,
          "internalType": "address",
          "name": "to",
          "type": "address"
        },
        {
          "indexed": true,
          "internalType": "uint256",
          "name": "id",
          "type": "uint256"
        }
      ],
      "name": "Transfer",
      "type": "event"
    },
    {
      "anonymous": false,
      "inputs": [
        {
          "indexed": true,
          "internalType": "uint256",
          "name": "roundId",
          "type": "uint256"
        },
        {
          "indexed": true,
          "internalType": "address",
          "name": "participant",
          "type": "address"
        },
        {
          "indexed": false,
          "internalType": "uint256",
          "name": "prizeId",
          "type": "uint256"
        },
        {
          "indexed": false,
          "internalType": "uint256",
          "name": "prizeAmount",
          "type": "uint256"
        }
      ],
      "name": "WonPrize",
      "type": "event"
    },
    {
      "inputs": [
        {
          "internalType": "address",
          "name": "spender",
          "type": "address"
        },
        {
          "internalType": "uint256",
          "name": "id",
          "type": "uint256"
        }
      ],
      "name": "approve",
      "outputs": [],
      "stateMutability": "nonpayable",
      "type": "function"
    },
    {
      "inputs": [
        {
          "internalType": "address",
          "name": "owner",
          "type": "address"
        }
      ],
      "name": "balanceOf",
      "outputs": [
        {
          "internalType": "uint256",
          "name": "",
          "type": "uint256"
        }
      ],
      "stateMutability": "view",
      "type": "function"
    },
    {
      "inputs": [],
      "name": "currentRound",
      "outputs": [
        {
          "components": [
            {
              "internalType": "uint256",
              "name": "roundStartedAt",
              "type": "uint256"
            },
            {
              "internalType": "uint256",
              "name": "totalParticipants",
              "type": "uint256"
            },
            {
              "internalType": "uint256",
              "name": "price",
              "type": "uint256"
            },
            {
              "internalType": "uint256",
              "name": "minDuration",
              "type": "uint256"
            },
            {
              "internalType": "uint256",
              "name": "noWinnerProbability",
              "type": "uint256"
            },
            {
              "internalType": "uint256[]",
              "name": "prizes",
              "type": "uint256[]"
            },
            {
              "internalType": "uint256",
              "name": "finalizerReward",
              "type": "uint256"
            },
            {
              "internalType": "uint256",
              "name": "redistributionReserve",
              "type": "uint256"
            },
            {
              "internalType": "uint256",
              "name": "randomness",
              "type": "uint256"
            }
          ],
          "internalType": "struct DumpingBandits.Round",
          "name": "",
          "type": "tuple"
        }
      ],
      "stateMutability": "view",
      "type": "function"
    },
    {
      "inputs": [],
      "name": "defaultFinalizerReward",
      "outputs": [
        {
          "internalType": "uint256",
          "name": "",
          "type": "uint256"
        }
      ],
      "stateMutability": "view",
      "type": "function"
    },
    {
      "inputs": [],
      "name": "defaultMinDuration",
      "outputs": [
        {
          "internalType": "uint256",
          "name": "",
          "type": "uint256"
        }
      ],
      "stateMutability": "view",
      "type": "function"
    },
    {
      "inputs": [],
      "name": "defaultNoWinnerProbability",
      "outputs": [
        {
          "internalType": "uint256",
          "name": "",
          "type": "uint256"
        }
      ],
      "stateMutability": "view",
      "type": "function"
    },
    {
      "inputs": [],
      "name": "defaultPrice",
      "outputs": [
        {
          "internalType": "uint256",
          "name": "",
          "type": "uint256"
        }
      ],
      "stateMutability": "view",
      "type": "function"
    },
    {
      "inputs": [
        {
          "internalType": "uint256",
          "name": "",
          "type": "uint256"
        }
      ],
      "name": "defaultPrizes",
      "outputs": [
        {
          "internalType": "uint256",
          "name": "",
          "type": "uint256"
        }
      ],
      "stateMutability": "view",
      "type": "function"
    },
    {
      "inputs": [],
      "name": "defaultRedistributionReserve",
      "outputs": [
        {
          "internalType": "uint256",
          "name": "",
          "type": "uint256"
        }
      ],
      "stateMutability": "view",
      "type": "function"
    },
    {
      "inputs": [],
      "name": "finalizeRound",
      "outputs": [],
      "stateMutability": "nonpayable",
      "type": "function"
    },
    {
      "inputs": [
        {
          "internalType": "uint256",
          "name": "",
          "type": "uint256"
        }
      ],
      "name": "getApproved",
      "outputs": [
        {
          "internalType": "address",
          "name": "",
          "type": "address"
        }
      ],
      "stateMutability": "view",
      "type": "function"
    },
    {
      "inputs": [
        {
          "internalType": "uint256",
          "name": "",
          "type": "uint256"
        },
        {
          "internalType": "uint256",
          "name": "",
          "type": "uint256"
        }
      ],
      "name": "idParticipants",
      "outputs": [
        {
          "internalType": "address",
          "name": "",
          "type": "address"
        }
      ],
      "stateMutability": "view",
      "type": "function"
    },
    {
      "inputs": [
        {
          "internalType": "address",
          "name": "",
          "type": "address"
        },
        {
          "internalType": "address",
          "name": "",
          "type": "address"
        }
      ],
      "name": "isApprovedForAll",
      "outputs": [
        {
          "internalType": "bool",
          "name": "",
          "type": "bool"
        }
      ],
      "stateMutability": "view",
      "type": "function"
    },
    {
      "inputs": [
        {
          "internalType": "uint256",
          "name": "_tokenId",
          "type": "uint256"
        }
      ],
      "name": "lookupId",
      "outputs": [
        {
          "internalType": "uint256",
          "name": "",
          "type": "uint256"
        },
        {
          "internalType": "uint256",
          "name": "",
          "type": "uint256"
        }
      ],
      "stateMutability": "view",
      "type": "function"
    },
    {
      "inputs": [
        {
          "internalType": "uint256",
          "name": "_tokenId",
          "type": "uint256"
        }
      ],
      "name": "lookupPrize",
      "outputs": [
        {
          "internalType": "uint256",
          "name": "",
          "type": "uint256"
        },
        {
          "internalType": "uint256",
          "name": "",
          "type": "uint256"
        },
        {
          "internalType": "uint256",
          "name": "",
          "type": "uint256"
        },
        {
          "internalType": "bool",
          "name": "",
          "type": "bool"
        }
      ],
      "stateMutability": "view",
      "type": "function"
    },
    {
      "inputs": [],
      "name": "name",
      "outputs": [
        {
          "internalType": "string",
          "name": "",
          "type": "string"
        }
      ],
      "stateMutability": "view",
      "type": "function"
    },
    {
      "inputs": [],
      "name": "nextTokenId",
      "outputs": [
        {
          "internalType": "uint256",
          "name": "",
          "type": "uint256"
        }
      ],
      "stateMutability": "view",
      "type": "function"
    },
    {
      "inputs": [],
      "name": "owner",
      "outputs": [
        {
          "internalType": "address",
          "name": "",
          "type": "address"
        }
      ],
      "stateMutability": "view",
      "type": "function"
    },
    {
      "inputs": [
        {
          "internalType": "uint256",
          "name": "id",
          "type": "uint256"
        }
      ],
      "name": "ownerOf",
      "outputs": [
        {
          "internalType": "address",
          "name": "owner",
          "type": "address"
        }
      ],
      "stateMutability": "view",
      "type": "function"
    },
    {
      "inputs": [
        {
          "internalType": "uint256",
          "name": "",
          "type": "uint256"
        },
        {
          "internalType": "address",
          "name": "",
          "type": "address"
        }
      ],
      "name": "participantIds",
      "outputs": [
        {
          "internalType": "uint256",
          "name": "",
          "type": "uint256"
        }
      ],
      "stateMutability": "view",
      "type": "function"
    },
    {
      "inputs": [],
      "name": "participate",
      "outputs": [],
      "stateMutability": "payable",
      "type": "function"
    },
    {
      "inputs": [],
      "name": "rc",
      "outputs": [
        {
          "internalType": "contract IRandomnessClient",
          "name": "",
          "type": "address"
        }
      ],
      "stateMutability": "view",
      "type": "function"
    },
    {
      "inputs": [],
      "name": "roundId",
      "outputs": [
        {
          "internalType": "uint256",
          "name": "",
          "type": "uint256"
        }
      ],
      "stateMutability": "view",
      "type": "function"
    },
    {
      "inputs": [
        {
          "internalType": "uint256",
          "name": "",
          "type": "uint256"
        }
      ],
      "name": "rounds",
      "outputs": [
        {
          "internalType": "uint256",
          "name": "roundStartedAt",
          "type": "uint256"
        },
        {
          "internalType": "uint256",
          "name": "totalParticipants",
          "type": "uint256"
        },
        {
          "internalType": "uint256",
          "name": "price",
          "type": "uint256"
        },
        {
          "internalType": "uint256",
          "name": "minDuration",
          "type": "uint256"
        },
        {
          "internalType": "uint256",
          "name": "noWinnerProbability",
          "type": "uint256"
        },
        {
          "internalType": "uint256",
          "name": "finalizerReward",
          "type": "uint256"
        },
        {
          "internalType": "uint256",
          "name": "redistributionReserve",
          "type": "uint256"
        },
        {
          "internalType": "uint256",
          "name": "randomness",
          "type": "uint256"
        }
      ],
      "stateMutability": "view",
      "type": "function"
    },
    {
      "inputs": [
        {
          "internalType": "address",
          "name": "from",
          "type": "address"
        },
        {
          "internalType": "address",
          "name": "to",
          "type": "address"
        },
        {
          "internalType": "uint256",
          "name": "id",
          "type": "uint256"
        }
      ],
      "name": "safeTransferFrom",
      "outputs": [],
      "stateMutability": "nonpayable",
      "type": "function"
    },
    {
      "inputs": [
        {
          "internalType": "address",
          "name": "from",
          "type": "address"
        },
        {
          "internalType": "address",
          "name": "to",
          "type": "address"
        },
        {
          "internalType": "uint256",
          "name": "id",
          "type": "uint256"
        },
        {
          "internalType": "bytes",
          "name": "data",
          "type": "bytes"
        }
      ],
      "name": "safeTransferFrom",
      "outputs": [],
      "stateMutability": "nonpayable",
      "type": "function"
    },
    {
      "inputs": [
        {
          "internalType": "address",
          "name": "operator",
          "type": "address"
        },
        {
          "internalType": "bool",
          "name": "approved",
          "type": "bool"
        }
      ],
      "name": "setApprovalForAll",
      "outputs": [],
      "stateMutability": "nonpayable",
      "type": "function"
    },
    {
      "inputs": [
        {
          "internalType": "uint256",
          "name": "_finalizerReward",
          "type": "uint256"
        }
      ],
      "name": "setFinalizerReward",
      "outputs": [],
      "stateMutability": "nonpayable",
      "type": "function"
    },
    {
      "inputs": [
        {
          "internalType": "uint256",
          "name": "_minDuration",
          "type": "uint256"
        }
      ],
      "name": "setMinDuration",
      "outputs": [],
      "stateMutability": "nonpayable",
      "type": "function"
    },
    {
      "inputs": [
        {
          "internalType": "uint256",
          "name": "_noWinnerProbability",
          "type": "uint256"
        }
      ],
      "name": "setNoWinnerProbability",
      "outputs": [],
      "stateMutability": "nonpayable",
      "type": "function"
    },
    {
      "inputs": [
        {
          "internalType": "address",
          "name": "_owner",
          "type": "address"
        }
      ],
      "name": "setOwner",
      "outputs": [],
      "stateMutability": "nonpayable",
      "type": "function"
    },
    {
      "inputs": [
        {
          "internalType": "uint256",
          "name": "_price",
          "type": "uint256"
        }
      ],
      "name": "setPrice",
      "outputs": [],
      "stateMutability": "nonpayable",
      "type": "function"
    },
    {
      "inputs": [
        {
          "internalType": "uint256[]",
          "name": "_prizes",
          "type": "uint256[]"
        }
      ],
      "name": "setPrizes",
      "outputs": [],
      "stateMutability": "nonpayable",
      "type": "function"
    },
    {
      "inputs": [
        {
          "internalType": "address",
          "name": "_rc",
          "type": "address"
        }
      ],
      "name": "setRandomnessClient",
      "outputs": [],
      "stateMutability": "nonpayable",
      "type": "function"
    },
    {
      "inputs": [
        {
          "internalType": "uint256",
          "name": "_redistributionReserve",
          "type": "uint256"
        }
      ],
      "name": "setRedistributionReserve",
      "outputs": [],
      "stateMutability": "nonpayable",
      "type": "function"
    },
    {
      "inputs": [
        {
          "internalType": "bytes4",
          "name": "interfaceId",
          "type": "bytes4"
        }
      ],
      "name": "supportsInterface",
      "outputs": [
        {
          "internalType": "bool",
          "name": "",
          "type": "bool"
        }
      ],
      "stateMutability": "view",
      "type": "function"
    },
    {
      "inputs": [],
      "name": "symbol",
      "outputs": [
        {
          "internalType": "string",
          "name": "",
          "type": "string"
        }
      ],
      "stateMutability": "view",
      "type": "function"
    },
    {
      "inputs": [
        {
          "internalType": "uint256",
          "name": "id",
          "type": "uint256"
        }
      ],
      "name": "tokenURI",
      "outputs": [
        {
          "internalType": "string",
          "name": "",
          "type": "string"
        }
      ],
      "stateMutability": "pure",
      "type": "function"
    },
    {
      "inputs": [
        {
          "internalType": "address",
          "name": "from",
          "type": "address"
        },
        {
          "internalType": "address",
          "name": "to",
          "type": "address"
        },
        {
          "internalType": "uint256",
          "name": "id",
          "type": "uint256"
        }
      ],
      "name": "transferFrom",
      "outputs": [],
      "stateMutability": "nonpayable",
      "type": "function"
    }
  ],
  "bytecode": {
    "object": "0x6001600655678ac7230489e80000600955610384600a5564e8d4a51000600b5560e060405267058d15e17628000060809081526703782dace9d9000060a052670214e8348c4f000060c0526200005a90600c90600362000172565b50678ac7230489e80000600d5566470de4df820000600e556000600f5560006010553480156200008957600080fd5b5060405162002dbc38038062002dbc833981016040819052620000ac91620001e4565b6040518060400160405280600f81526020016e44756d70696e672042616e6469747360881b8152506040518060400160405280600681526020016510905391125560d21b8152508160009081620001049190620002bb565b506001620001138282620002bb565b5050506001600160a01b0381166200013e5760405163538ba4f960e01b815260040160405180910390fd5b60078054336001600160a01b031991821617909155600880549091166001600160a01b039290921691909117905562000387565b828054828255906000526020600020908101928215620001bb579160200282015b82811115620001bb57825182906001600160401b031690559160200191906001019062000193565b50620001c9929150620001cd565b5090565b5b80821115620001c95760008155600101620001ce565b600060208284031215620001f757600080fd5b81516001600160a01b03811681146200020f57600080fd5b9392505050565b634e487b7160e01b600052604160045260246000fd5b600181811c908216806200024157607f821691505b6020821081036200026257634e487b7160e01b600052602260045260246000fd5b50919050565b601f821115620002b657600081815260208120601f850160051c81016020861015620002915750805b601f850160051c820191505b81811015620002b2578281556001016200029d565b5050505b505050565b81516001600160401b03811115620002d757620002d762000216565b620002ef81620002e884546200022c565b8462000268565b602080601f8311600181146200032757600084156200030e5750858301515b600019600386901b1c1916600185901b178555620002b2565b600085815260208120601f198616915b82811015620003585788860151825594840194600190910190840162000337565b5085821015620003775787850151600019600388901b60f8161c191681555b5050505050600190811b01905550565b612a2580620003976000396000f3fe6080604052600436106102305760003560e01c80638cd221c91161012e578063bba33931116100ab578063dba910991161006f578063dba9109914610734578063e69e04b314610754578063e736e9a61461076a578063e92a845e14610780578063e985e9c5146107c157600080fd5b8063bba3393114610694578063c0f2165e146106b4578063c87b56dd146106d4578063cf630098146106f4578063d11711a21461072c57600080fd5b806397811c4c116100f257806397811c4c146105e9578063a18d3fcd14610609578063a22cb4651461061f578063aeb0717f1461063f578063b88d4fde1461067457600080fd5b80638cd221c9146105685780638da5cb5b1461057e57806390456d1d1461059e57806391b7f5ed146105b457806395d89b41146105d457600080fd5b80631e820325116101bc5780636352211e116101805780636352211e1461045757806370a082311461047757806375794a3c146104975780638a19c8bc146104ad5780638c65c81f146104cf57600080fd5b80631e820325146103cc57806323b872dd146103e15780633e2ab5981461040157806342842e0e1461041757806354e5cd261461043757600080fd5b806312f773321161020357806312f77332146102fc57806313af40351461031c57806314141dfa1461033c5780631674bade1461037e5780631a11dc241461039e57600080fd5b806301ffc9a71461023557806306fdde031461026a578063081812fc1461028c578063095ea7b3146102da575b600080fd5b34801561024157600080fd5b506102556102503660046123c5565b6107fc565b60405190151581526020015b60405180910390f35b34801561027657600080fd5b5061027f61084e565b6040516102619190612406565b34801561029857600080fd5b506102c26102a7366004612439565b6004602052600090815260409020546001600160a01b031681565b6040516001600160a01b039091168152602001610261565b3480156102e657600080fd5b506102fa6102f5366004612469565b6108dc565b005b34801561030857600080fd5b506008546102c2906001600160a01b031681565b34801561032857600080fd5b506102fa610337366004612493565b6109c3565b34801561034857600080fd5b5061035c610357366004612439565b610a43565b6040805194855260208501939093529183015215156060820152608001610261565b34801561038a57600080fd5b506102fa610399366004612439565b610bfc565b3480156103aa57600080fd5b506103be6103b9366004612439565b610c5c565b604051908152602001610261565b3480156103d857600080fd5b506102fa610c7d565b3480156103ed57600080fd5b506102fa6103fc3660046124ae565b610e09565b34801561040d57600080fd5b506103be600b5481565b34801561042357600080fd5b506102fa6104323660046124ae565b610fd0565b34801561044357600080fd5b506102fa610452366004612439565b6110a5565b34801561046357600080fd5b506102c2610472366004612439565b611105565b34801561048357600080fd5b506103be610492366004612493565b61115c565b3480156104a357600080fd5b506103be60105481565b3480156104b957600080fd5b506104c26111bf565b6040516102619190612525565b3480156104db57600080fd5b5061052d6104ea366004612439565b6011602052600090815260409020805460018201546002830154600384015460048501546006860154600787015460089097015495969495939492939192909188565b604080519889526020890197909752958701949094526060860192909252608085015260a084015260c083015260e082015261010001610261565b34801561057457600080fd5b506103be600f5481565b34801561058a57600080fd5b506007546102c2906001600160a01b031681565b3480156105aa57600080fd5b506103be600d5481565b3480156105c057600080fd5b506102fa6105cf366004612439565b6112dc565b3480156105e057600080fd5b5061027f61133c565b3480156105f557600080fd5b506102fa610604366004612493565b611349565b34801561061557600080fd5b506103be600e5481565b34801561062b57600080fd5b506102fa61063a3660046125a2565b6113e9565b34801561064b57600080fd5b5061065f61065a366004612439565b611455565b60408051928352602083019190915201610261565b34801561068057600080fd5b506102fa61068f3660046125de565b6114d0565b3480156106a057600080fd5b506102fa6106af366004612439565b611595565b3480156106c057600080fd5b506102fa6106cf36600461268f565b6115f5565b3480156106e057600080fd5b5061027f6106ef366004612439565b611740565b34801561070057600080fd5b506103be61070f36600461274d565b601260209081526000928352604080842090915290825290205481565b6102fa611771565b34801561074057600080fd5b506102fa61074f366004612439565b61192c565b34801561076057600080fd5b506103be60095481565b34801561077657600080fd5b506103be600a5481565b34801561078c57600080fd5b506102c261079b366004612779565b60136020908152600092835260408084209091529082529020546001600160a01b031681565b3480156107cd57600080fd5b506102556107dc36600461279b565b600560209081526000928352604080842090915290825290205460ff1681565b60006301ffc9a760e01b6001600160e01b03198316148061082d57506380ac58cd60e01b6001600160e01b03198316145b806108485750635b5e139f60e01b6001600160e01b03198316145b92915050565b6000805461085b906127c5565b80601f0160208091040260200160405190810160405280929190818152602001828054610887906127c5565b80156108d45780601f106108a9576101008083540402835291602001916108d4565b820191906000526020600020905b8154815290600101906020018083116108b757829003601f168201915b505050505081565b6000818152600260205260409020546001600160a01b03163381148061092557506001600160a01b038116600090815260056020908152604080832033845290915290205460ff165b6109675760405162461bcd60e51b815260206004820152600e60248201526d1393d517d055551213d49256915160921b60448201526064015b60405180910390fd5b60008281526004602052604080822080546001600160a01b0319166001600160a01b0387811691821790925591518593918516917f8c5be1e5ebec7d5bd14f71427d1e84f3dd0314c0f7b2291e5b200ac8c7c3b92591a4505050565b6007546001600160a01b031633146109ee576040516338ebc58960e11b815260040160405180910390fd5b600780546001600160a01b0319166001600160a01b0383169081179091556040519081527f167d3e9c1016ab80e58802ca9da10ce5c6a0f4debc46a2e7a2cd9e56899a4fb5906020015b60405180910390a150565b600080600080600080610a5587611455565b600082815260116020908152604080832081516101208101835281548152600182015481850152600282015481840152600382015460608201526004820154608082015260058201805484518187028101870190955280855297995095975093959394909360a0860193830182828015610aee57602002820191906000526020600020905b815481526020019060010190808311610ada575b50505050508152602001600682015481526020016007820154815260200160088201548152505090506000610b2782610100015161198c565b90506000805b8251811015610b7a5784838281518110610b4957610b496127ff565b602002602001015103610b6857610b6181600161282b565b9150610b7a565b80610b728161283e565b915050610b2d565b5080600003610b9c576000806000600198509850985098505050505050610bf5565b60a0830151600090610baf600184612857565b81518110610bbf57610bbf6127ff565b602002602001015190506000610be2828660400151611a0290919063ffffffff16565b929a509098509096506000955050505050505b9193509193565b6007546001600160a01b03163314610c27576040516338ebc58960e11b815260040160405180910390fd5b600a8190556040518181527f7eded2c549bae9a064369318a940074f1c91f965cc3f7aed87ea7dba1c150c0c90602001610a38565b600c8181548110610c6c57600080fd5b600091825260209091200154905081565b610c85611a1e565b610ca257604051630fc2437760e11b815260040160405180910390fd5b600654600114610ce15760405162461bcd60e51b815260206004820152600a6024820152695245454e5452414e435960b01b604482015260640161095e565b6002600655600854604080516355573dc360e11b815290516000926001600160a01b03169163aaae7b869160048083019260209291908290030181865afa158015610d30573d6000803e3d6000fd5b505050506040513d601f19601f82011682018060405250810190610d54919061286a565b600f546000908152601160205260408120600801829055909150610d778261198c565b90508051600003610d8f57610d8a611a64565b610d98565b610d9881611b63565b600f54600090815260116020526040902060060154610db8903390611c94565b610dc0611ce5565b600f546040518381527f2b034c48d6d3c5fa40da8afd25e88ee8ad074a546e1a3f05a860c6106b99b82b9060200160405180910390a25050600f80546001908101909155600655565b6000818152600260205260409020546001600160a01b03848116911614610e5f5760405162461bcd60e51b815260206004820152600a60248201526957524f4e475f46524f4d60b01b604482015260640161095e565b6001600160a01b038216610ea95760405162461bcd60e51b81526020600482015260116024820152701253959053125117d49150d25412515395607a1b604482015260640161095e565b336001600160a01b0384161480610ee357506001600160a01b038316600090815260056020908152604080832033845290915290205460ff165b80610f0457506000818152600460205260409020546001600160a01b031633145b610f415760405162461bcd60e51b815260206004820152600e60248201526d1393d517d055551213d49256915160921b604482015260640161095e565b6001600160a01b0380841660008181526003602090815260408083208054600019019055938616808352848320805460010190558583526002825284832080546001600160a01b03199081168317909155600490925284832080549092169091559251849392917fddf252ad1be2c89b69c2b068fc378daa952ba7f163c4a11628f55a4df523b3ef91a4505050565b610fdb838383610e09565b6001600160a01b0382163b15806110845750604051630a85bd0160e11b8082523360048301526001600160a01b03858116602484015260448301849052608060648401526000608484015290919084169063150b7a029060a4016020604051808303816000875af1158015611054573d6000803e3d6000fd5b505050506040513d601f19601f820116820180604052508101906110789190612883565b6001600160e01b031916145b6110a05760405162461bcd60e51b815260040161095e906128a0565b505050565b6007546001600160a01b031633146110d0576040516338ebc58960e11b815260040160405180910390fd5b600b8190556040518181527feb3b53ef4835985447c0c5849c726f3e163685692434313c6dcded17425318b690602001610a38565b6000818152600260205260409020546001600160a01b0316806111575760405162461bcd60e51b815260206004820152600a6024820152691393d517d3525395115160b21b604482015260640161095e565b919050565b60006001600160a01b0382166111a35760405162461bcd60e51b815260206004820152600c60248201526b5a45524f5f4144445245535360a01b604482015260640161095e565b506001600160a01b031660009081526003602052604090205490565b61120e6040518061012001604052806000815260200160008152602001600081526020016000815260200160008152602001606081526020016000815260200160008152602001600081525090565b60116000600f548152602001908152602001600020604051806101200160405290816000820154815260200160018201548152602001600282015481526020016003820154815260200160048201548152602001600582018054806020026020016040519081016040528092919081815260200182805480156112b057602002820191906000526020600020905b81548152602001906001019080831161129c575b505050505081526020016006820154815260200160078201548152602001600882015481525050905090565b6007546001600160a01b03163314611307576040516338ebc58960e11b815260040160405180910390fd5b60098190556040518181527f4f5539c0409dfc4cb06f64cbd31237e1fbfe443f531584bf4dd77ec7fc5ba7b190602001610a38565b6001805461085b906127c5565b6007546001600160a01b03163314611374576040516338ebc58960e11b815260040160405180910390fd5b6001600160a01b03811661139b5760405163538ba4f960e01b815260040160405180910390fd5b600880546001600160a01b0319166001600160a01b0383169081179091556040519081527f240d8bf6972a9e438d69cd9b1c79a0414806127b38f7b84dd65168e180ad22bc90602001610a38565b3360008181526005602090815260408083206001600160a01b03871680855290835292819020805460ff191686151590811790915590519081529192917f17307eab39ab6107e8899845ad3d59bd9653f200f220920489ca2b5937696c31910160405180910390a35050565b6000806000805b8482101561148357600081815260116020526040902060019081015492909201910161145c565b61148e600182612857565b826011600061149e600186612857565b815260200190815260200160002060010154876114bb919061282b565b6114c59190612857565b935093505050915091565b6114db858585610e09565b6001600160a01b0384163b15806115725750604051630a85bd0160e11b808252906001600160a01b0386169063150b7a02906115239033908a908990899089906004016128ca565b6020604051808303816000875af1158015611542573d6000803e3d6000fd5b505050506040513d601f19601f820116820180604052508101906115669190612883565b6001600160e01b031916145b61158e5760405162461bcd60e51b815260040161095e906128a0565b5050505050565b6007546001600160a01b031633146115c0576040516338ebc58960e11b815260040160405180910390fd5b600d8190556040518181527f3e7248ce6e198f34feb7985860c18db7c24b8bfd1694296e521204548b0fbb0c90602001610a38565b6007546001600160a01b03163314611620576040516338ebc58960e11b815260040160405180910390fd5b80516000036116425760405163a75f8d3560e01b815260040160405180910390fd5b805163ffffffff11611667576040516328592ca560e11b815260040160405180910390fd5b6000805b82518110156116ad57828181518110611686576116866127ff565b602002602001015182611699919061282b565b9150806116a58161283e565b91505061166b565b50670de0b6b3a7640000600e54600d54836116c8919061282b565b6116d2919061282b565b11156116f157604051631648186960e31b815260040160405180910390fd5b815161170490600c90602085019061234c565b507fc1053cca128bc27ed92cf297a3b9d6eaab9a735abd9f97861d4fbde40b985b5382604051611734919061291e565b60405180910390a15050565b606061174b82611d23565b60405160200161175b9190612962565b6040516020818303038152906040529050919050565b6006546001146117b05760405162461bcd60e51b815260206004820152600a6024820152695245454e5452414e435960b01b604482015260640161095e565b60026006819055600f546000908152601160205260409020015434146117e957604051631da0f5f960e21b815260040160405180910390fd5b600f54600090815260126020908152604080832033845290915290205415611824576040516311c7923f60e01b815260040160405180910390fd5b600f5460009081526011602052604090206001015463fffffffe190161185d576040516328592ca560e11b815260040160405180910390fd5b600f5460009081526011602052604090205461187b5761187b611db6565b61188733601054611f0b565b600f80546000908152601160209081526040808320600190810180548201905560108054820190558454845281842001546012835281842033808652908452828520829055855485526013845282852082865284529382902080546001600160a01b031916851790559354905184815290917f4458602c75f7945f69e6a982b698a0ba5068f2ae7324e34dac6ef89360380e2b910160405180910390a3506001600655565b6007546001600160a01b03163314611957576040516338ebc58960e11b815260040160405180910390fd5b600e8190556040518181527f2a192b4661a277773a99a8f8b74a2b4cbf445983952b7959874ce5dbe4cab90e90602001610a38565b600f546000908152601160205260409020600401546060906119b6670de0b6b3a7640000846129b6565b10156119d057505060408051600081526020810190915290565b600f546000908152601160205260408120600581015460019091015490916119f9858385611fd7565b95945050505050565b6000611a178383670de0b6b3a76400006120f7565b9392505050565b600f5460009081526011602052604081205415158015611a5f5750600f54600090815260116020526040902060038101549054611a5b919061282b565b4210155b905090565b600f54600090815260116020526040812060018101546002820154600690920154909290611aa4611a9d85670de0b6b3a76400006129d8565b8490611a02565b611aae9190612857565b90506000611ace611ac785670de0b6b3a76400006129d8565b8390612115565b905060015b84811161158e57600f5460009081526013602090815260408083208484529091529020546001600160a01b0316611b0a8184611c94565b806001600160a01b0316600f547fae718d5005a53e2ce03ae49ffa0750b76ada9a2309cf05356a2ec06ba13a926585604051611b4891815260200190565b60405180910390a35080611b5b8161283e565b915050611ad3565b600f54600090815260116020526040812060060154611b829047612857565b905060005b82518110156110a057600f54600090815260136020526040812084518290869085908110611bb757611bb76127ff565b6020026020010151815260200190815260200160002060009054906101000a90046001600160a01b031690506000611c2b60116000600f5481526020019081526020016000206005018481548110611c1157611c116127ff565b906000526020600020015485611a0290919063ffffffff16565b9050611c378282611c94565b600f5460408051858152602081018490526001600160a01b03851692917f01901b784b0a5a9753a8551528cb8faec83886f379113da512c80111edbc8860910160405180910390a350508080611c8c9061283e565b915050611b87565b600080600080600085875af19050806110a05760405162461bcd60e51b815260206004820152601360248201527211551217d514905394d1915497d19052531151606a1b604482015260640161095e565b600f54600090815260116020526040812060070154611d049047611a02565b90506000611d128247612857565b9050611d1f600082611c94565b5050565b60606000611d308361212a565b600101905060008167ffffffffffffffff811115611d5057611d50612679565b6040519080825280601f01601f191660200182016040528015611d7a576020820181803683370190505b5090508181016020015b600019016f181899199a1a9b1b9c1cb0b131b232b360811b600a86061a8153600a8504945084611d8457509392505050565b6000604051806101200160405280428152602001600081526020016009548152602001600a548152602001600b548152602001600c805480602002602001604051908101604052809291908181526020018280548015611e3557602002820191906000526020600020905b815481526020019060010190808311611e21575b50505050508152602001600d548152602001600e548152602001600081525090508060116000600f548152602001908152602001600020600082015181600001556020820151816001015560408201518160020155606082015181600301556080820151816004015560a0820151816005019080519060200190611eba92919061234c565b5060c0820151600682015560e0820151600782015561010090910151600890910155600f546040517f33a701182892fd888ed152ca2ac23771a32e814469b7cd255965471e1af3a65990600090a250565b611f158282612202565b6001600160a01b0382163b1580611fbb5750604051630a85bd0160e11b80825233600483015260006024830181905260448301849052608060648401526084830152906001600160a01b0384169063150b7a029060a4016020604051808303816000875af1158015611f8b573d6000803e3d6000fd5b505050506040513d601f19601f82011682018060405250810190611faf9190612883565b6001600160e01b031916145b611d1f5760405162461bcd60e51b815260040161095e906128a0565b606060008263ffffffff1667ffffffffffffffff811115611ffa57611ffa612679565b604051908082528060200260200182016040528015612023578160200160208202803683370190505b5090508460005b8463ffffffff168110156120ec576120418261230d565b63ffffffff16915060008663ffffffff168361205d91906129b6565b61206890600161282b565b9050600160005b838110156120b2578286828151811061208a5761208a6127ff565b6020026020010151036120a057600091506120b2565b806120aa8161283e565b91505061206f565b5080156120e557818584815181106120cc576120cc6127ff565b6020908102919091010152826120e18161283e565b9350505b505061202a565b509095945050505050565b600082600019048411830215820261210e57600080fd5b5091020490565b6000611a1783670de0b6b3a7640000846120f7565b60008072184f03e93ff9f4daa797ed6e38ed64bf6a1f0160401b83106121695772184f03e93ff9f4daa797ed6e38ed64bf6a1f0160401b830492506040015b6d04ee2d6d415b85acef81000000008310612195576d04ee2d6d415b85acef8100000000830492506020015b662386f26fc1000083106121b357662386f26fc10000830492506010015b6305f5e10083106121cb576305f5e100830492506008015b61271083106121df57612710830492506004015b606483106121f1576064830492506002015b600a83106108485760010192915050565b6001600160a01b03821661224c5760405162461bcd60e51b81526020600482015260116024820152701253959053125117d49150d25412515395607a1b604482015260640161095e565b6000818152600260205260409020546001600160a01b0316156122a25760405162461bcd60e51b815260206004820152600e60248201526d1053149150511657d3525395115160921b604482015260640161095e565b6001600160a01b038216600081815260036020908152604080832080546001019055848352600290915280822080546001600160a01b0319168417905551839291907fddf252ad1be2c89b69c2b068fc378daa952ba7f163c4a11628f55a4df523b3ef908290a45050565b60006405deece66d600b66010000000000006010818361232d88876129d8565b612337919061282b565b61234191906129b6565b901c95945050505050565b828054828255906000526020600020908101928215612387579160200282015b8281111561238757825182559160200191906001019061236c565b50612393929150612397565b5090565b5b808211156123935760008155600101612398565b6001600160e01b0319811681146123c257600080fd5b50565b6000602082840312156123d757600080fd5b8135611a17816123ac565b60005b838110156123fd5781810151838201526020016123e5565b50506000910152565b60208152600082518060208401526124258160408501602087016123e2565b601f01601f19169190910160400192915050565b60006020828403121561244b57600080fd5b5035919050565b80356001600160a01b038116811461115757600080fd5b6000806040838503121561247c57600080fd5b61248583612452565b946020939093013593505050565b6000602082840312156124a557600080fd5b611a1782612452565b6000806000606084860312156124c357600080fd5b6124cc84612452565b92506124da60208501612452565b9150604084013590509250925092565b600081518084526020808501945080840160005b8381101561251a578151875295820195908201906001016124fe565b509495945050505050565b6020815281516020820152602082015160408201526040820151606082015260608201516080820152608082015160a0820152600060a08301516101208060c08501526125766101408501836124ea565b60c086015160e08681019190915286015161010080870191909152909501519301929092525090919050565b600080604083850312156125b557600080fd5b6125be83612452565b9150602083013580151581146125d357600080fd5b809150509250929050565b6000806000806000608086880312156125f657600080fd5b6125ff86612452565b945061260d60208701612452565b935060408601359250606086013567ffffffffffffffff8082111561263157600080fd5b818801915088601f83011261264557600080fd5b81358181111561265457600080fd5b89602082850101111561266657600080fd5b9699959850939650602001949392505050565b634e487b7160e01b600052604160045260246000fd5b600060208083850312156126a257600080fd5b823567ffffffffffffffff808211156126ba57600080fd5b818501915085601f8301126126ce57600080fd5b8135818111156126e0576126e0612679565b8060051b604051601f19603f8301168101818110858211171561270557612705612679565b60405291825284820192508381018501918883111561272357600080fd5b938501935b8285101561274157843584529385019392850192612728565b98975050505050505050565b6000806040838503121561276057600080fd5b8235915061277060208401612452565b90509250929050565b6000806040838503121561278c57600080fd5b50508035926020909101359150565b600080604083850312156127ae57600080fd5b6127b783612452565b915061277060208401612452565b600181811c908216806127d957607f821691505b6020821081036127f957634e487b7160e01b600052602260045260246000fd5b50919050565b634e487b7160e01b600052603260045260246000fd5b634e487b7160e01b600052601160045260246000fd5b8082018082111561084857610848612815565b60006001820161285057612850612815565b5060010190565b8181038181111561084857610848612815565b60006020828403121561287c57600080fd5b5051919050565b60006020828403121561289557600080fd5b8151611a17816123ac565b60208082526010908201526f155394d0519157d49150d2541251539560821b604082015260600190565b6001600160a01b038681168252851660208201526040810184905260806060820181905281018290526000828460a0840137600060a0848401015260a0601f19601f85011683010190509695505050505050565b6020808252825182820181905260009190848201906040850190845b818110156129565783518352928401929184019160010161293a565b50909695505050505050565b7f68747470733a2f2f64756d70696e6762616e646974732e63616e746f2e6c6966815265652f6e66742f60d01b6020820152600082516129a98160268501602087016123e2565b9190910160260192915050565b6000826129d357634e487b7160e01b600052601260045260246000fd5b500690565b80820281158282048414176108485761084861281556fea264697066735822122029840fe227b0fdaff3ad86982661d61f3773dacca504ce09168de015c4f1bcb264736f6c63430008120033",
    "linkReferences": {}
  },
  "methodIdentifiers": {
    "approve(address,uint256)": "095ea7b3",
    "balanceOf(address)": "70a08231",
    "currentRound()": "8a19c8bc",
    "defaultFinalizerReward()": "90456d1d",
    "defaultMinDuration()": "e736e9a6",
    "defaultNoWinnerProbability()": "3e2ab598",
    "defaultPrice()": "e69e04b3",
    "defaultPrizes(uint256)": "1a11dc24",
    "defaultRedistributionReserve()": "a18d3fcd",
    "finalizeRound()": "1e820325",
    "getApproved(uint256)": "081812fc",
    "idParticipants(uint256,uint256)": "e92a845e",
    "isApprovedForAll(address,address)": "e985e9c5",
    "lookupId(uint256)": "aeb0717f",
    "lookupPrize(uint256)": "14141dfa",
    "name()": "06fdde03",
    "nextTokenId()": "75794a3c",
    "owner()": "8da5cb5b",
    "ownerOf(uint256)": "6352211e",
    "participantIds(uint256,address)": "cf630098",
    "participate()": "d11711a2",
    "rc()": "12f77332",
    "roundId()": "8cd221c9",
    "rounds(uint256)": "8c65c81f",
    "safeTransferFrom(address,address,uint256)": "42842e0e",
    "safeTransferFrom(address,address,uint256,bytes)": "b88d4fde",
    "setApprovalForAll(address,bool)": "a22cb465",
    "setFinalizerReward(uint256)": "bba33931",
    "setMinDuration(uint256)": "1674bade",
    "setNoWinnerProbability(uint256)": "54e5cd26",
    "setOwner(address)": "13af4035",
    "setPrice(uint256)": "91b7f5ed",
    "setPrizes(uint256[])": "c0f2165e",
    "setRandomnessClient(address)": "97811c4c",
    "setRedistributionReserve(uint256)": "dba91099",
    "supportsInterface(bytes4)": "01ffc9a7",
    "symbol()": "95d89b41",
    "tokenURI(uint256)": "c87b56dd",
    "transferFrom(address,address,uint256)": "23b872dd"
  },
  "id": 22
}