{
  "abi": [
    {
      "inputs": [
        {
          "internalType": "address",
          "name": "_rc",
          "type": "address"
        },
        {
          "internalType": "address",
          "name": "_treasury",
          "type": "address"
        }
      ],
      "stateMutability": "nonpayable",
      "type": "constructor"
    },
    {
      "inputs": [],
      "name": "CANT_FINALIZE_YET",
      "type": "error"
    },
    {
      "inputs": [],
      "name": "NOT_OWNER",
      "type": "error"
    },
    {
      "inputs": [],
      "name": "TOO_MANY",
      "type": "error"
    },
    {
      "inputs": [],
      "name": "TOO_MANY_PRIZES",
      "type": "error"
    },
    {
      "inputs": [],
      "name": "WRONG_PRICE",
      "type": "error"
    },
    {
      "inputs": [],
      "name": "ZERO_ADDRESS",
      "type": "error"
    },
    {
      "inputs": [],
      "name": "ZERO_WINNERS",
      "type": "error"
    },
    {
      "anonymous": false,
      "inputs": [
        {
          "indexed": true,
          "internalType": "address",
          "name": "owner",
          "type": "address"
        },
        {
          "indexed": true,
          "internalType": "address",
          "name": "spender",
          "type": "address"
        },
        {
          "indexed": true,
          "internalType": "uint256",
          "name": "id",
          "type": "uint256"
        }
      ],
      "name": "Approval",
      "type": "event"
    },
    {
      "anonymous": false,
      "inputs": [
        {
          "indexed": true,
          "internalType": "address",
          "name": "owner",
          "type": "address"
        },
        {
          "indexed": true,
          "internalType": "address",
          "name": "operator",
          "type": "address"
        },
        {
          "indexed": false,
          "internalType": "bool",
          "name": "approved",
          "type": "bool"
        }
      ],
      "name": "ApprovalForAll",
      "type": "event"
    },
    {
      "anonymous": false,
      "inputs": [
        {
          "indexed": true,
          "internalType": "uint256",
          "name": "roundId",
          "type": "uint256"
        },
        {
          "indexed": true,
          "internalType": "address",
          "name": "participant",
          "type": "address"
        },
        {
          "indexed": false,
          "internalType": "uint256",
          "name": "participantId",
          "type": "uint256"
        }
      ],
      "name": "ParticipantAdded",
      "type": "event"
    },
    {
      "anonymous": false,
      "inputs": [
        {
          "indexed": true,
          "internalType": "uint256",
          "name": "roundId",
          "type": "uint256"
        },
        {
          "indexed": true,
          "internalType": "address",
          "name": "participant",
          "type": "address"
        },
        {
          "indexed": false,
          "internalType": "uint256",
          "name": "amount",
          "type": "uint256"
        }
      ],
      "name": "Redistribution",
      "type": "event"
    },
    {
      "anonymous": false,
      "inputs": [
        {
          "indexed": true,
          "internalType": "uint256",
          "name": "roundId",
          "type": "uint256"
        },
        {
          "indexed": false,
          "internalType": "uint256",
          "name": "randomness",
          "type": "uint256"
        }
      ],
      "name": "RoundFinalized",
      "type": "event"
    },
    {
      "anonymous": false,
      "inputs": [
        {
          "indexed": true,
          "internalType": "uint256",
          "name": "roundId",
          "type": "uint256"
        }
      ],
      "name": "RoundStarted",
      "type": "event"
    },
    {
      "anonymous": false,
      "inputs": [
        {
          "indexed": false,
          "internalType": "uint256",
          "name": "everyoneWinsProbability",
          "type": "uint256"
        }
      ],
      "name": "SetEveryoneWinsProbability",
      "type": "event"
    },
    {
      "anonymous": false,
      "inputs": [
        {
          "indexed": false,
          "internalType": "uint256",
          "name": "finalizerReward",
          "type": "uint256"
        }
      ],
      "name": "SetFinalizerReward",
      "type": "event"
    },
    {
      "anonymous": false,
      "inputs": [
        {
          "indexed": false,
          "internalType": "uint256",
          "name": "minDuration",
          "type": "uint256"
        }
      ],
      "name": "SetMinDuration",
      "type": "event"
    },
    {
      "anonymous": false,
      "inputs": [
        {
          "indexed": false,
          "internalType": "address",
          "name": "owner",
          "type": "address"
        }
      ],
      "name": "SetOwner",
      "type": "event"
    },
    {
      "anonymous": false,
      "inputs": [
        {
          "indexed": false,
          "internalType": "uint256",
          "name": "price",
          "type": "uint256"
        }
      ],
      "name": "SetPrice",
      "type": "event"
    },
    {
      "anonymous": false,
      "inputs": [
        {
          "indexed": false,
          "internalType": "uint256[]",
          "name": "prizes",
          "type": "uint256[]"
        }
      ],
      "name": "SetPrizes",
      "type": "event"
    },
    {
      "anonymous": false,
      "inputs": [
        {
          "indexed": false,
          "internalType": "address",
          "name": "rc",
          "type": "address"
        }
      ],
      "name": "SetRandomnessClient",
      "type": "event"
    },
    {
      "anonymous": false,
      "inputs": [
        {
          "indexed": false,
          "internalType": "address",
          "name": "treasury",
          "type": "address"
        }
      ],
      "name": "SetTreasury",
      "type": "event"
    },
    {
      "anonymous": false,
      "inputs": [
        {
          "indexed": false,
          "internalType": "uint256",
          "name": "treasuryReserve",
          "type": "uint256"
        }
      ],
      "name": "SetTreasuryReserve",
      "type": "event"
    },
    {
      "anonymous": false,
      "inputs": [
        {
          "indexed": true,
          "internalType": "address",
          "name": "from",
          "type": "address"
        },
        {
          "indexed": true,
          "internalType": "address",
          "name": "to",
          "type": "address"
        },
        {
          "indexed": true,
          "internalType": "uint256",
          "name": "id",
          "type": "uint256"
        }
      ],
      "name": "Transfer",
      "type": "event"
    },
    {
      "anonymous": false,
      "inputs": [
        {
          "indexed": true,
          "internalType": "uint256",
          "name": "roundId",
          "type": "uint256"
        },
        {
          "indexed": true,
          "internalType": "address",
          "name": "participant",
          "type": "address"
        },
        {
          "indexed": false,
          "internalType": "uint256",
          "name": "prizeId",
          "type": "uint256"
        },
        {
          "indexed": false,
          "internalType": "uint256",
          "name": "prizeAmount",
          "type": "uint256"
        }
      ],
      "name": "WonPrize",
      "type": "event"
    },
    {
      "inputs": [
        {
          "internalType": "address",
          "name": "spender",
          "type": "address"
        },
        {
          "internalType": "uint256",
          "name": "id",
          "type": "uint256"
        }
      ],
      "name": "approve",
      "outputs": [],
      "stateMutability": "nonpayable",
      "type": "function"
    },
    {
      "inputs": [
        {
          "internalType": "address",
          "name": "owner",
          "type": "address"
        }
      ],
      "name": "balanceOf",
      "outputs": [
        {
          "internalType": "uint256",
          "name": "",
          "type": "uint256"
        }
      ],
      "stateMutability": "view",
      "type": "function"
    },
    {
      "inputs": [],
      "name": "everyoneWinsProbability",
      "outputs": [
        {
          "internalType": "uint256",
          "name": "",
          "type": "uint256"
        }
      ],
      "stateMutability": "view",
      "type": "function"
    },
    {
      "inputs": [],
      "name": "finalizeRound",
      "outputs": [],
      "stateMutability": "nonpayable",
      "type": "function"
    },
    {
      "inputs": [],
      "name": "finalizerReward",
      "outputs": [
        {
          "internalType": "uint256",
          "name": "",
          "type": "uint256"
        }
      ],
      "stateMutability": "view",
      "type": "function"
    },
    {
      "inputs": [
        {
          "internalType": "uint256",
          "name": "",
          "type": "uint256"
        }
      ],
      "name": "getApproved",
      "outputs": [
        {
          "internalType": "address",
          "name": "",
          "type": "address"
        }
      ],
      "stateMutability": "view",
      "type": "function"
    },
    {
      "inputs": [
        {
          "internalType": "address",
          "name": "",
          "type": "address"
        },
        {
          "internalType": "address",
          "name": "",
          "type": "address"
        }
      ],
      "name": "isApprovedForAll",
      "outputs": [
        {
          "internalType": "bool",
          "name": "",
          "type": "bool"
        }
      ],
      "stateMutability": "view",
      "type": "function"
    },
    {
      "inputs": [],
      "name": "lastRoundLastTokenId",
      "outputs": [
        {
          "internalType": "uint256",
          "name": "",
          "type": "uint256"
        }
      ],
      "stateMutability": "view",
      "type": "function"
    },
    {
      "inputs": [],
      "name": "minDuration",
      "outputs": [
        {
          "internalType": "uint256",
          "name": "",
          "type": "uint256"
        }
      ],
      "stateMutability": "view",
      "type": "function"
    },
    {
      "inputs": [],
      "name": "name",
      "outputs": [
        {
          "internalType": "string",
          "name": "",
          "type": "string"
        }
      ],
      "stateMutability": "view",
      "type": "function"
    },
    {
      "inputs": [],
      "name": "owner",
      "outputs": [
        {
          "internalType": "address",
          "name": "",
          "type": "address"
        }
      ],
      "stateMutability": "view",
      "type": "function"
    },
    {
      "inputs": [
        {
          "internalType": "uint256",
          "name": "id",
          "type": "uint256"
        }
      ],
      "name": "ownerOf",
      "outputs": [
        {
          "internalType": "address",
          "name": "owner",
          "type": "address"
        }
      ],
      "stateMutability": "view",
      "type": "function"
    },
    {
      "inputs": [],
      "name": "participate",
      "outputs": [],
      "stateMutability": "payable",
      "type": "function"
    },
    {
      "inputs": [],
      "name": "price",
      "outputs": [
        {
          "internalType": "uint256",
          "name": "",
          "type": "uint256"
        }
      ],
      "stateMutability": "view",
      "type": "function"
    },
    {
      "inputs": [
        {
          "internalType": "uint256",
          "name": "_tokenId",
          "type": "uint256"
        }
      ],
      "name": "prizeRank",
      "outputs": [
        {
          "internalType": "uint256",
          "name": "",
          "type": "uint256"
        }
      ],
      "stateMutability": "view",
      "type": "function"
    },
    {
      "inputs": [
        {
          "internalType": "uint256",
          "name": "",
          "type": "uint256"
        }
      ],
      "name": "prizes",
      "outputs": [
        {
          "internalType": "uint256",
          "name": "",
          "type": "uint256"
        }
      ],
      "stateMutability": "view",
      "type": "function"
    },
    {
      "inputs": [],
      "name": "rc",
      "outputs": [
        {
          "internalType": "contract IRandomnessClient",
          "name": "",
          "type": "address"
        }
      ],
      "stateMutability": "view",
      "type": "function"
    },
    {
      "inputs": [],
      "name": "roundId",
      "outputs": [
        {
          "internalType": "uint256",
          "name": "",
          "type": "uint256"
        }
      ],
      "stateMutability": "view",
      "type": "function"
    },
    {
      "inputs": [],
      "name": "roundParticipants",
      "outputs": [
        {
          "internalType": "uint256",
          "name": "",
          "type": "uint256"
        }
      ],
      "stateMutability": "view",
      "type": "function"
    },
    {
      "inputs": [],
      "name": "roundStartedAt",
      "outputs": [
        {
          "internalType": "uint256",
          "name": "",
          "type": "uint256"
        }
      ],
      "stateMutability": "view",
      "type": "function"
    },
    {
      "inputs": [
        {
          "internalType": "uint256",
          "name": "",
          "type": "uint256"
        }
      ],
      "name": "rounds",
      "outputs": [
        {
          "internalType": "uint256",
          "name": "randomness",
          "type": "uint256"
        },
        {
          "internalType": "uint256",
          "name": "participants",
          "type": "uint256"
        }
      ],
      "stateMutability": "view",
      "type": "function"
    },
    {
      "inputs": [
        {
          "internalType": "address",
          "name": "from",
          "type": "address"
        },
        {
          "internalType": "address",
          "name": "to",
          "type": "address"
        },
        {
          "internalType": "uint256",
          "name": "id",
          "type": "uint256"
        }
      ],
      "name": "safeTransferFrom",
      "outputs": [],
      "stateMutability": "nonpayable",
      "type": "function"
    },
    {
      "inputs": [
        {
          "internalType": "address",
          "name": "from",
          "type": "address"
        },
        {
          "internalType": "address",
          "name": "to",
          "type": "address"
        },
        {
          "internalType": "uint256",
          "name": "id",
          "type": "uint256"
        },
        {
          "internalType": "bytes",
          "name": "data",
          "type": "bytes"
        }
      ],
      "name": "safeTransferFrom",
      "outputs": [],
      "stateMutability": "nonpayable",
      "type": "function"
    },
    {
      "inputs": [
        {
          "internalType": "address",
          "name": "operator",
          "type": "address"
        },
        {
          "internalType": "bool",
          "name": "approved",
          "type": "bool"
        }
      ],
      "name": "setApprovalForAll",
      "outputs": [],
      "stateMutability": "nonpayable",
      "type": "function"
    },
    {
      "inputs": [
        {
          "internalType": "uint256",
          "name": "_everyoneWinsProbability",
          "type": "uint256"
        }
      ],
      "name": "setEveryoneWinsProbability",
      "outputs": [],
      "stateMutability": "nonpayable",
      "type": "function"
    },
    {
      "inputs": [
        {
          "internalType": "uint256",
          "name": "_finalizerReward",
          "type": "uint256"
        }
      ],
      "name": "setFinalizerReward",
      "outputs": [],
      "stateMutability": "nonpayable",
      "type": "function"
    },
    {
      "inputs": [
        {
          "internalType": "uint256",
          "name": "_minDuration",
          "type": "uint256"
        }
      ],
      "name": "setMinDuration",
      "outputs": [],
      "stateMutability": "nonpayable",
      "type": "function"
    },
    {
      "inputs": [
        {
          "internalType": "address",
          "name": "_owner",
          "type": "address"
        }
      ],
      "name": "setOwner",
      "outputs": [],
      "stateMutability": "nonpayable",
      "type": "function"
    },
    {
      "inputs": [
        {
          "internalType": "uint256",
          "name": "_price",
          "type": "uint256"
        }
      ],
      "name": "setPrice",
      "outputs": [],
      "stateMutability": "nonpayable",
      "type": "function"
    },
    {
      "inputs": [
        {
          "internalType": "uint256[]",
          "name": "_prizes",
          "type": "uint256[]"
        }
      ],
      "name": "setPrizes",
      "outputs": [],
      "stateMutability": "nonpayable",
      "type": "function"
    },
    {
      "inputs": [
        {
          "internalType": "address",
          "name": "_rc",
          "type": "address"
        }
      ],
      "name": "setRandomnessClient",
      "outputs": [],
      "stateMutability": "nonpayable",
      "type": "function"
    },
    {
      "inputs": [
        {
          "internalType": "address",
          "name": "_treasury",
          "type": "address"
        }
      ],
      "name": "setTreasury",
      "outputs": [],
      "stateMutability": "nonpayable",
      "type": "function"
    },
    {
      "inputs": [
        {
          "internalType": "uint256",
          "name": "_treasuryReserve",
          "type": "uint256"
        }
      ],
      "name": "setTreasuryReserve",
      "outputs": [],
      "stateMutability": "nonpayable",
      "type": "function"
    },
    {
      "inputs": [
        {
          "internalType": "bytes4",
          "name": "interfaceId",
          "type": "bytes4"
        }
      ],
      "name": "supportsInterface",
      "outputs": [
        {
          "internalType": "bool",
          "name": "",
          "type": "bool"
        }
      ],
      "stateMutability": "view",
      "type": "function"
    },
    {
      "inputs": [],
      "name": "symbol",
      "outputs": [
        {
          "internalType": "string",
          "name": "",
          "type": "string"
        }
      ],
      "stateMutability": "view",
      "type": "function"
    },
    {
      "inputs": [
        {
          "internalType": "uint256",
          "name": "",
          "type": "uint256"
        }
      ],
      "name": "tokenIdRound",
      "outputs": [
        {
          "internalType": "uint256",
          "name": "",
          "type": "uint256"
        }
      ],
      "stateMutability": "view",
      "type": "function"
    },
    {
      "inputs": [
        {
          "internalType": "uint256",
          "name": "_tokenId",
          "type": "uint256"
        }
      ],
      "name": "tokenInfo",
      "outputs": [
        {
          "internalType": "string",
          "name": "",
          "type": "string"
        }
      ],
      "stateMutability": "view",
      "type": "function"
    },
    {
      "inputs": [
        {
          "internalType": "uint256",
          "name": "_tokenId",
          "type": "uint256"
        }
      ],
      "name": "tokenURI",
      "outputs": [
        {
          "internalType": "string",
          "name": "",
          "type": "string"
        }
      ],
      "stateMutability": "pure",
      "type": "function"
    },
    {
      "inputs": [
        {
          "internalType": "address",
          "name": "from",
          "type": "address"
        },
        {
          "internalType": "address",
          "name": "to",
          "type": "address"
        },
        {
          "internalType": "uint256",
          "name": "id",
          "type": "uint256"
        }
      ],
      "name": "transferFrom",
      "outputs": [],
      "stateMutability": "nonpayable",
      "type": "function"
    },
    {
      "inputs": [],
      "name": "treasury",
      "outputs": [
        {
          "internalType": "contract IBanditTreasury",
          "name": "",
          "type": "address"
        }
      ],
      "stateMutability": "view",
      "type": "function"
    },
    {
      "inputs": [],
      "name": "treasuryReserve",
      "outputs": [
        {
          "internalType": "uint256",
          "name": "",
          "type": "uint256"
        }
      ],
      "stateMutability": "view",
      "type": "function"
    }
  ],
  "bytecode": {
    "object": "0x6001600655678ac7230489e80000600a55610384600b5564e8d4a51000600c5560e060405267058d15e17628000060809081526703782dace9d9000060a052670214e8348c4f000060c0526200005a90600d90600362000250565b50678ac7230489e80000600e556702c68af0bb140000600f5560006010556000601155600060125560006013553480156200009457600080fd5b5060405162002bd638038062002bd6833981016040819052620000b791620002df565b6040518060400160405280600f81526020016e44756d70696e672042616e6469747360881b8152506040518060400160405280600681526020016510905391125560d21b81525081600090816200010f9190620003bc565b5060016200011e8282620003bc565b5050506001600160a01b03821615806200013f57506001600160a01b038116155b156200015e5760405163538ba4f960e01b815260040160405180910390fd5b600780546001600160a01b031916339081179091556040519081527f167d3e9c1016ab80e58802ca9da10ce5c6a0f4debc46a2e7a2cd9e56899a4fb59060200160405180910390a1600880546001600160a01b0319166001600160a01b0384169081179091556040519081527f240d8bf6972a9e438d69cd9b1c79a0414806127b38f7b84dd65168e180ad22bc9060200160405180910390a1600980546001600160a01b0319166001600160a01b0383169081179091556040519081527fcb7ef3e545f5cdb893f5c568ba710fe08f336375a2d9fd66e161033f8fc09ef39060200160405180910390a1505062000488565b82805482825590600052602060002090810192821562000299579160200282015b828111156200029957825182906001600160401b031690559160200191906001019062000271565b50620002a7929150620002ab565b5090565b5b80821115620002a75760008155600101620002ac565b80516001600160a01b0381168114620002da57600080fd5b919050565b60008060408385031215620002f357600080fd5b620002fe83620002c2565b91506200030e60208401620002c2565b90509250929050565b634e487b7160e01b600052604160045260246000fd5b600181811c908216806200034257607f821691505b6020821081036200036357634e487b7160e01b600052602260045260246000fd5b50919050565b601f821115620003b757600081815260208120601f850160051c81016020861015620003925750805b601f850160051c820191505b81811015620003b3578281556001016200039e565b5050505b505050565b81516001600160401b03811115620003d857620003d862000317565b620003f081620003e984546200032d565b8462000369565b602080601f8311600181146200042857600084156200040f5750858301515b600019600386901b1c1916600185901b178555620003b3565b600085815260208120601f198616915b82811015620004595788860151825594840194600190910190840162000438565b5085821015620004785787850151600019600388901b60f8161c191681555b5050505050600190811b01905550565b61273e80620004986000396000f3fe6080604052600436106102465760003560e01c80638cd221c911610139578063bba33931116100b6578063d11711a21161007a578063d11711a2146106d3578063d40dc869146106db578063e985e9c5146106f1578063eccb3a4f1461072c578063f0f442601461074c578063f1816b1e1461076c57600080fd5b8063bba339311461063d578063be03d23d1461065d578063c0f2165e14610673578063c87b56dd14610693578063cc33c875146106b357600080fd5b8063a035b1fe116100fd578063a035b1fe146105b1578063a16e56fc146105c7578063a22cb465146105dd578063a6bd686b146105fd578063b88d4fde1461061d57600080fd5b80638cd221c9146105265780638da5cb5b1461053c57806391b7f5ed1461055c57806395d89b411461057c57806397811c4c1461059157600080fd5b8063296af167116101c757806361d027b31161018b57806361d027b31461044d5780636352211e1461046d57806370a082311461048d5780637b808ecc146104ad5780638c65c81f146104da57600080fd5b8063296af167146103c757806342842e0e146103eb5780634f183cc51461040b578063567157611461042157806359297dbf1461043757600080fd5b806313af40351161020e57806313af4035146103325780631674bade146103525780631e820325146103725780631ecd794f1461038757806323b872dd146103a757600080fd5b806301ffc9a71461024b57806306fdde0314610280578063081812fc146102a2578063095ea7b3146102f057806312f7733214610312575b600080fd5b34801561025757600080fd5b5061026b6102663660046120d5565b61078c565b60405190151581526020015b60405180910390f35b34801561028c57600080fd5b506102956107de565b6040516102779190612116565b3480156102ae57600080fd5b506102d86102bd366004612149565b6004602052600090815260409020546001600160a01b031681565b6040516001600160a01b039091168152602001610277565b3480156102fc57600080fd5b5061031061030b366004612179565b61086c565b005b34801561031e57600080fd5b506008546102d8906001600160a01b031681565b34801561033e57600080fd5b5061031061034d3660046121a3565b610953565b34801561035e57600080fd5b5061031061036d366004612149565b6109d3565b34801561037e57600080fd5b50610310610a33565b34801561039357600080fd5b506103106103a2366004612149565b610bf2565b3480156103b357600080fd5b506103106103c23660046121be565b610c52565b3480156103d357600080fd5b506103dd600e5481565b604051908152602001610277565b3480156103f757600080fd5b506103106104063660046121be565b610e19565b34801561041757600080fd5b506103dd60135481565b34801561042d57600080fd5b506103dd600b5481565b34801561044357600080fd5b506103dd600f5481565b34801561045957600080fd5b506009546102d8906001600160a01b031681565b34801561047957600080fd5b506102d8610488366004612149565b610eee565b34801561049957600080fd5b506103dd6104a83660046121a3565b610f45565b3480156104b957600080fd5b506103dd6104c8366004612149565b60156020526000908152604090205481565b3480156104e657600080fd5b506105116104f5366004612149565b6014602052600090815260409020600181015460029091015482565b60408051928352602083019190915201610277565b34801561053257600080fd5b506103dd60125481565b34801561054857600080fd5b506007546102d8906001600160a01b031681565b34801561056857600080fd5b50610310610577366004612149565b610fa8565b34801561058857600080fd5b50610295611008565b34801561059d57600080fd5b506103106105ac3660046121a3565b611015565b3480156105bd57600080fd5b506103dd600a5481565b3480156105d357600080fd5b506103dd60105481565b3480156105e957600080fd5b506103106105f83660046121fa565b6110b5565b34801561060957600080fd5b506103dd610618366004612149565b611121565b34801561062957600080fd5b50610310610638366004612236565b6111f0565b34801561064957600080fd5b50610310610658366004612149565b6112b5565b34801561066957600080fd5b506103dd600c5481565b34801561067f57600080fd5b5061031061068e3660046122e7565b611315565b34801561069f57600080fd5b506102956106ae366004612149565b611454565b3480156106bf57600080fd5b506102956106ce366004612149565b611485565b61031061153b565b3480156106e757600080fd5b506103dd60115481565b3480156106fd57600080fd5b5061026b61070c3660046123a5565b600560209081526000928352604080842090915290825290205460ff1681565b34801561073857600080fd5b506103dd610747366004612149565b611636565b34801561075857600080fd5b506103106107673660046121a3565b611657565b34801561077857600080fd5b50610310610787366004612149565b6116f7565b60006301ffc9a760e01b6001600160e01b0319831614806107bd57506380ac58cd60e01b6001600160e01b03198316145b806107d85750635b5e139f60e01b6001600160e01b03198316145b92915050565b600080546107eb906123d8565b80601f0160208091040260200160405190810160405280929190818152602001828054610817906123d8565b80156108645780601f1061083957610100808354040283529160200191610864565b820191906000526020600020905b81548152906001019060200180831161084757829003601f168201915b505050505081565b6000818152600260205260409020546001600160a01b0316338114806108b557506001600160a01b038116600090815260056020908152604080832033845290915290205460ff165b6108f75760405162461bcd60e51b815260206004820152600e60248201526d1393d517d055551213d49256915160921b60448201526064015b60405180910390fd5b60008281526004602052604080822080546001600160a01b0319166001600160a01b0387811691821790925591518593918516917f8c5be1e5ebec7d5bd14f71427d1e84f3dd0314c0f7b2291e5b200ac8c7c3b92591a4505050565b6007546001600160a01b0316331461097e576040516338ebc58960e11b815260040160405180910390fd5b600780546001600160a01b0319166001600160a01b0383169081179091556040519081527f167d3e9c1016ab80e58802ca9da10ce5c6a0f4debc46a2e7a2cd9e56899a4fb5906020015b60405180910390a150565b6007546001600160a01b031633146109fe576040516338ebc58960e11b815260040160405180910390fd5b600b8190556040518181527f7eded2c549bae9a064369318a940074f1c91f965cc3f7aed87ea7dba1c150c0c906020016109c8565b610a3b611757565b610a5857604051630fc2437760e11b815260040160405180910390fd5b600654600114610a975760405162461bcd60e51b815260206004820152600a6024820152695245454e5452414e435960b01b60448201526064016108ee565b6002600655600854604080516355573dc360e11b815290516000926001600160a01b03169163aaae7b869160048083019260209291908290030181865afa158015610ae6573d6000803e3d6000fd5b505050506040513d601f19601f82011682018060405250810190610b0a9190612412565b90506000610b1782611784565b604080516060810182528281526020808201869052601154828401526012546000908152601482529290922081518051949550919384939192610b5e928492910190612007565b50602082015160018201556040909101516002909101558151600003610b8b57610b86611890565b610b94565b610b9482611968565b610ba033600e54611a4a565b610ba8611a9b565b600060108190556011556012546040518481527f2b034c48d6d3c5fa40da8afd25e88ee8ad074a546e1a3f05a860c6106b99b82b9060200160405180910390a25050600160065550565b6007546001600160a01b03163314610c1d576040516338ebc58960e11b815260040160405180910390fd5b600f8190556040518181527f7e2e70f554f7a916170e6f8b5fa7b10481e82c540902b810b83bbae02df025d1906020016109c8565b6000818152600260205260409020546001600160a01b03848116911614610ca85760405162461bcd60e51b815260206004820152600a60248201526957524f4e475f46524f4d60b01b60448201526064016108ee565b6001600160a01b038216610cf25760405162461bcd60e51b81526020600482015260116024820152701253959053125117d49150d25412515395607a1b60448201526064016108ee565b336001600160a01b0384161480610d2c57506001600160a01b038316600090815260056020908152604080832033845290915290205460ff165b80610d4d57506000818152600460205260409020546001600160a01b031633145b610d8a5760405162461bcd60e51b815260206004820152600e60248201526d1393d517d055551213d49256915160921b60448201526064016108ee565b6001600160a01b0380841660008181526003602090815260408083208054600019019055938616808352848320805460010190558583526002825284832080546001600160a01b03199081168317909155600490925284832080549092169091559251849392917fddf252ad1be2c89b69c2b068fc378daa952ba7f163c4a11628f55a4df523b3ef91a4505050565b610e24838383610c52565b6001600160a01b0382163b1580610ecd5750604051630a85bd0160e11b8082523360048301526001600160a01b03858116602484015260448301849052608060648401526000608484015290919084169063150b7a029060a4016020604051808303816000875af1158015610e9d573d6000803e3d6000fd5b505050506040513d601f19601f82011682018060405250810190610ec1919061242b565b6001600160e01b031916145b610ee95760405162461bcd60e51b81526004016108ee90612448565b505050565b6000818152600260205260409020546001600160a01b031680610f405760405162461bcd60e51b815260206004820152600a6024820152691393d517d3525395115160b21b60448201526064016108ee565b919050565b60006001600160a01b038216610f8c5760405162461bcd60e51b815260206004820152600c60248201526b5a45524f5f4144445245535360a01b60448201526064016108ee565b506001600160a01b031660009081526003602052604090205490565b6007546001600160a01b03163314610fd3576040516338ebc58960e11b815260040160405180910390fd5b600a8190556040518181527f4f5539c0409dfc4cb06f64cbd31237e1fbfe443f531584bf4dd77ec7fc5ba7b1906020016109c8565b600180546107eb906123d8565b6007546001600160a01b03163314611040576040516338ebc58960e11b815260040160405180910390fd5b6001600160a01b0381166110675760405163538ba4f960e01b815260040160405180910390fd5b600880546001600160a01b0319166001600160a01b0383169081179091556040519081527f240d8bf6972a9e438d69cd9b1c79a0414806127b38f7b84dd65168e180ad22bc906020016109c8565b3360008181526005602090815260408083206001600160a01b03871680855290835292819020805460ff191686151590811790915590519081529192917f17307eab39ab6107e8899845ad3d59bd9653f200f220920489ca2b5937696c31910160405180910390a35050565b60008181526015602090815260408083205480845260149092528220600c54600182015484919061115b90670de0b6b3a764000090612472565b11801591506111705750600019949350505050565b60015b82548110156111e45761118586610eee565b6001600160a01b03168360000182815481106111a3576111a3612494565b6000918252602090912001546001600160a01b0316036111d2576111c88160016124c0565b9695505050505050565b806111dc816124d3565b915050611173565b50600095945050505050565b6111fb858585610c52565b6001600160a01b0384163b15806112925750604051630a85bd0160e11b808252906001600160a01b0386169063150b7a02906112439033908a908990899089906004016124ec565b6020604051808303816000875af1158015611262573d6000803e3d6000fd5b505050506040513d601f19601f82011682018060405250810190611286919061242b565b6001600160e01b031916145b6112ae5760405162461bcd60e51b81526004016108ee90612448565b5050505050565b6007546001600160a01b031633146112e0576040516338ebc58960e11b815260040160405180910390fd5b600e8190556040518181527f3e7248ce6e198f34feb7985860c18db7c24b8bfd1694296e521204548b0fbb0c906020016109c8565b6007546001600160a01b03163314611340576040516338ebc58960e11b815260040160405180910390fd5b80516000036113625760405163a75f8d3560e01b815260040160405180910390fd5b805163ffffffff11611387576040516328592ca560e11b815260040160405180910390fd5b6000805b82518110156113cd578281815181106113a6576113a6612494565b6020026020010151826113b991906124c0565b9150806113c5816124d3565b91505061138b565b50670de0b6b3a7640000600f54826113e591906124c0565b111561140457604051631648186960e31b815260040160405180910390fd5b815161141790600d90602085019061206c565b507fc1053cca128bc27ed92cf297a3b9d6eaab9a735abd9f97861d4fbde40b985b53600d6040516114489190612540565b60405180910390a15050565b606061145f82611ab3565b60405160200161146f9190612587565b6040516020818303038152906040529050919050565b6000818152601560209081526040808320548084526014909252822080546060936114af86611121565b905060001981146114ed576114c384611ab3565b6040516020016114d391906125db565b604051602081830303815290604052945050505050919050565b8060000361150e576114fe84611ab3565b6040516020016114d39190612624565b61151784611ab3565b61152082611ab3565b61152984611ab3565b6040516020016114d39392919061266b565b60065460011461157a5760405162461bcd60e51b815260206004820152600a6024820152695245454e5452414e435960b01b60448201526064016108ee565b6002600655600a5434146115a157604051631da0f5f960e21b815260040160405180910390fd5b6010546115b0576115b0611b46565b601180549060006115c0836124d3565b919050555060006011546013546115d791906124c0565b60125460008281526015602052604090205590506115f53382611ba6565b6012546040518281523391907f4458602c75f7945f69e6a982b698a0ba5068f2ae7324e34dac6ef89360380e2b9060200160405180910390a3506001600655565b600d818154811061164657600080fd5b600091825260209091200154905081565b6007546001600160a01b03163314611682576040516338ebc58960e11b815260040160405180910390fd5b6001600160a01b0381166116a95760405163538ba4f960e01b815260040160405180910390fd5b600980546001600160a01b0319166001600160a01b0383169081179091556040519081527fcb7ef3e545f5cdb893f5c568ba710fe08f336375a2d9fd66e161033f8fc09ef3906020016109c8565b6007546001600160a01b03163314611722576040516338ebc58960e11b815260040160405180910390fd5b600c8190556040518181527f9415f363ad9afde5b77185413860109cbf078b442ace9a0319f1ac90b84df9bd906020016109c8565b6000611764601054151590565b801561177f5750600b5460105461177b91906124c0565b4210155b905090565b600c5460609061179c670de0b6b3a764000084612472565b10156117b657505060408051600081526020810190915290565b600d546011546000906117cb90859084611c76565b90506000815167ffffffffffffffff8111156117e9576117e96122d1565b604051908082528060200260200182016040528015611812578160200160208202803683370190505b50905060005b82518110156118875761184b60135484838151811061183957611839612494565b602002602001015161048891906124c0565b82828151811061185d5761185d612494565b6001600160a01b03909216602092830291909101909101528061187f816124d3565b915050611818565b50949350505050565b60006118be600f54670de0b6b3a76400006118ab91906126de565b600e546118b890476126de565b90611d96565b905060006118e2601154670de0b6b3a76400006118db91906126f1565b8390611db2565b905060015b6011548111610ee95760006119038260135461048891906124c0565b905061190f8184611a4a565b806001600160a01b03166012547fae718d5005a53e2ce03ae49ffa0750b76ada9a2309cf05356a2ec06ba13a92658560405161194d91815260200190565b60405180910390a35080611960816124d3565b9150506118e7565b6000611983600f54670de0b6b3a76400006118ab91906126de565b905060005b8251811015610ee95760008382815181106119a5576119a5612494565b6020026020010151905060006119e1600d84815481106119c7576119c7612494565b906000526020600020015485611d9690919063ffffffff16565b90506119ed8282611a4a565b60125460408051858152602081018490526001600160a01b03851692917f01901b784b0a5a9753a8551528cb8faec83886f379113da512c80111edbc8860910160405180910390a350508080611a42906124d3565b915050611988565b600080600080600085875af1905080610ee95760405162461bcd60e51b815260206004820152601360248201527211551217d514905394d1915497d19052531151606a1b60448201526064016108ee565b600954611ab1906001600160a01b031647611a4a565b565b60606000611ac083611dc7565b600101905060008167ffffffffffffffff811115611ae057611ae06122d1565b6040519080825280601f01601f191660200182016040528015611b0a576020820181803683370190505b5090508181016020015b600019016f181899199a1a9b1b9c1cb0b131b232b360811b600a86061a8153600a8504945084611b1457509392505050565b60128054906000611b56836124d3565b9190505550601154601354611b6b91906124c0565b601355426010556000601181905560125460405190917f33a701182892fd888ed152ca2ac23771a32e814469b7cd255965471e1af3a65991a2565b611bb08282611e9f565b6001600160a01b0382163b1580611c565750604051630a85bd0160e11b80825233600483015260006024830181905260448301849052608060648401526084830152906001600160a01b0384169063150b7a029060a4016020604051808303816000875af1158015611c26573d6000803e3d6000fd5b505050506040513d601f19601f82011682018060405250810190611c4a919061242b565b6001600160e01b031916145b611c725760405162461bcd60e51b81526004016108ee90612448565b5050565b606060008263ffffffff1667ffffffffffffffff811115611c9957611c996122d1565b604051908082528060200260200182016040528015611cc2578160200160208202803683370190505b5090508460005b8463ffffffff16811015611d8b57611ce082611faa565b63ffffffff16915060008663ffffffff1683611cfc9190612472565b611d079060016124c0565b9050600160005b83811015611d515782868281518110611d2957611d29612494565b602002602001015103611d3f5760009150611d51565b80611d49816124d3565b915050611d0e565b508015611d845781858481518110611d6b57611d6b612494565b602090810291909101015282611d80816124d3565b9350505b5050611cc9565b509095945050505050565b6000611dab8383670de0b6b3a7640000611fe9565b9392505050565b6000611dab83670de0b6b3a764000084611fe9565b60008072184f03e93ff9f4daa797ed6e38ed64bf6a1f0160401b8310611e065772184f03e93ff9f4daa797ed6e38ed64bf6a1f0160401b830492506040015b6d04ee2d6d415b85acef81000000008310611e32576d04ee2d6d415b85acef8100000000830492506020015b662386f26fc100008310611e5057662386f26fc10000830492506010015b6305f5e1008310611e68576305f5e100830492506008015b6127108310611e7c57612710830492506004015b60648310611e8e576064830492506002015b600a83106107d85760010192915050565b6001600160a01b038216611ee95760405162461bcd60e51b81526020600482015260116024820152701253959053125117d49150d25412515395607a1b60448201526064016108ee565b6000818152600260205260409020546001600160a01b031615611f3f5760405162461bcd60e51b815260206004820152600e60248201526d1053149150511657d3525395115160921b60448201526064016108ee565b6001600160a01b038216600081815260036020908152604080832080546001019055848352600290915280822080546001600160a01b0319168417905551839291907fddf252ad1be2c89b69c2b068fc378daa952ba7f163c4a11628f55a4df523b3ef908290a45050565b60006405deece66d600b660100000000000060108183611fca88876126f1565b611fd491906124c0565b611fde9190612472565b901c95945050505050565b600082600019048411830215820261200057600080fd5b5091020490565b82805482825590600052602060002090810192821561205c579160200282015b8281111561205c57825182546001600160a01b0319166001600160a01b03909116178255602090920191600190910190612027565b506120689291506120a7565b5090565b82805482825590600052602060002090810192821561205c579160200282015b8281111561205c57825182559160200191906001019061208c565b5b8082111561206857600081556001016120a8565b6001600160e01b0319811681146120d257600080fd5b50565b6000602082840312156120e757600080fd5b8135611dab816120bc565b60005b8381101561210d5781810151838201526020016120f5565b50506000910152565b60208152600082518060208401526121358160408501602087016120f2565b601f01601f19169190910160400192915050565b60006020828403121561215b57600080fd5b5035919050565b80356001600160a01b0381168114610f4057600080fd5b6000806040838503121561218c57600080fd5b61219583612162565b946020939093013593505050565b6000602082840312156121b557600080fd5b611dab82612162565b6000806000606084860312156121d357600080fd5b6121dc84612162565b92506121ea60208501612162565b9150604084013590509250925092565b6000806040838503121561220d57600080fd5b61221683612162565b91506020830135801515811461222b57600080fd5b809150509250929050565b60008060008060006080868803121561224e57600080fd5b61225786612162565b945061226560208701612162565b935060408601359250606086013567ffffffffffffffff8082111561228957600080fd5b818801915088601f83011261229d57600080fd5b8135818111156122ac57600080fd5b8960208285010111156122be57600080fd5b9699959850939650602001949392505050565b634e487b7160e01b600052604160045260246000fd5b600060208083850312156122fa57600080fd5b823567ffffffffffffffff8082111561231257600080fd5b818501915085601f83011261232657600080fd5b813581811115612338576123386122d1565b8060051b604051601f19603f8301168101818110858211171561235d5761235d6122d1565b60405291825284820192508381018501918883111561237b57600080fd5b938501935b8285101561239957843584529385019392850192612380565b98975050505050505050565b600080604083850312156123b857600080fd5b6123c183612162565b91506123cf60208401612162565b90509250929050565b600181811c908216806123ec57607f821691505b60208210810361240c57634e487b7160e01b600052602260045260246000fd5b50919050565b60006020828403121561242457600080fd5b5051919050565b60006020828403121561243d57600080fd5b8151611dab816120bc565b60208082526010908201526f155394d0519157d49150d2541251539560821b604082015260600190565b60008261248f57634e487b7160e01b600052601260045260246000fd5b500690565b634e487b7160e01b600052603260045260246000fd5b634e487b7160e01b600052601160045260246000fd5b808201808211156107d8576107d86124aa565b6000600182016124e5576124e56124aa565b5060010190565b6001600160a01b038681168252851660208201526040810184905260806060820181905281018290526000828460a0840137600060a0848401015260a0601f19601f85011683010190509695505050505050565b6020808252825482820181905260008481528281209092916040850190845b8181101561257b5783548352600193840193928501920161255f565b50909695505050505050565b7f68747470733a2f2f64756d70696e6762616e646974732e63616e746f2e6c6966815265652f6e66742f60d01b6020820152600082516125ce8160268501602087016120f2565b9190910160260192915050565b6502937bab732160d51b8152600082516125fc8160068501602087016120f2565b70202d2045766572796f6e652077696e732160781b6006939091019283015250601701919050565b6502937bab732160d51b8152600082516126458160068501602087016120f2565b6e1016902234b2103737ba103bb4b71760891b6006939091019283015250601501919050565b6502937bab732160d51b81526000845161268c8160068501602089016120f2565b6201016960ed1b60069184019182015284516126af8160098401602089016120f2565b602f60f81b6009929091019182015283516126d181600a8401602088016120f2565b01600a0195945050505050565b818103818111156107d8576107d86124aa565b80820281158282048414176107d8576107d86124aa56fea264697066735822122079ce0553aa9738dd2cf79afd5884028f6133970bb2a49299794aa43d81d61d7664736f6c63430008120033",
    "linkReferences": {}
  },
  "methodIdentifiers": {
    "approve(address,uint256)": "095ea7b3",
    "balanceOf(address)": "70a08231",
    "everyoneWinsProbability()": "be03d23d",
    "finalizeRound()": "1e820325",
    "finalizerReward()": "296af167",
    "getApproved(uint256)": "081812fc",
    "isApprovedForAll(address,address)": "e985e9c5",
    "lastRoundLastTokenId()": "4f183cc5",
    "minDuration()": "56715761",
    "name()": "06fdde03",
    "owner()": "8da5cb5b",
    "ownerOf(uint256)": "6352211e",
    "participate()": "d11711a2",
    "price()": "a035b1fe",
    "prizeRank(uint256)": "a6bd686b",
    "prizes(uint256)": "eccb3a4f",
    "rc()": "12f77332",
    "roundId()": "8cd221c9",
    "roundParticipants()": "d40dc869",
    "roundStartedAt()": "a16e56fc",
    "rounds(uint256)": "8c65c81f",
    "safeTransferFrom(address,address,uint256)": "42842e0e",
    "safeTransferFrom(address,address,uint256,bytes)": "b88d4fde",
    "setApprovalForAll(address,bool)": "a22cb465",
    "setEveryoneWinsProbability(uint256)": "f1816b1e",
    "setFinalizerReward(uint256)": "bba33931",
    "setMinDuration(uint256)": "1674bade",
    "setOwner(address)": "13af4035",
    "setPrice(uint256)": "91b7f5ed",
    "setPrizes(uint256[])": "c0f2165e",
    "setRandomnessClient(address)": "97811c4c",
    "setTreasury(address)": "f0f44260",
    "setTreasuryReserve(uint256)": "1ecd794f",
    "supportsInterface(bytes4)": "01ffc9a7",
    "symbol()": "95d89b41",
    "tokenIdRound(uint256)": "7b808ecc",
    "tokenInfo(uint256)": "cc33c875",
    "tokenURI(uint256)": "c87b56dd",
    "transferFrom(address,address,uint256)": "23b872dd",
    "treasury()": "61d027b3",
    "treasuryReserve()": "59297dbf"
  },
  "id": 25
}