{
  "abi": [
    {
      "inputs": [
        {
          "internalType": "address",
          "name": "_rc",
          "type": "address"
        },
        {
          "internalType": "address",
          "name": "_treasury",
          "type": "address"
        }
      ],
      "stateMutability": "nonpayable",
      "type": "constructor"
    },
    {
      "inputs": [],
      "name": "CANT_FINALIZE_YET",
      "type": "error"
    },
    {
      "inputs": [],
      "name": "NOT_OWNER",
      "type": "error"
    },
    {
      "inputs": [],
      "name": "TOO_MANY",
      "type": "error"
    },
    {
      "inputs": [],
      "name": "TOO_MANY_PRIZES",
      "type": "error"
    },
    {
      "inputs": [],
      "name": "WRONG_PRICE",
      "type": "error"
    },
    {
      "inputs": [],
      "name": "ZERO_ADDRESS",
      "type": "error"
    },
    {
      "inputs": [],
      "name": "ZERO_WINNERS",
      "type": "error"
    },
    {
      "anonymous": false,
      "inputs": [
        {
          "indexed": true,
          "internalType": "address",
          "name": "owner",
          "type": "address"
        },
        {
          "indexed": true,
          "internalType": "address",
          "name": "spender",
          "type": "address"
        },
        {
          "indexed": true,
          "internalType": "uint256",
          "name": "id",
          "type": "uint256"
        }
      ],
      "name": "Approval",
      "type": "event"
    },
    {
      "anonymous": false,
      "inputs": [
        {
          "indexed": true,
          "internalType": "address",
          "name": "owner",
          "type": "address"
        },
        {
          "indexed": true,
          "internalType": "address",
          "name": "operator",
          "type": "address"
        },
        {
          "indexed": false,
          "internalType": "bool",
          "name": "approved",
          "type": "bool"
        }
      ],
      "name": "ApprovalForAll",
      "type": "event"
    },
    {
      "anonymous": false,
      "inputs": [
        {
          "indexed": true,
          "internalType": "uint256",
          "name": "roundId",
          "type": "uint256"
        },
        {
          "indexed": true,
          "internalType": "address",
          "name": "participant",
          "type": "address"
        },
        {
          "indexed": false,
          "internalType": "uint256",
          "name": "participantId",
          "type": "uint256"
        }
      ],
      "name": "ParticipantAdded",
      "type": "event"
    },
    {
      "anonymous": false,
      "inputs": [
        {
          "indexed": true,
          "internalType": "uint256",
          "name": "roundId",
          "type": "uint256"
        },
        {
          "indexed": true,
          "internalType": "address",
          "name": "participant",
          "type": "address"
        },
        {
          "indexed": false,
          "internalType": "uint256",
          "name": "amount",
          "type": "uint256"
        }
      ],
      "name": "Redistribution",
      "type": "event"
    },
    {
      "anonymous": false,
      "inputs": [
        {
          "indexed": true,
          "internalType": "uint256",
          "name": "roundId",
          "type": "uint256"
        },
        {
          "indexed": false,
          "internalType": "uint256",
          "name": "randomness",
          "type": "uint256"
        }
      ],
      "name": "RoundFinalized",
      "type": "event"
    },
    {
      "anonymous": false,
      "inputs": [
        {
          "indexed": true,
          "internalType": "uint256",
          "name": "roundId",
          "type": "uint256"
        }
      ],
      "name": "RoundStarted",
      "type": "event"
    },
    {
      "anonymous": false,
      "inputs": [
        {
          "indexed": false,
          "internalType": "string",
          "name": "baseURI",
          "type": "string"
        }
      ],
      "name": "SetBaseURI",
      "type": "event"
    },
    {
      "anonymous": false,
      "inputs": [
        {
          "indexed": false,
          "internalType": "uint256",
          "name": "everyoneWinsProbability",
          "type": "uint256"
        }
      ],
      "name": "SetEveryoneWinsProbability",
      "type": "event"
    },
    {
      "anonymous": false,
      "inputs": [
        {
          "indexed": false,
          "internalType": "uint256",
          "name": "finalizerReward",
          "type": "uint256"
        }
      ],
      "name": "SetFinalizerReward",
      "type": "event"
    },
    {
      "anonymous": false,
      "inputs": [
        {
          "indexed": false,
          "internalType": "uint256",
          "name": "minDuration",
          "type": "uint256"
        }
      ],
      "name": "SetMinDuration",
      "type": "event"
    },
    {
      "anonymous": false,
      "inputs": [
        {
          "indexed": false,
          "internalType": "address",
          "name": "owner",
          "type": "address"
        }
      ],
      "name": "SetOwner",
      "type": "event"
    },
    {
      "anonymous": false,
      "inputs": [
        {
          "indexed": false,
          "internalType": "uint256",
          "name": "price",
          "type": "uint256"
        }
      ],
      "name": "SetPrice",
      "type": "event"
    },
    {
      "anonymous": false,
      "inputs": [
        {
          "indexed": false,
          "internalType": "uint256[]",
          "name": "prizes",
          "type": "uint256[]"
        }
      ],
      "name": "SetPrizes",
      "type": "event"
    },
    {
      "anonymous": false,
      "inputs": [
        {
          "indexed": false,
          "internalType": "address",
          "name": "rc",
          "type": "address"
        }
      ],
      "name": "SetRandomnessClient",
      "type": "event"
    },
    {
      "anonymous": false,
      "inputs": [
        {
          "indexed": false,
          "internalType": "address",
          "name": "treasury",
          "type": "address"
        }
      ],
      "name": "SetTreasury",
      "type": "event"
    },
    {
      "anonymous": false,
      "inputs": [
        {
          "indexed": false,
          "internalType": "uint256",
          "name": "treasuryReserve",
          "type": "uint256"
        }
      ],
      "name": "SetTreasuryReserve",
      "type": "event"
    },
    {
      "anonymous": false,
      "inputs": [
        {
          "indexed": true,
          "internalType": "address",
          "name": "from",
          "type": "address"
        },
        {
          "indexed": true,
          "internalType": "address",
          "name": "to",
          "type": "address"
        },
        {
          "indexed": true,
          "internalType": "uint256",
          "name": "id",
          "type": "uint256"
        }
      ],
      "name": "Transfer",
      "type": "event"
    },
    {
      "anonymous": false,
      "inputs": [
        {
          "indexed": true,
          "internalType": "uint256",
          "name": "roundId",
          "type": "uint256"
        },
        {
          "indexed": true,
          "internalType": "address",
          "name": "participant",
          "type": "address"
        },
        {
          "indexed": false,
          "internalType": "uint256",
          "name": "prizeId",
          "type": "uint256"
        },
        {
          "indexed": false,
          "internalType": "uint256",
          "name": "prizeAmount",
          "type": "uint256"
        }
      ],
      "name": "WonPrize",
      "type": "event"
    },
    {
      "inputs": [
        {
          "internalType": "address",
          "name": "spender",
          "type": "address"
        },
        {
          "internalType": "uint256",
          "name": "id",
          "type": "uint256"
        }
      ],
      "name": "approve",
      "outputs": [],
      "stateMutability": "nonpayable",
      "type": "function"
    },
    {
      "inputs": [
        {
          "internalType": "address",
          "name": "owner",
          "type": "address"
        }
      ],
      "name": "balanceOf",
      "outputs": [
        {
          "internalType": "uint256",
          "name": "",
          "type": "uint256"
        }
      ],
      "stateMutability": "view",
      "type": "function"
    },
    {
      "inputs": [],
      "name": "baseURI",
      "outputs": [
        {
          "internalType": "string",
          "name": "",
          "type": "string"
        }
      ],
      "stateMutability": "view",
      "type": "function"
    },
    {
      "inputs": [],
      "name": "everyoneWinsProbability",
      "outputs": [
        {
          "internalType": "uint256",
          "name": "",
          "type": "uint256"
        }
      ],
      "stateMutability": "view",
      "type": "function"
    },
    {
      "inputs": [],
      "name": "finalizeRound",
      "outputs": [],
      "stateMutability": "nonpayable",
      "type": "function"
    },
    {
      "inputs": [],
      "name": "finalizerReward",
      "outputs": [
        {
          "internalType": "uint256",
          "name": "",
          "type": "uint256"
        }
      ],
      "stateMutability": "view",
      "type": "function"
    },
    {
      "inputs": [
        {
          "internalType": "uint256",
          "name": "",
          "type": "uint256"
        }
      ],
      "name": "getApproved",
      "outputs": [
        {
          "internalType": "address",
          "name": "",
          "type": "address"
        }
      ],
      "stateMutability": "view",
      "type": "function"
    },
    {
      "inputs": [
        {
          "internalType": "address",
          "name": "_owner",
          "type": "address"
        }
      ],
      "name": "getOwnerTokenIds",
      "outputs": [
        {
          "internalType": "uint256[]",
          "name": "",
          "type": "uint256[]"
        }
      ],
      "stateMutability": "view",
      "type": "function"
    },
    {
      "inputs": [
        {
          "internalType": "address",
          "name": "_owner",
          "type": "address"
        }
      ],
      "name": "getOwnerTokens",
      "outputs": [
        {
          "components": [
            {
              "internalType": "uint256",
              "name": "tokenId",
              "type": "uint256"
            },
            {
              "internalType": "uint256",
              "name": "roundId",
              "type": "uint256"
            },
            {
              "internalType": "uint256",
              "name": "prizePoolSize",
              "type": "uint256"
            },
            {
              "internalType": "uint256",
              "name": "prizeRank",
              "type": "uint256"
            }
          ],
          "internalType": "struct DumpingBandits.OwnerToken[]",
          "name": "",
          "type": "tuple[]"
        }
      ],
      "stateMutability": "view",
      "type": "function"
    },
    {
      "inputs": [
        {
          "internalType": "uint256",
          "name": "_roundId",
          "type": "uint256"
        }
      ],
      "name": "getRoundTokens",
      "outputs": [
        {
          "components": [
            {
              "internalType": "uint256",
              "name": "tokenId",
              "type": "uint256"
            },
            {
              "internalType": "address",
              "name": "owner",
              "type": "address"
            },
            {
              "internalType": "uint256",
              "name": "prizePoolSize",
              "type": "uint256"
            },
            {
              "internalType": "uint256",
              "name": "prizeRank",
              "type": "uint256"
            }
          ],
          "internalType": "struct DumpingBandits.RoundToken[]",
          "name": "",
          "type": "tuple[]"
        }
      ],
      "stateMutability": "view",
      "type": "function"
    },
    {
      "inputs": [
        {
          "internalType": "address",
          "name": "",
          "type": "address"
        },
        {
          "internalType": "address",
          "name": "",
          "type": "address"
        }
      ],
      "name": "isApprovedForAll",
      "outputs": [
        {
          "internalType": "bool",
          "name": "",
          "type": "bool"
        }
      ],
      "stateMutability": "view",
      "type": "function"
    },
    {
      "inputs": [],
      "name": "lastRoundLastTokenId",
      "outputs": [
        {
          "internalType": "uint256",
          "name": "",
          "type": "uint256"
        }
      ],
      "stateMutability": "view",
      "type": "function"
    },
    {
      "inputs": [],
      "name": "minDuration",
      "outputs": [
        {
          "internalType": "uint256",
          "name": "",
          "type": "uint256"
        }
      ],
      "stateMutability": "view",
      "type": "function"
    },
    {
      "inputs": [],
      "name": "name",
      "outputs": [
        {
          "internalType": "string",
          "name": "",
          "type": "string"
        }
      ],
      "stateMutability": "view",
      "type": "function"
    },
    {
      "inputs": [],
      "name": "owner",
      "outputs": [
        {
          "internalType": "address",
          "name": "",
          "type": "address"
        }
      ],
      "stateMutability": "view",
      "type": "function"
    },
    {
      "inputs": [
        {
          "internalType": "uint256",
          "name": "id",
          "type": "uint256"
        }
      ],
      "name": "ownerOf",
      "outputs": [
        {
          "internalType": "address",
          "name": "owner",
          "type": "address"
        }
      ],
      "stateMutability": "view",
      "type": "function"
    },
    {
      "inputs": [],
      "name": "participate",
      "outputs": [],
      "stateMutability": "payable",
      "type": "function"
    },
    {
      "inputs": [],
      "name": "price",
      "outputs": [
        {
          "internalType": "uint256",
          "name": "",
          "type": "uint256"
        }
      ],
      "stateMutability": "view",
      "type": "function"
    },
    {
      "inputs": [
        {
          "internalType": "uint256",
          "name": "_tokenId",
          "type": "uint256"
        }
      ],
      "name": "prizeRank",
      "outputs": [
        {
          "internalType": "uint256",
          "name": "",
          "type": "uint256"
        }
      ],
      "stateMutability": "view",
      "type": "function"
    },
    {
      "inputs": [
        {
          "internalType": "uint256",
          "name": "",
          "type": "uint256"
        }
      ],
      "name": "prizes",
      "outputs": [
        {
          "internalType": "uint256",
          "name": "",
          "type": "uint256"
        }
      ],
      "stateMutability": "view",
      "type": "function"
    },
    {
      "inputs": [],
      "name": "rc",
      "outputs": [
        {
          "internalType": "contract IRandomnessClient",
          "name": "",
          "type": "address"
        }
      ],
      "stateMutability": "view",
      "type": "function"
    },
    {
      "inputs": [],
      "name": "roundId",
      "outputs": [
        {
          "internalType": "uint256",
          "name": "",
          "type": "uint256"
        }
      ],
      "stateMutability": "view",
      "type": "function"
    },
    {
      "inputs": [],
      "name": "roundParticipants",
      "outputs": [
        {
          "internalType": "uint256",
          "name": "",
          "type": "uint256"
        }
      ],
      "stateMutability": "view",
      "type": "function"
    },
    {
      "inputs": [],
      "name": "roundStartedAt",
      "outputs": [
        {
          "internalType": "uint256",
          "name": "",
          "type": "uint256"
        }
      ],
      "stateMutability": "view",
      "type": "function"
    },
    {
      "inputs": [
        {
          "internalType": "uint256",
          "name": "",
          "type": "uint256"
        },
        {
          "internalType": "uint256",
          "name": "",
          "type": "uint256"
        }
      ],
      "name": "roundWinners",
      "outputs": [
        {
          "internalType": "address",
          "name": "",
          "type": "address"
        }
      ],
      "stateMutability": "view",
      "type": "function"
    },
    {
      "inputs": [
        {
          "internalType": "uint256",
          "name": "_roundId",
          "type": "uint256"
        }
      ],
      "name": "roundWinnersArray",
      "outputs": [
        {
          "internalType": "address[]",
          "name": "",
          "type": "address[]"
        }
      ],
      "stateMutability": "view",
      "type": "function"
    },
    {
      "inputs": [
        {
          "internalType": "uint256",
          "name": "",
          "type": "uint256"
        }
      ],
      "name": "rounds",
      "outputs": [
        {
          "internalType": "uint256",
          "name": "randomness",
          "type": "uint256"
        },
        {
          "internalType": "uint256",
          "name": "participants",
          "type": "uint256"
        },
        {
          "internalType": "uint256",
          "name": "lastRoundLastTokenId",
          "type": "uint256"
        }
      ],
      "stateMutability": "view",
      "type": "function"
    },
    {
      "inputs": [
        {
          "internalType": "address",
          "name": "from",
          "type": "address"
        },
        {
          "internalType": "address",
          "name": "to",
          "type": "address"
        },
        {
          "internalType": "uint256",
          "name": "id",
          "type": "uint256"
        }
      ],
      "name": "safeTransferFrom",
      "outputs": [],
      "stateMutability": "nonpayable",
      "type": "function"
    },
    {
      "inputs": [
        {
          "internalType": "address",
          "name": "from",
          "type": "address"
        },
        {
          "internalType": "address",
          "name": "to",
          "type": "address"
        },
        {
          "internalType": "uint256",
          "name": "id",
          "type": "uint256"
        },
        {
          "internalType": "bytes",
          "name": "data",
          "type": "bytes"
        }
      ],
      "name": "safeTransferFrom",
      "outputs": [],
      "stateMutability": "nonpayable",
      "type": "function"
    },
    {
      "inputs": [
        {
          "internalType": "address",
          "name": "operator",
          "type": "address"
        },
        {
          "internalType": "bool",
          "name": "approved",
          "type": "bool"
        }
      ],
      "name": "setApprovalForAll",
      "outputs": [],
      "stateMutability": "nonpayable",
      "type": "function"
    },
    {
      "inputs": [
        {
          "internalType": "string",
          "name": "_baseURI",
          "type": "string"
        }
      ],
      "name": "setBaseURI",
      "outputs": [],
      "stateMutability": "nonpayable",
      "type": "function"
    },
    {
      "inputs": [
        {
          "internalType": "uint256",
          "name": "_everyoneWinsProbability",
          "type": "uint256"
        }
      ],
      "name": "setEveryoneWinsProbability",
      "outputs": [],
      "stateMutability": "nonpayable",
      "type": "function"
    },
    {
      "inputs": [
        {
          "internalType": "uint256",
          "name": "_finalizerReward",
          "type": "uint256"
        }
      ],
      "name": "setFinalizerReward",
      "outputs": [],
      "stateMutability": "nonpayable",
      "type": "function"
    },
    {
      "inputs": [
        {
          "internalType": "uint256",
          "name": "_minDuration",
          "type": "uint256"
        }
      ],
      "name": "setMinDuration",
      "outputs": [],
      "stateMutability": "nonpayable",
      "type": "function"
    },
    {
      "inputs": [
        {
          "internalType": "address",
          "name": "_owner",
          "type": "address"
        }
      ],
      "name": "setOwner",
      "outputs": [],
      "stateMutability": "nonpayable",
      "type": "function"
    },
    {
      "inputs": [
        {
          "internalType": "uint256",
          "name": "_price",
          "type": "uint256"
        }
      ],
      "name": "setPrice",
      "outputs": [],
      "stateMutability": "nonpayable",
      "type": "function"
    },
    {
      "inputs": [
        {
          "internalType": "uint256[]",
          "name": "_prizes",
          "type": "uint256[]"
        }
      ],
      "name": "setPrizes",
      "outputs": [],
      "stateMutability": "nonpayable",
      "type": "function"
    },
    {
      "inputs": [
        {
          "internalType": "address",
          "name": "_rc",
          "type": "address"
        }
      ],
      "name": "setRandomnessClient",
      "outputs": [],
      "stateMutability": "nonpayable",
      "type": "function"
    },
    {
      "inputs": [
        {
          "internalType": "address",
          "name": "_treasury",
          "type": "address"
        }
      ],
      "name": "setTreasury",
      "outputs": [],
      "stateMutability": "nonpayable",
      "type": "function"
    },
    {
      "inputs": [
        {
          "internalType": "uint256",
          "name": "_treasuryReserve",
          "type": "uint256"
        }
      ],
      "name": "setTreasuryReserve",
      "outputs": [],
      "stateMutability": "nonpayable",
      "type": "function"
    },
    {
      "inputs": [
        {
          "internalType": "bytes4",
          "name": "interfaceId",
          "type": "bytes4"
        }
      ],
      "name": "supportsInterface",
      "outputs": [
        {
          "internalType": "bool",
          "name": "",
          "type": "bool"
        }
      ],
      "stateMutability": "view",
      "type": "function"
    },
    {
      "inputs": [],
      "name": "symbol",
      "outputs": [
        {
          "internalType": "string",
          "name": "",
          "type": "string"
        }
      ],
      "stateMutability": "view",
      "type": "function"
    },
    {
      "inputs": [
        {
          "internalType": "uint256",
          "name": "",
          "type": "uint256"
        }
      ],
      "name": "tokenIdRound",
      "outputs": [
        {
          "internalType": "uint256",
          "name": "",
          "type": "uint256"
        }
      ],
      "stateMutability": "view",
      "type": "function"
    },
    {
      "inputs": [
        {
          "internalType": "uint256",
          "name": "_tokenId",
          "type": "uint256"
        }
      ],
      "name": "tokenInfo",
      "outputs": [
        {
          "internalType": "string",
          "name": "",
          "type": "string"
        }
      ],
      "stateMutability": "view",
      "type": "function"
    },
    {
      "inputs": [
        {
          "internalType": "uint256",
          "name": "_tokenId",
          "type": "uint256"
        }
      ],
      "name": "tokenURI",
      "outputs": [
        {
          "internalType": "string",
          "name": "",
          "type": "string"
        }
      ],
      "stateMutability": "view",
      "type": "function"
    },
    {
      "inputs": [
        {
          "internalType": "address",
          "name": "from",
          "type": "address"
        },
        {
          "internalType": "address",
          "name": "to",
          "type": "address"
        },
        {
          "internalType": "uint256",
          "name": "id",
          "type": "uint256"
        }
      ],
      "name": "transferFrom",
      "outputs": [],
      "stateMutability": "nonpayable",
      "type": "function"
    },
    {
      "inputs": [],
      "name": "treasury",
      "outputs": [
        {
          "internalType": "contract IBanditTreasury",
          "name": "",
          "type": "address"
        }
      ],
      "stateMutability": "view",
      "type": "function"
    },
    {
      "inputs": [],
      "name": "treasuryReserve",
      "outputs": [
        {
          "internalType": "uint256",
          "name": "",
          "type": "uint256"
        }
      ],
      "stateMutability": "view",
      "type": "function"
    }
  ],
  "bytecode": {
    "object": "0x600160065560c0604052601b60809081527f68747470733a2f2f64756d70696e6762616e646974732f6e66742f000000000060a052600a90620000439082620003af565b50678ac7230489e80000600b55610384600c5564e8d4a51000600d556040805160608101825267058d15e17628000081526703782dace9d900006020820152670214e8348c4f000091810191909152620000a290600e90600362000298565b50674563918244f40000600f556702c68af0bb1400006010556000601155600060125560006013556000601455348015620000dc57600080fd5b506040516200380b3803806200380b833981016040819052620000ff9162000498565b6040518060400160405280600f81526020016e44756d70696e672042616e6469747360881b8152506040518060400160405280600681526020016510905391125560d21b8152508160009081620001579190620003af565b506001620001668282620003af565b5050506001600160a01b03821615806200018757506001600160a01b038116155b15620001a65760405163538ba4f960e01b815260040160405180910390fd5b600780546001600160a01b031916339081179091556040519081527f167d3e9c1016ab80e58802ca9da10ce5c6a0f4debc46a2e7a2cd9e56899a4fb59060200160405180910390a1600880546001600160a01b0319166001600160a01b0384169081179091556040519081527f240d8bf6972a9e438d69cd9b1c79a0414806127b38f7b84dd65168e180ad22bc9060200160405180910390a1600980546001600160a01b0319166001600160a01b0383169081179091556040519081527fcb7ef3e545f5cdb893f5c568ba710fe08f336375a2d9fd66e161033f8fc09ef39060200160405180910390a15050620004d0565b828054828255906000526020600020908101928215620002e1579160200282015b82811115620002e157825182906001600160401b0316905591602001919060010190620002b9565b50620002ef929150620002f3565b5090565b5b80821115620002ef5760008155600101620002f4565b634e487b7160e01b600052604160045260246000fd5b600181811c908216806200033557607f821691505b6020821081036200035657634e487b7160e01b600052602260045260246000fd5b50919050565b601f821115620003aa57600081815260208120601f850160051c81016020861015620003855750805b601f850160051c820191505b81811015620003a65782815560010162000391565b5050505b505050565b81516001600160401b03811115620003cb57620003cb6200030a565b620003e381620003dc845462000320565b846200035c565b602080601f8311600181146200041b5760008415620004025750858301515b600019600386901b1c1916600185901b178555620003a6565b600085815260208120601f198616915b828110156200044c578886015182559484019460019091019084016200042b565b50858210156200046b5787850151600019600388901b60f8161c191681555b5050505050600190811b01905550565b80516001600160a01b03811681146200049357600080fd5b919050565b60008060408385031215620004ac57600080fd5b620004b7836200047b565b9150620004c7602084016200047b565b90509250929050565b61332b80620004e06000396000f3fe6080604052600436106102935760003560e01c80638c65c81f1161015a578063be03d23d116100c1578063d63d4af01161007a578063d63d4af0146107f8578063e66b600014610825578063e985e9c514610852578063eccb3a4f1461088d578063f0f44260146108ad578063f1816b1e146108cd57600080fd5b8063be03d23d14610764578063c0f2165e1461077a578063c87b56dd1461079a578063cc33c875146107ba578063d11711a2146107da578063d40dc869146107e257600080fd5b8063a035b1fe11610113578063a035b1fe146106b8578063a16e56fc146106ce578063a22cb465146106e4578063a6bd686b14610704578063b88d4fde14610724578063bba339311461074457600080fd5b80638c65c81f146105d65780638cd221c91461062d5780638da5cb5b1461064357806391b7f5ed1461066357806395d89b411461068357806397811c4c1461069857600080fd5b8063296af167116101fe57806361d027b3116101b757806361d027b3146105075780636352211e146105275780636c0360eb1461054757806370a082311461055c5780637883bc9a1461057c5780637b808ecc146105a957600080fd5b8063296af1671461046157806342842e0e146104855780634f183cc5146104a557806355f804b3146104bb57806356715761146104db57806359297dbf146104f157600080fd5b806312f773321161025057806312f77332146103ac57806313af4035146103cc5780631674bade146103ec5780631e8203251461040c5780631ecd794f1461042157806323b872dd1461044157600080fd5b806301ffc9a71461029857806303e3cd6a146102cd57806306fdde0314610305578063081812fc14610327578063082180871461035d578063095ea7b31461038a575b600080fd5b3480156102a457600080fd5b506102b86102b33660046128e9565b6108ed565b60405190151581526020015b60405180910390f35b3480156102d957600080fd5b506102ed6102e8366004612906565b61093f565b6040516001600160a01b0390911681526020016102c4565b34801561031157600080fd5b5061031a610977565b6040516102c4919061294c565b34801561033357600080fd5b506102ed61034236600461297f565b6004602052600090815260409020546001600160a01b031681565b34801561036957600080fd5b5061037d61037836600461297f565b610a05565b6040516102c49190612998565b34801561039657600080fd5b506103aa6103a5366004612a1c565b610bf9565b005b3480156103b857600080fd5b506008546102ed906001600160a01b031681565b3480156103d857600080fd5b506103aa6103e7366004612a46565b610ce0565b3480156103f857600080fd5b506103aa61040736600461297f565b610d60565b34801561041857600080fd5b506103aa610dc0565b34801561042d57600080fd5b506103aa61043c36600461297f565b610f9a565b34801561044d57600080fd5b506103aa61045c366004612a61565b610ffa565b34801561046d57600080fd5b50610477600f5481565b6040519081526020016102c4565b34801561049157600080fd5b506103aa6104a0366004612a61565b6111c1565b3480156104b157600080fd5b5061047760145481565b3480156104c757600080fd5b506103aa6104d6366004612ae4565b611296565b3480156104e757600080fd5b50610477600c5481565b3480156104fd57600080fd5b5061047760105481565b34801561051357600080fd5b506009546102ed906001600160a01b031681565b34801561053357600080fd5b506102ed61054236600461297f565b6112fe565b34801561055357600080fd5b5061031a611355565b34801561056857600080fd5b50610477610577366004612a46565b611362565b34801561058857600080fd5b5061059c61059736600461297f565b6113c5565b6040516102c49190612b79565b3480156105b557600080fd5b506104776105c436600461297f565b60166020526000908152604090205481565b3480156105e257600080fd5b506106126105f136600461297f565b60156020526000908152604090208054600182015460029092015490919083565b604080519384526020840192909252908201526060016102c4565b34801561063957600080fd5b5061047760135481565b34801561064f57600080fd5b506007546102ed906001600160a01b031681565b34801561066f57600080fd5b506103aa61067e36600461297f565b611431565b34801561068f57600080fd5b5061031a611491565b3480156106a457600080fd5b506103aa6106b3366004612a46565b61149e565b3480156106c457600080fd5b50610477600b5481565b3480156106da57600080fd5b5061047760115481565b3480156106f057600080fd5b506103aa6106ff366004612bc6565b61153e565b34801561071057600080fd5b5061047761071f36600461297f565b6115aa565b34801561073057600080fd5b506103aa61073f366004612c02565b6116f6565b34801561075057600080fd5b506103aa61075f36600461297f565b6117bb565b34801561077057600080fd5b50610477600d5481565b34801561078657600080fd5b506103aa610795366004612c9d565b61181b565b3480156107a657600080fd5b5061031a6107b536600461297f565b61195a565b3480156107c657600080fd5b5061031a6107d536600461297f565b61198e565b6103aa611aa0565b3480156107ee57600080fd5b5061047760125481565b34801561080457600080fd5b50610818610813366004612a46565b611b9b565b6040516102c49190612d43565b34801561083157600080fd5b50610845610840366004612a46565b611dae565b6040516102c49190612d9a565b34801561085e57600080fd5b506102b861086d366004612dd2565b600560209081526000928352604080842090915290825290205460ff1681565b34801561089957600080fd5b506104776108a836600461297f565b611ea6565b3480156108b957600080fd5b506103aa6108c8366004612a46565b611ec7565b3480156108d957600080fd5b506103aa6108e836600461297f565b611f67565b60006301ffc9a760e01b6001600160e01b03198316148061091e57506380ac58cd60e01b6001600160e01b03198316145b806109395750635b5e139f60e01b6001600160e01b03198316145b92915050565b6017602052816000526040600020818154811061095b57600080fd5b6000918252602090912001546001600160a01b03169150829050565b6000805461098490612e05565b80601f01602080910402602001604051908101604052809291908181526020018280546109b090612e05565b80156109fd5780601f106109d2576101008083540402835291602001916109fd565b820191906000526020600020905b8154815290600101906020018083116109e057829003601f168201915b505050505081565b60008181526015602090815260408083208151606081810184528254825260018301548286015260029092015481840152858552601784528285208054845181870281018701909552808552929591949193929091830182828015610a9357602002820191906000526020600020905b81546001600160a01b03168152600190910190602001808311610a75575b505050505090506000826040015190506000836020015167ffffffffffffffff811115610ac257610ac2612a9d565b604051908082528060200260200182016040528015610b2757816020015b610b1460405180608001604052806000815260200160006001600160a01b0316815260200160008152602001600081525090565b815260200190600190039081610ae05790505b50905060005b8460200151811015610bef576000610b458285612e55565b610b50906001612e55565b90506000610b5d826112fe565b90506000610b82600b548851670de0b6b3a7640000610b7c9190612e68565b90611fc7565b90506000610b8f846115aa565b90506040518060800160405280858152602001846001600160a01b0316815260200183815260200182815250868681518110610bcd57610bcd612e7f565b6020026020010181905250505050508080610be790612e95565b915050610b2d565b5095945050505050565b6000818152600260205260409020546001600160a01b031633811480610c4257506001600160a01b038116600090815260056020908152604080832033845290915290205460ff165b610c845760405162461bcd60e51b815260206004820152600e60248201526d1393d517d055551213d49256915160921b60448201526064015b60405180910390fd5b60008281526004602052604080822080546001600160a01b0319166001600160a01b0387811691821790925591518593918516917f8c5be1e5ebec7d5bd14f71427d1e84f3dd0314c0f7b2291e5b200ac8c7c3b92591a4505050565b6007546001600160a01b03163314610d0b576040516338ebc58960e11b815260040160405180910390fd5b600780546001600160a01b0319166001600160a01b0383169081179091556040519081527f167d3e9c1016ab80e58802ca9da10ce5c6a0f4debc46a2e7a2cd9e56899a4fb5906020015b60405180910390a150565b6007546001600160a01b03163314610d8b576040516338ebc58960e11b815260040160405180910390fd5b600c8190556040518181527f7eded2c549bae9a064369318a940074f1c91f965cc3f7aed87ea7dba1c150c0c90602001610d55565b610dc8611fe3565b610de557604051630fc2437760e11b815260040160405180910390fd5b600654600114610e245760405162461bcd60e51b815260206004820152600a6024820152695245454e5452414e435960b01b6044820152606401610c7b565b6002600655600854604080516355573dc360e11b815290516000926001600160a01b03169163aaae7b869160048083019260209291908290030181865afa158015610e73573d6000803e3d6000fd5b505050506040513d601f19601f82011682018060405250810190610e979190612eae565b90506000610ea482612010565b6040805160608101825284815260125460208083019182526014548385019081526013805460009081526015845286812086518155945160018601559151600290940193909355915482526017815292902083519394509092610f099285019061281b565b508151600003610f2057610f1b61211c565b610f29565b610f29826121ee565b610f3533600f546122d0565b610f3d612321565b601254601454610f4d9190612e55565b601455600060118190556012556013546040518481527f2b034c48d6d3c5fa40da8afd25e88ee8ad074a546e1a3f05a860c6106b99b82b9060200160405180910390a25050600160065550565b6007546001600160a01b03163314610fc5576040516338ebc58960e11b815260040160405180910390fd5b60108190556040518181527f7e2e70f554f7a916170e6f8b5fa7b10481e82c540902b810b83bbae02df025d190602001610d55565b6000818152600260205260409020546001600160a01b038481169116146110505760405162461bcd60e51b815260206004820152600a60248201526957524f4e475f46524f4d60b01b6044820152606401610c7b565b6001600160a01b03821661109a5760405162461bcd60e51b81526020600482015260116024820152701253959053125117d49150d25412515395607a1b6044820152606401610c7b565b336001600160a01b03841614806110d457506001600160a01b038316600090815260056020908152604080832033845290915290205460ff165b806110f557506000818152600460205260409020546001600160a01b031633145b6111325760405162461bcd60e51b815260206004820152600e60248201526d1393d517d055551213d49256915160921b6044820152606401610c7b565b6001600160a01b0380841660008181526003602090815260408083208054600019019055938616808352848320805460010190558583526002825284832080546001600160a01b03199081168317909155600490925284832080549092169091559251849392917fddf252ad1be2c89b69c2b068fc378daa952ba7f163c4a11628f55a4df523b3ef91a4505050565b6111cc838383610ffa565b6001600160a01b0382163b15806112755750604051630a85bd0160e11b8082523360048301526001600160a01b03858116602484015260448301849052608060648401526000608484015290919084169063150b7a029060a4016020604051808303816000875af1158015611245573d6000803e3d6000fd5b505050506040513d601f19601f820116820180604052508101906112699190612ec7565b6001600160e01b031916145b6112915760405162461bcd60e51b8152600401610c7b90612ee4565b505050565b6007546001600160a01b031633146112c1576040516338ebc58960e11b815260040160405180910390fd5b600a6112cd8282612f5c565b507f23c8c9488efebfd474e85a7956de6f39b17c7ab88502d42a623db2d8e382bbaa600a604051610d55919061301c565b6000818152600260205260409020546001600160a01b0316806113505760405162461bcd60e51b815260206004820152600a6024820152691393d517d3525395115160b21b6044820152606401610c7b565b919050565b600a805461098490612e05565b60006001600160a01b0382166113a95760405162461bcd60e51b815260206004820152600c60248201526b5a45524f5f4144445245535360a01b6044820152606401610c7b565b506001600160a01b031660009081526003602052604090205490565b60008181526017602090815260409182902080548351818402810184019094528084526060939283018282801561142557602002820191906000526020600020905b81546001600160a01b03168152600190910190602001808311611407575b50505050509050919050565b6007546001600160a01b0316331461145c576040516338ebc58960e11b815260040160405180910390fd5b600b8190556040518181527f4f5539c0409dfc4cb06f64cbd31237e1fbfe443f531584bf4dd77ec7fc5ba7b190602001610d55565b6001805461098490612e05565b6007546001600160a01b031633146114c9576040516338ebc58960e11b815260040160405180910390fd5b6001600160a01b0381166114f05760405163538ba4f960e01b815260040160405180910390fd5b600880546001600160a01b0319166001600160a01b0383169081179091556040519081527f240d8bf6972a9e438d69cd9b1c79a0414806127b38f7b84dd65168e180ad22bc90602001610d55565b3360008181526005602090815260408083206001600160a01b03871680855290835292819020805460ff191686151590811790915590519081529192917f17307eab39ab6107e8899845ad3d59bd9653f200f220920489ca2b5937696c31910160405180910390a35050565b6000818152601660209081526040808320548084526015835281842082516060810184528154815260018201548186015260029091015481840152818552601784528285208054845181870281018701909552808552929491938693909283018282801561164157602002820191906000526020600020905b81546001600160a01b03168152600190910190602001808311611623575b505050505090506000600d54670de0b6b3a7640000846000015161166591906130a7565b118015915061167b575060001995945050505050565b60015b82518110156116e957611690876112fe565b6001600160a01b03168382815181106116ab576116ab612e7f565b60200260200101516001600160a01b0316036116d7576116cc816001612e55565b979650505050505050565b806116e181612e95565b91505061167e565b5060009695505050505050565b611701858585610ffa565b6001600160a01b0384163b15806117985750604051630a85bd0160e11b808252906001600160a01b0386169063150b7a02906117499033908a908990899089906004016130c9565b6020604051808303816000875af1158015611768573d6000803e3d6000fd5b505050506040513d601f19601f8201168201806040525081019061178c9190612ec7565b6001600160e01b031916145b6117b45760405162461bcd60e51b8152600401610c7b90612ee4565b5050505050565b6007546001600160a01b031633146117e6576040516338ebc58960e11b815260040160405180910390fd5b600f8190556040518181527f3e7248ce6e198f34feb7985860c18db7c24b8bfd1694296e521204548b0fbb0c90602001610d55565b6007546001600160a01b03163314611846576040516338ebc58960e11b815260040160405180910390fd5b80516000036118685760405163a75f8d3560e01b815260040160405180910390fd5b805163ffffffff1161188d576040516328592ca560e11b815260040160405180910390fd5b6000805b82518110156118d3578281815181106118ac576118ac612e7f565b6020026020010151826118bf9190612e55565b9150806118cb81612e95565b915050611891565b50670de0b6b3a7640000601054826118eb9190612e55565b111561190a57604051631648186960e31b815260040160405180910390fd5b815161191d90600e906020850190612880565b507fc1053cca128bc27ed92cf297a3b9d6eaab9a735abd9f97861d4fbde40b985b53600e60405161194e919061311d565b60405180910390a15050565b6060600a61196783612339565b604051602001611978929190613158565b6040516020818303038152906040529050919050565b60008181526016602090815260408083205480845260178352818420805483518186028101860190945280845260609592949293928301828280156119fc57602002820191906000526020600020905b81546001600160a01b031681526001909101906020018083116119de575b505050505090506000815190506000611a14866115aa565b90506000198114611a5257611a2884612339565b604051602001611a3891906131df565b604051602081830303815290604052945050505050919050565b80600003611a7357611a6384612339565b604051602001611a389190613228565b611a7c84612339565b611a8582612339565b611a8e84612339565b604051602001611a389392919061326f565b600654600114611adf5760405162461bcd60e51b815260206004820152600a6024820152695245454e5452414e435960b01b6044820152606401610c7b565b6002600655600b543414611b0657604051631da0f5f960e21b815260040160405180910390fd5b601154611b1557611b156123cc565b60128054906000611b2583612e95565b91905055506000601254601454611b3c9190612e55565b6013546000828152601660205260409020559050611b5a3382612413565b6013546040518281523391907f4458602c75f7945f69e6a982b698a0ba5068f2ae7324e34dac6ef89360380e2b9060200160405180910390a3506001600655565b60606000611ba883611dae565b90508051600003611c0f576040805160008082526020820190925290611c07565b611bf46040518060800160405280600081526020016000815260200160008152602001600081525090565b815260200190600190039081611bc95790505b509392505050565b6000815167ffffffffffffffff811115611c2b57611c2b612a9d565b604051908082528060200260200182016040528015611c8757816020015b611c746040518060800160405280600081526020016000815260200160008152602001600081525090565b815260200190600190039081611c495790505b50905060005b8251811015611c07576000838281518110611caa57611caa612e7f565b602090810291909101810151600081815260168352604080822054808352601785528183208054835181880281018801909452808452949650909492939192909190830182828015611d2557602002820191906000526020600020905b81546001600160a01b03168152600190910190602001808311611d07575b505050505090506000611d49600b548351670de0b6b3a7640000610b7c9190612e68565b90506000611d56856115aa565b9050604051806080016040528086815260200185815260200183815260200182815250878781518110611d8b57611d8b612e7f565b602002602001018190525050505050508080611da690612e95565b915050611c8d565b60606000611dbb83611362565b905080600003611ddb576040805160008082526020820190925290611c07565b60008167ffffffffffffffff811115611df657611df6612a9d565b604051908082528060200260200182016040528015611e1f578160200160208202803683370190505b509050600060015b601254601454611e379190612e55565b8111611e9c57856001600160a01b0316611e50826112fe565b6001600160a01b031603611e8a5780838381518110611e7157611e71612e7f565b602090810291909101015281611e8681612e95565b9250505b80611e9481612e95565b915050611e27565b5090949350505050565b600e8181548110611eb657600080fd5b600091825260209091200154905081565b6007546001600160a01b03163314611ef2576040516338ebc58960e11b815260040160405180910390fd5b6001600160a01b038116611f195760405163538ba4f960e01b815260040160405180910390fd5b600980546001600160a01b0319166001600160a01b0383169081179091556040519081527fcb7ef3e545f5cdb893f5c568ba710fe08f336375a2d9fd66e161033f8fc09ef390602001610d55565b6007546001600160a01b03163314611f92576040516338ebc58960e11b815260040160405180910390fd5b600d8190556040518181527f9415f363ad9afde5b77185413860109cbf078b442ace9a0319f1ac90b84df9bd90602001610d55565b6000611fdc8383670de0b6b3a76400006124e3565b9392505050565b6000611ff0601154151590565b801561200b5750600c546011546120079190612e55565b4210155b905090565b600d54606090612028670de0b6b3a7640000846130a7565b101561204257505060408051600081526020810190915290565b600e5460125460009061205790859084612501565b90506000815167ffffffffffffffff81111561207557612075612a9d565b60405190808252806020026020018201604052801561209e578160200160208202803683370190505b50905060005b8251811015612113576120d76014548483815181106120c5576120c5612e7f565b60200260200101516105429190612e55565b8282815181106120e9576120e9612e7f565b6001600160a01b03909216602092830291909101909101528061210b81612e95565b9150506120a4565b50949350505050565b6000612144601054670de0b6b3a764000061213791906132e2565b600f54610b7c90476132e2565b90506000612168601254670de0b6b3a76400006121619190612e68565b8390612623565b905060015b6012548111611291576000612189826014546105429190612e55565b905061219581846122d0565b806001600160a01b03166013547fae718d5005a53e2ce03ae49ffa0750b76ada9a2309cf05356a2ec06ba13a9265856040516121d391815260200190565b60405180910390a350806121e681612e95565b91505061216d565b6000612209601054670de0b6b3a764000061213791906132e2565b905060005b825181101561129157600083828151811061222b5761222b612e7f565b602002602001015190506000612267600e848154811061224d5761224d612e7f565b906000526020600020015485611fc790919063ffffffff16565b905061227382826122d0565b60135460408051858152602081018490526001600160a01b03851692917f01901b784b0a5a9753a8551528cb8faec83886f379113da512c80111edbc8860910160405180910390a3505080806122c890612e95565b91505061220e565b600080600080600085875af19050806112915760405162461bcd60e51b815260206004820152601360248201527211551217d514905394d1915497d19052531151606a1b6044820152606401610c7b565b600954612337906001600160a01b0316476122d0565b565b6060600061234683612638565b600101905060008167ffffffffffffffff81111561236657612366612a9d565b6040519080825280601f01601f191660200182016040528015612390576020820181803683370190505b5090508181016020015b600019016f181899199a1a9b1b9c1cb0b131b232b360811b600a86061a8153600a850494508461239a57509392505050565b601380549060006123dc83612e95565b9091555050426011556013546040517f33a701182892fd888ed152ca2ac23771a32e814469b7cd255965471e1af3a65990600090a2565b61241d8282612710565b6001600160a01b0382163b15806124c35750604051630a85bd0160e11b80825233600483015260006024830181905260448301849052608060648401526084830152906001600160a01b0384169063150b7a029060a4016020604051808303816000875af1158015612493573d6000803e3d6000fd5b505050506040513d601f19601f820116820180604052508101906124b79190612ec7565b6001600160e01b031916145b6124df5760405162461bcd60e51b8152600401610c7b90612ee4565b5050565b60008260001904841183021582026124fa57600080fd5b5091020490565b606060008263ffffffff1667ffffffffffffffff81111561252457612524612a9d565b60405190808252806020026020018201604052801561254d578160200160208202803683370190505b5090508460005b8463ffffffff168110156126185763ffffffff6405deece66d92909202600b0160101c821691600090612589908816846130a7565b612594906001612e55565b9050600160005b838110156125de57828682815181106125b6576125b6612e7f565b6020026020010151036125cc57600091506125de565b806125d681612e95565b91505061259b565b50801561261157818584815181106125f8576125f8612e7f565b60209081029190910101528261260d81612e95565b9350505b5050612554565b509095945050505050565b6000611fdc83670de0b6b3a7640000846124e3565b60008072184f03e93ff9f4daa797ed6e38ed64bf6a1f0160401b83106126775772184f03e93ff9f4daa797ed6e38ed64bf6a1f0160401b830492506040015b6d04ee2d6d415b85acef810000000083106126a3576d04ee2d6d415b85acef8100000000830492506020015b662386f26fc1000083106126c157662386f26fc10000830492506010015b6305f5e10083106126d9576305f5e100830492506008015b61271083106126ed57612710830492506004015b606483106126ff576064830492506002015b600a83106109395760010192915050565b6001600160a01b03821661275a5760405162461bcd60e51b81526020600482015260116024820152701253959053125117d49150d25412515395607a1b6044820152606401610c7b565b6000818152600260205260409020546001600160a01b0316156127b05760405162461bcd60e51b815260206004820152600e60248201526d1053149150511657d3525395115160921b6044820152606401610c7b565b6001600160a01b038216600081815260036020908152604080832080546001019055848352600290915280822080546001600160a01b0319168417905551839291907fddf252ad1be2c89b69c2b068fc378daa952ba7f163c4a11628f55a4df523b3ef908290a45050565b828054828255906000526020600020908101928215612870579160200282015b8281111561287057825182546001600160a01b0319166001600160a01b0390911617825560209092019160019091019061283b565b5061287c9291506128bb565b5090565b828054828255906000526020600020908101928215612870579160200282015b828111156128705782518255916020019190600101906128a0565b5b8082111561287c57600081556001016128bc565b6001600160e01b0319811681146128e657600080fd5b50565b6000602082840312156128fb57600080fd5b8135611fdc816128d0565b6000806040838503121561291957600080fd5b50508035926020909101359150565b60005b8381101561294357818101518382015260200161292b565b50506000910152565b602081526000825180602084015261296b816040850160208701612928565b601f01601f19169190910160400192915050565b60006020828403121561299157600080fd5b5035919050565b602080825282518282018190526000919060409081850190868401855b828110156129f857815180518552868101516001600160a01b031687860152858101518686015260609081015190850152608090930192908501906001016129b5565b5091979650505050505050565b80356001600160a01b038116811461135057600080fd5b60008060408385031215612a2f57600080fd5b612a3883612a05565b946020939093013593505050565b600060208284031215612a5857600080fd5b611fdc82612a05565b600080600060608486031215612a7657600080fd5b612a7f84612a05565b9250612a8d60208501612a05565b9150604084013590509250925092565b634e487b7160e01b600052604160045260246000fd5b604051601f8201601f1916810167ffffffffffffffff81118282101715612adc57612adc612a9d565b604052919050565b60006020808385031215612af757600080fd5b823567ffffffffffffffff80821115612b0f57600080fd5b818501915085601f830112612b2357600080fd5b813581811115612b3557612b35612a9d565b612b47601f8201601f19168501612ab3565b91508082528684828501011115612b5d57600080fd5b8084840185840137600090820190930192909252509392505050565b6020808252825182820181905260009190848201906040850190845b81811015612bba5783516001600160a01b031683529284019291840191600101612b95565b50909695505050505050565b60008060408385031215612bd957600080fd5b612be283612a05565b915060208301358015158114612bf757600080fd5b809150509250929050565b600080600080600060808688031215612c1a57600080fd5b612c2386612a05565b9450612c3160208701612a05565b935060408601359250606086013567ffffffffffffffff80821115612c5557600080fd5b818801915088601f830112612c6957600080fd5b813581811115612c7857600080fd5b896020828501011115612c8a57600080fd5b9699959850939650602001949392505050565b60006020808385031215612cb057600080fd5b823567ffffffffffffffff80821115612cc857600080fd5b818501915085601f830112612cdc57600080fd5b813581811115612cee57612cee612a9d565b8060051b9150612cff848301612ab3565b8181529183018401918481019088841115612d1957600080fd5b938501935b83851015612d3757843582529385019390850190612d1e565b98975050505050505050565b602080825282518282018190526000919060409081850190868401855b828110156129f857815180518552868101518786015285810151868601526060908101519085015260809093019290850190600101612d60565b6020808252825182820181905260009190848201906040850190845b81811015612bba57835183529284019291840191600101612db6565b60008060408385031215612de557600080fd5b612dee83612a05565b9150612dfc60208401612a05565b90509250929050565b600181811c90821680612e1957607f821691505b602082108103612e3957634e487b7160e01b600052602260045260246000fd5b50919050565b634e487b7160e01b600052601160045260246000fd5b8082018082111561093957610939612e3f565b808202811582820484141761093957610939612e3f565b634e487b7160e01b600052603260045260246000fd5b600060018201612ea757612ea7612e3f565b5060010190565b600060208284031215612ec057600080fd5b5051919050565b600060208284031215612ed957600080fd5b8151611fdc816128d0565b60208082526010908201526f155394d0519157d49150d2541251539560821b604082015260600190565b601f82111561129157600081815260208120601f850160051c81016020861015612f355750805b601f850160051c820191505b81811015612f5457828155600101612f41565b505050505050565b815167ffffffffffffffff811115612f7657612f76612a9d565b612f8a81612f848454612e05565b84612f0e565b602080601f831160018114612fbf5760008415612fa75750858301515b600019600386901b1c1916600185901b178555612f54565b600085815260208120601f198616915b82811015612fee57888601518255948401946001909101908401612fcf565b508582101561300c5787850151600019600388901b60f8161c191681555b5050505050600190811b01905550565b600060208083526000845461303081612e05565b80848701526040600180841660008114613051576001811461306b57613099565b60ff1985168984015283151560051b890183019550613099565b896000528660002060005b858110156130915781548b8201860152908301908801613076565b8a0184019650505b509398975050505050505050565b6000826130c457634e487b7160e01b600052601260045260246000fd5b500690565b6001600160a01b038681168252851660208201526040810184905260806060820181905281018290526000828460a0840137600060a0848401015260a0601f19601f85011683010190509695505050505050565b6020808252825482820181905260008481528281209092916040850190845b81811015612bba5783548352600193840193928501920161313c565b600080845461316681612e05565b6001828116801561317e5760018114613193576131c2565b60ff19841687528215158302870194506131c2565b8860005260208060002060005b858110156131b95781548a8201529084019082016131a0565b50505082870194505b5050505083516131d6818360208801612928565b01949350505050565b6502937bab732160d51b815260008251613200816006850160208701612928565b70202d2045766572796f6e652077696e732160781b6006939091019283015250601701919050565b6502937bab732160d51b815260008251613249816006850160208701612928565b6e1016902234b2103737ba103bb4b71760891b6006939091019283015250601501919050565b6502937bab732160d51b815260008451613290816006850160208901612928565b6201016960ed1b60069184019182015284516132b3816009840160208901612928565b602f60f81b6009929091019182015283516132d581600a840160208801612928565b01600a0195945050505050565b8181038181111561093957610939612e3f56fea2646970667358221220f90b230c5218025ca7c6d609c984c300433d4f9b9adf0de02bb9df903a3536a964736f6c63430008120033",
    "linkReferences": {}
  },
  "methodIdentifiers": {
    "approve(address,uint256)": "095ea7b3",
    "balanceOf(address)": "70a08231",
    "baseURI()": "6c0360eb",
    "everyoneWinsProbability()": "be03d23d",
    "finalizeRound()": "1e820325",
    "finalizerReward()": "296af167",
    "getApproved(uint256)": "081812fc",
    "getOwnerTokenIds(address)": "e66b6000",
    "getOwnerTokens(address)": "d63d4af0",
    "getRoundTokens(uint256)": "08218087",
    "isApprovedForAll(address,address)": "e985e9c5",
    "lastRoundLastTokenId()": "4f183cc5",
    "minDuration()": "56715761",
    "name()": "06fdde03",
    "owner()": "8da5cb5b",
    "ownerOf(uint256)": "6352211e",
    "participate()": "d11711a2",
    "price()": "a035b1fe",
    "prizeRank(uint256)": "a6bd686b",
    "prizes(uint256)": "eccb3a4f",
    "rc()": "12f77332",
    "roundId()": "8cd221c9",
    "roundParticipants()": "d40dc869",
    "roundStartedAt()": "a16e56fc",
    "roundWinners(uint256,uint256)": "03e3cd6a",
    "roundWinnersArray(uint256)": "7883bc9a",
    "rounds(uint256)": "8c65c81f",
    "safeTransferFrom(address,address,uint256)": "42842e0e",
    "safeTransferFrom(address,address,uint256,bytes)": "b88d4fde",
    "setApprovalForAll(address,bool)": "a22cb465",
    "setBaseURI(string)": "55f804b3",
    "setEveryoneWinsProbability(uint256)": "f1816b1e",
    "setFinalizerReward(uint256)": "bba33931",
    "setMinDuration(uint256)": "1674bade",
    "setOwner(address)": "13af4035",
    "setPrice(uint256)": "91b7f5ed",
    "setPrizes(uint256[])": "c0f2165e",
    "setRandomnessClient(address)": "97811c4c",
    "setTreasury(address)": "f0f44260",
    "setTreasuryReserve(uint256)": "1ecd794f",
    "supportsInterface(bytes4)": "01ffc9a7",
    "symbol()": "95d89b41",
    "tokenIdRound(uint256)": "7b808ecc",
    "tokenInfo(uint256)": "cc33c875",
    "tokenURI(uint256)": "c87b56dd",
    "transferFrom(address,address,uint256)": "23b872dd",
    "treasury()": "61d027b3",
    "treasuryReserve()": "59297dbf"
  },
  "id": 25
}