{
  "abi": [
    {
      "inputs": [],
      "stateMutability": "nonpayable",
      "type": "constructor"
    },
    {
      "inputs": [],
      "name": "NOT_MANAGER",
      "type": "error"
    },
    {
      "inputs": [],
      "name": "NOT_WITHDRAWER",
      "type": "error"
    },
    {
      "inputs": [],
      "name": "ZERO_ADDRESS",
      "type": "error"
    },
    {
      "inputs": [],
      "name": "manager",
      "outputs": [
        {
          "internalType": "address",
          "name": "",
          "type": "address"
        }
      ],
      "stateMutability": "view",
      "type": "function"
    },
    {
      "inputs": [
        {
          "internalType": "address",
          "name": "_manager",
          "type": "address"
        }
      ],
      "name": "setManager",
      "outputs": [],
      "stateMutability": "nonpayable",
      "type": "function"
    },
    {
      "inputs": [
        {
          "internalType": "address",
          "name": "_withdrawer",
          "type": "address"
        },
        {
          "internalType": "bool",
          "name": "_allowed",
          "type": "bool"
        }
      ],
      "name": "setWithdrawer",
      "outputs": [],
      "stateMutability": "nonpayable",
      "type": "function"
    },
    {
      "inputs": [
        {
          "internalType": "address",
          "name": "_token",
          "type": "address"
        },
        {
          "internalType": "address",
          "name": "_to",
          "type": "address"
        },
        {
          "internalType": "uint256",
          "name": "_amount",
          "type": "uint256"
        }
      ],
      "name": "withdraw",
      "outputs": [],
      "stateMutability": "nonpayable",
      "type": "function"
    },
    {
      "inputs": [
        {
          "internalType": "address payable",
          "name": "_to",
          "type": "address"
        },
        {
          "internalType": "uint256",
          "name": "_amount",
          "type": "uint256"
        }
      ],
      "name": "withdrawEth",
      "outputs": [],
      "stateMutability": "nonpayable",
      "type": "function"
    },
    {
      "inputs": [
        {
          "internalType": "address",
          "name": "",
          "type": "address"
        }
      ],
      "name": "withdrawers",
      "outputs": [
        {
          "internalType": "bool",
          "name": "",
          "type": "bool"
        }
      ],
      "stateMutability": "view",
      "type": "function"
    }
  ],
  "bytecode": {
    "object": "0x608060405234801561001057600080fd5b50600080546001600160a01b03191633179055610478806100326000396000f3fe608060405234801561001057600080fd5b50600436106100625760003560e01c80631b9a91a414610067578063481c6a751461007c57806382c3b965146100ac578063d0ebdbe7146100bf578063d9caed12146100d2578063e210cc1b146100e5575b600080fd5b61007a610075366004610373565b610118565b005b60005461008f906001600160a01b031681565b6040516001600160a01b0390911681526020015b60405180910390f35b61007a6100ba36600461039f565b610156565b61007a6100cd3660046103dd565b6101d3565b61007a6100e0366004610401565b610247565b6101086100f33660046103dd565b60016020526000908152604090205460ff1681565b60405190151581526020016100a3565b3360009081526001602052604090205460ff166101485760405163ca51af7360e01b815260040160405180910390fd5b6101528282610287565b5050565b6000546001600160a01b0316331461018157604051634df0b5ad60e11b815260040160405180910390fd5b6001600160a01b0382166101a85760405163538ba4f960e01b815260040160405180910390fd5b6001600160a01b03919091166000908152600160205260409020805460ff1916911515919091179055565b6000546001600160a01b031633146101fe57604051634df0b5ad60e11b815260040160405180910390fd5b6001600160a01b0381166102255760405163538ba4f960e01b815260040160405180910390fd5b600080546001600160a01b0319166001600160a01b0392909216919091179055565b3360009081526001602052604090205460ff166102775760405163ca51af7360e01b815260040160405180910390fd5b6102828383836102dd565b505050565b600080600080600085875af19050806102825760405162461bcd60e51b815260206004820152601360248201527211551217d514905394d1915497d19052531151606a1b60448201526064015b60405180910390fd5b600060405163a9059cbb60e01b8152836004820152826024820152602060006044836000895af13d15601f3d11600160005114161716915050806103555760405162461bcd60e51b815260206004820152600f60248201526e1514905394d1915497d19052531151608a1b60448201526064016102d4565b50505050565b6001600160a01b038116811461037057600080fd5b50565b6000806040838503121561038657600080fd5b82356103918161035b565b946020939093013593505050565b600080604083850312156103b257600080fd5b82356103bd8161035b565b9150602083013580151581146103d257600080fd5b809150509250929050565b6000602082840312156103ef57600080fd5b81356103fa8161035b565b9392505050565b60008060006060848603121561041657600080fd5b83356104218161035b565b925060208401356104318161035b565b92959294505050604091909101359056fea264697066735822122046c5f6f2f16d21161c55c3b0416727b1e0c4deebca2bb20045ea6630ceaf246364736f6c63430008120033",
    "linkReferences": {}
  },
  "methodIdentifiers": {
    "manager()": "481c6a75",
    "setManager(address)": "d0ebdbe7",
    "setWithdrawer(address,bool)": "82c3b965",
    "withdraw(address,address,uint256)": "d9caed12",
    "withdrawEth(address,uint256)": "1b9a91a4",
    "withdrawers(address)": "e210cc1b"
  },
  "id": 24
}