{
  "abi": [
    {
      "inputs": [],
      "stateMutability": "nonpayable",
      "type": "constructor"
    },
    {
      "inputs": [],
      "name": "NOT_MANAGER",
      "type": "error"
    },
    {
      "inputs": [],
      "name": "NOT_WITHDRAWER",
      "type": "error"
    },
    {
      "inputs": [],
      "name": "ZERO_ADDRESS",
      "type": "error"
    },
    {
      "stateMutability": "payable",
      "type": "fallback"
    },
    {
      "inputs": [],
      "name": "manager",
      "outputs": [
        {
          "internalType": "address",
          "name": "",
          "type": "address"
        }
      ],
      "stateMutability": "view",
      "type": "function"
    },
    {
      "inputs": [
        {
          "internalType": "address",
          "name": "_manager",
          "type": "address"
        }
      ],
      "name": "setManager",
      "outputs": [],
      "stateMutability": "nonpayable",
      "type": "function"
    },
    {
      "inputs": [
        {
          "internalType": "address",
          "name": "_withdrawer",
          "type": "address"
        },
        {
          "internalType": "bool",
          "name": "_allowed",
          "type": "bool"
        }
      ],
      "name": "setWithdrawer",
      "outputs": [],
      "stateMutability": "nonpayable",
      "type": "function"
    },
    {
      "inputs": [
        {
          "internalType": "address",
          "name": "_token",
          "type": "address"
        },
        {
          "internalType": "address",
          "name": "_to",
          "type": "address"
        },
        {
          "internalType": "uint256",
          "name": "_amount",
          "type": "uint256"
        }
      ],
      "name": "withdraw",
      "outputs": [],
      "stateMutability": "nonpayable",
      "type": "function"
    },
    {
      "inputs": [
        {
          "internalType": "address payable",
          "name": "_to",
          "type": "address"
        },
        {
          "internalType": "uint256",
          "name": "_amount",
          "type": "uint256"
        }
      ],
      "name": "withdrawEth",
      "outputs": [],
      "stateMutability": "nonpayable",
      "type": "function"
    },
    {
      "inputs": [
        {
          "internalType": "address",
          "name": "",
          "type": "address"
        }
      ],
      "name": "withdrawers",
      "outputs": [
        {
          "internalType": "bool",
          "name": "",
          "type": "bool"
        }
      ],
      "stateMutability": "view",
      "type": "function"
    },
    {
      "stateMutability": "payable",
      "type": "receive"
    }
  ],
  "bytecode": {
    "object": "0x608060405234801561001057600080fd5b50600080546001600160a01b031916331790556104bc806100326000396000f3fe6080604052600436106100565760003560e01c80631b9a91a41461005f578063481c6a751461007f57806382c3b965146100bc578063d0ebdbe7146100dc578063d9caed12146100fc578063e210cc1b1461011c57005b3661005d57005b005b34801561006b57600080fd5b5061005d61007a3660046103b7565b61015c565b34801561008b57600080fd5b5060005461009f906001600160a01b031681565b6040516001600160a01b0390911681526020015b60405180910390f35b3480156100c857600080fd5b5061005d6100d73660046103e3565b61019a565b3480156100e857600080fd5b5061005d6100f7366004610421565b610217565b34801561010857600080fd5b5061005d610117366004610445565b61028b565b34801561012857600080fd5b5061014c610137366004610421565b60016020526000908152604090205460ff1681565b60405190151581526020016100b3565b3360009081526001602052604090205460ff1661018c5760405163ca51af7360e01b815260040160405180910390fd5b61019682826102cb565b5050565b6000546001600160a01b031633146101c557604051634df0b5ad60e11b815260040160405180910390fd5b6001600160a01b0382166101ec5760405163538ba4f960e01b815260040160405180910390fd5b6001600160a01b03919091166000908152600160205260409020805460ff1916911515919091179055565b6000546001600160a01b0316331461024257604051634df0b5ad60e11b815260040160405180910390fd5b6001600160a01b0381166102695760405163538ba4f960e01b815260040160405180910390fd5b600080546001600160a01b0319166001600160a01b0392909216919091179055565b3360009081526001602052604090205460ff166102bb5760405163ca51af7360e01b815260040160405180910390fd5b6102c6838383610321565b505050565b600080600080600085875af19050806102c65760405162461bcd60e51b815260206004820152601360248201527211551217d514905394d1915497d19052531151606a1b60448201526064015b60405180910390fd5b600060405163a9059cbb60e01b8152836004820152826024820152602060006044836000895af13d15601f3d11600160005114161716915050806103995760405162461bcd60e51b815260206004820152600f60248201526e1514905394d1915497d19052531151608a1b6044820152606401610318565b50505050565b6001600160a01b03811681146103b457600080fd5b50565b600080604083850312156103ca57600080fd5b82356103d58161039f565b946020939093013593505050565b600080604083850312156103f657600080fd5b82356104018161039f565b91506020830135801515811461041657600080fd5b809150509250929050565b60006020828403121561043357600080fd5b813561043e8161039f565b9392505050565b60008060006060848603121561045a57600080fd5b83356104658161039f565b925060208401356104758161039f565b92959294505050604091909101359056fea264697066735822122019379fc109b9747c67393a8636d70e4c3d297b67c6c7b3e86add8612fcc535ea64736f6c63430008120033",
    "linkReferences": {}
  },
  "methodIdentifiers": {
    "manager()": "481c6a75",
    "setManager(address)": "d0ebdbe7",
    "setWithdrawer(address,bool)": "82c3b965",
    "withdraw(address,address,uint256)": "d9caed12",
    "withdrawEth(address,uint256)": "1b9a91a4",
    "withdrawers(address)": "e210cc1b"
  },
  "id": 24
}